{
  "transactions": [
    {
      "hash": "0x7e6af329929522972229af3515ba5ef6a2c64b64f048b404ae264a159bdc4427",
      "transactionType": "CALL",
      "contractName": null,
      "contractAddress": "0x34c91651a070664279866e5f3d6b4d5f65cbbffb",
      "function": "createWithPt(address,uint256)",
      "arguments": [
        "0x936F210d277bf489A3211CeF9AB4BC47a7B69C96",
        "250000000000000000"
      ],
      "transaction": {
        "from": "0x6d228fa4dad2163056a48fc2186d716f5c65e89a",
        "to": "0x34c91651a070664279866e5f3d6b4d5f65cbbffb",
        "gas": "0x54658",
        "value": "0x0",
        "input": "0x80245dad000000000000000000000000936f210d277bf489a3211cef9ab4bc47a7b69c9600000000000000000000000000000000000000000000000003782dace9d90000",
        "nonce": "0x3bb",
        "chainId": "0xa4b1"
      },
      "additionalContracts": [
        {
          "transactionType": "CREATE",
          "address": "0x6b1a199b86e41c1b03f39785d1cc3ffe59b093b9",
          "initCode": "0x60e080604052346100eb5760408161055d803803809161001f828561016e565b8339810103126100eb578051906001600160a01b038216908183036100eb576020015191670de0b6b3a76400008311610136578115610102576080526040516370c264df60e11b815290602090829060049082905afa9081156100f7575f916100c1575b5060a05260c0526040516103b790816101a68239608051816101f6015260a051818181608e0152610322015260c05181818161024f01526103470152f35b90506020813d6020116100ef575b816100dc6020938361016e565b810103126100eb57515f610083565b5f80fd5b3d91506100cf565b6040513d5f823e3d90fd5b60405162461bcd60e51b815260206004820152600c60248201526b7a65726f206164647265737360a01b6044820152606490fd5b60405162461bcd60e51b815260206004820152601060248201526f1a5b9d985b1a5908191a5cd8dbdd5b9d60821b6044820152606490fd5b601f909101601f19168101906001600160401b0382119082101761019157604052565b634e487b7160e01b5f52604160045260245ffdfe6080806040526004361015610012575f80fd5b5f3560e01c908163204f83f9146102ef575080632336dbe4146102ab578063313ce56714610272578063598e54511461021a578063d94073d4146101ac5763feaf968c1461005e575f80fd5b346101a8575f7ffffffffffffffffffffffffffffffffffffffffffffffffffffffffffffffffc3601126101a8577f00000000000000000000000000000000000000000000000000000000000000004281111561019e57428103908111610113576100c890610345565b670de0b6b3a7640000811161014057670de0b6b3a764000003670de0b6b3a764000081116101135760a090604051905f825260208201525f60408201525f60608201525f6080820152f35b7f4e487b71000000000000000000000000000000000000000000000000000000005f52601160045260245ffd5b60646040517f08c379a000000000000000000000000000000000000000000000000000000000815260206004820152601160248201527f646973636f756e74206f766572666c6f770000000000000000000000000000006044820152fd5b506100c85f610345565b5f80fd5b346101a8575f7ffffffffffffffffffffffffffffffffffffffffffffffffffffffffffffffffc3601126101a857602060405173ffffffffffffffffffffffffffffffffffffffff7f0000000000000000000000000000000000000000000000000000000000000000168152f35b346101a8575f7ffffffffffffffffffffffffffffffffffffffffffffffffffffffffffffffffc3601126101a85760206040517f00000000000000000000000000000000000000000000000000000000000000008152f35b346101a8575f7ffffffffffffffffffffffffffffffffffffffffffffffffffffffffffffffffc3601126101a857602060405160128152f35b346101a85760207ffffffffffffffffffffffffffffffffffffffffffffffffffffffffffffffffc3601126101a85760206102e7600435610345565b604051908152f35b346101a8575f7ffffffffffffffffffffffffffffffffffffffffffffffffffffffffffffffffc3601126101a8576020907f00000000000000000000000000000000000000000000000000000000000000008152f35b7f000000000000000000000000000000000000000000000000000000000000000090818102918183041490151715610113576301e1338090049056fea264697066735822122093412547ef46717938ff7b757db5c6fea123f297792bbcb6dd83138ac034e7e064736f6c634300081c0033000000000000000000000000936f210d277bf489a3211cef9ab4bc47a7b69c9600000000000000000000000000000000000000000000000003782dace9d90000"
        }
      ],
      "isFixedGasLimit": false
    }
  ],
  "receipts": [
    {
      "status": "0x1",
      "cumulativeGasUsed": "0x4ecfd",
      "logs": [
        {
          "address": "0x34c91651a070664279866e5f3d6b4d5f65cbbffb",
          "topics": [
            "0x90ee845759e3368e15efca97a228f30ad3e506893c7f9215b13c393b31f8e620",
            "0x000000000000000000000000936f210d277bf489a3211cef9ab4bc47a7b69c96"
          ],
          "data": "0x00000000000000000000000000000000000000000000000003782dace9d900000000000000000000000000006b1a199b86e41c1b03f39785d1cc3ffe59b093b9",
          "blockHash": "0x9759709f7ff98d33802301e0f9d719ac944bc5e85c10d7d2af8da2d0bce48e60",
          "blockNumber": "0x1639a8b5",
          "transactionHash": "0x7e6af329929522972229af3515ba5ef6a2c64b64f048b404ae264a159bdc4427",
          "transactionIndex": "0x2",
          "logIndex": "0x0",
          "removed": false
        }
      ],
      "logsBloom": "0x00000000000000000000000000000000000000000000000000000000080000000000001000000000000000000000000000000000000000000000000000000000000000000000000000000000000000000000000000010000000000000000000000000000400000000000000000000000000000000000000000000000000000000000000000000000000000000000000000000000000000000000000000000000000000000000000000000000000000000000000000000000000000000000000000000000000000000000000002000000000000008000000000000000000020000000000000000000000000000000000000000000000002200000000000000000",
      "type": "0x2",
      "transactionHash": "0x7e6af329929522972229af3515ba5ef6a2c64b64f048b404ae264a159bdc4427",
      "transactionIndex": "0x2",
      "blockHash": "0x9759709f7ff98d33802301e0f9d719ac944bc5e85c10d7d2af8da2d0bce48e60",
      "blockNumber": "0x1639a8b5",
      "gasUsed": "0x3f868",
      "effectiveGasPrice": "0x995db8",
      "from": "0x6d228fa4dad2163056a48fc2186d716f5c65e89a",
      "to": "0x34c91651a070664279866e5f3d6b4d5f65cbbffb",
      "contractAddress": null,
      "gasUsedForL1": "0x265f",
      "l1BlockNumber": "0x1628352",
      "timeboosted": false
    }
  ],
  "libraries": [],
  "pending": [],
  "returns": {},
  "timestamp": 1756308659,
  "chain": 42161,
  "commit": "34c6bc12a"
}