{
  "transactions": [
    {
      "hash": "0x26c9c8f3fd67870259a10a8c1034514b62897e72ce45d8e8be361567783fb4e7",
      "transactionType": "CALL",
      "contractName": null,
      "contractAddress": "0xca11bde05977b3631167028862be2a173976ca11",
      "function": "aggregate3((address,bool,bytes)[])",
      "arguments": [
        "[(0x2Ac4Cb8A1754d54BAca3A4d32ADf7E3fA45d31ce, false, 0x476343ee), (0x506D6D820E5835B9b1d28C58019d0095bA0918fD, false, 0x476343ee), (0x224C4A79f016EF09E3c9C0F187a3db24d1DC0F21, false, 0x476343ee), (0xD8a26DFEba3E9B558Bd79d10722636Dfb4dc2bF4, false, 0x476343ee), (0x1cE6845B2996e4B0dCBA0AF7daAe5454e2C43F6a, false, 0x476343ee), (0xE0345f66318F482aCCcd67244A921C7FDC410957, false, 0x476343ee), (0x672b77f0538b53Dc117C9dDfEb7377A678d321a6, false, 0x476343ee), (0x7437ac81457Fa98fFB2d0C8f9943ecfE4813e2f1, false, 0x476343ee), (0xc97629d52431fD3Ee71dd24885501cba2205b1Fb, false, 0x476343ee), (0x9C4D4800b489d217724155399CD64D07Eae603f3, false, 0x476343ee), (0xD1DD7f8AFfBdEF3594d84245EAdAc0940D9394C3, false, 0x476343ee), (0xE0fc62e685E2b3183b4B88b1fE674cFEc55a63F7, false, 0x476343ee), (0x8CE973A91C2636717475515Cc2DEB46b765E5072, false, 0x476343ee), (0x20aBeCf84cE707C3650B4e8Afcf7eA1e22bbCd0C, false, 0x476343ee), (0xCDe5F8D4b1Fa41d9DEE31d5A1044D2F3c9F5Ac32, false, 0x476343ee), (0x606fe9a70338e798a292CA22C1F28C829F24048E, false, 0x476343ee), (0x678bc8BbCD59eB63a7302A305E116E5fCF3Dd419, false, 0x476343ee), (0x2690f75325d2A7d966e9c3688879Bc9f1e3BB1cB, false, 0x476343ee)]"
      ],
      "transaction": {
        "from": "0xaad2f138eb20fb60c34ac70624339ccbac2320fa",
        "to": "0xca11bde05977b3631167028862be2a173976ca11",
        "gas": "0x2bc396",
        "value": "0x0",
        "input": "0x82ad56cb00000000000000000000000000000000000000000000000000000000000000200000000000000000000000000000000000000000000000000000000000000012000000000000000000000000000000000000000000000000000000000000024000000000000000000000000000000000000000000000000000000000000002e00000000000000000000000000000000000000000000000000000000000000380000000000000000000000000000000000000000000000000000000000000042000000000000000000000000000000000000000000000000000000000000004c00000000000000000000000000000000000000000000000000000000000000560000000000000000000000000000000000000000000000000000000000000060000000000000000000000000000000000000000000000000000000000000006a0000000000000000000000000000000000000000000000000000000000000074000000000000000000000000000000000000000000000000000000000000007e00000000000000000000000000000000000000000000000000000000000000880000000000000000000000000000000000000000000000000000000000000092000000000000000000000000000000000000000000000000000000000000009c00000000000000000000000000000000000000000000000000000000000000a600000000000000000000000000000000000000000000000000000000000000b000000000000000000000000000000000000000000000000000000000000000ba00000000000000000000000000000000000000000000000000000000000000c400000000000000000000000000000000000000000000000000000000000000ce00000000000000000000000002ac4cb8a1754d54baca3a4d32adf7e3fa45d31ce000000000000000000000000000000000000000000000000000000000000000000000000000000000000000000000000000000000000000000000000000000600000000000000000000000000000000000000000000000000000000000000004476343ee00000000000000000000000000000000000000000000000000000000000000000000000000000000506d6d820e5835b9b1d28c58019d0095ba0918fd000000000000000000000000000000000000000000000000000000000000000000000000000000000000000000000000000000000000000000000000000000600000000000000000000000000000000000000000000000000000000000000004476343ee00000000000000000000000000000000000000000000000000000000000000000000000000000000224c4a79f016ef09e3c9c0f187a3db24d1dc0f21000000000000000000000000000000000000000000000000000000000000000000000000000000000000000000000000000000000000000000000000000000600000000000000000000000000000000000000000000000000000000000000004476343ee00000000000000000000000000000000000000000000000000000000000000000000000000000000d8a26dfeba3e9b558bd79d10722636dfb4dc2bf4000000000000000000000000000000000000000000000000000000000000000000000000000000000000000000000000000000000000000000000000000000600000000000000000000000000000000000000000000000000000000000000004476343ee000000000000000000000000000000000000000000000000000000000000000000000000000000001ce6845b2996e4b0dcba0af7daae5454e2c43f6a000000000000000000000000000000000000000000000000000000000000000000000000000000000000000000000000000000000000000000000000000000600000000000000000000000000000000000000000000000000000000000000004476343ee00000000000000000000000000000000000000000000000000000000000000000000000000000000e0345f66318f482acccd67244a921c7fdc410957000000000000000000000000000000000000000000000000000000000000000000000000000000000000000000000000000000000000000000000000000000600000000000000000000000000000000000000000000000000000000000000004476343ee00000000000000000000000000000000000000000000000000000000000000000000000000000000672b77f0538b53dc117c9ddfeb7377a678d321a6000000000000000000000000000000000000000000000000000000000000000000000000000000000000000000000000000000000000000000000000000000600000000000000000000000000000000000000000000000000000000000000004476343ee000000000000000000000000000000000000000000000000000000000000000000000000000000007437ac81457fa98ffb2d0c8f9943ecfe4813e2f1000000000000000000000000000000000000000000000000000000000000000000000000000000000000000000000000000000000000000000000000000000600000000000000000000000000000000000000000000000000000000000000004476343ee00000000000000000000000000000000000000000000000000000000000000000000000000000000c97629d52431fd3ee71dd24885501cba2205b1fb000000000000000000000000000000000000000000000000000000000000000000000000000000000000000000000000000000000000000000000000000000600000000000000000000000000000000000000000000000000000000000000004476343ee000000000000000000000000000000000000000000000000000000000000000000000000000000009c4d4800b489d217724155399cd64d07eae603f3000000000000000000000000000000000000000000000000000000000000000000000000000000000000000000000000000000000000000000000000000000600000000000000000000000000000000000000000000000000000000000000004476343ee00000000000000000000000000000000000000000000000000000000000000000000000000000000d1dd7f8affbdef3594d84245eadac0940d9394c3000000000000000000000000000000000000000000000000000000000000000000000000000000000000000000000000000000000000000000000000000000600000000000000000000000000000000000000000000000000000000000000004476343ee00000000000000000000000000000000000000000000000000000000000000000000000000000000e0fc62e685e2b3183b4b88b1fe674cfec55a63f7000000000000000000000000000000000000000000000000000000000000000000000000000000000000000000000000000000000000000000000000000000600000000000000000000000000000000000000000000000000000000000000004476343ee000000000000000000000000000000000000000000000000000000000000000000000000000000008ce973a91c2636717475515cc2deb46b765e5072000000000000000000000000000000000000000000000000000000000000000000000000000000000000000000000000000000000000000000000000000000600000000000000000000000000000000000000000000000000000000000000004476343ee0000000000000000000000000000000000000000000000000000000000000000000000000000000020abecf84ce707c3650b4e8afcf7ea1e22bbcd0c000000000000000000000000000000000000000000000000000000000000000000000000000000000000000000000000000000000000000000000000000000600000000000000000000000000000000000000000000000000000000000000004476343ee00000000000000000000000000000000000000000000000000000000000000000000000000000000cde5f8d4b1fa41d9dee31d5a1044d2f3c9f5ac32000000000000000000000000000000000000000000000000000000000000000000000000000000000000000000000000000000000000000000000000000000600000000000000000000000000000000000000000000000000000000000000004476343ee00000000000000000000000000000000000000000000000000000000000000000000000000000000606fe9a70338e798a292ca22c1f28c829f24048e000000000000000000000000000000000000000000000000000000000000000000000000000000000000000000000000000000000000000000000000000000600000000000000000000000000000000000000000000000000000000000000004476343ee00000000000000000000000000000000000000000000000000000000000000000000000000000000678bc8bbcd59eb63a7302a305e116e5fcf3dd419000000000000000000000000000000000000000000000000000000000000000000000000000000000000000000000000000000000000000000000000000000600000000000000000000000000000000000000000000000000000000000000004476343ee000000000000000000000000000000000000000000000000000000000000000000000000000000002690f75325d2a7d966e9c3688879bc9f1e3bb1cb000000000000000000000000000000000000000000000000000000000000000000000000000000000000000000000000000000000000000000000000000000600000000000000000000000000000000000000000000000000000000000000004476343ee00000000000000000000000000000000000000000000000000000000",
        "nonce": "0x0",
        "chainId": "0xa86a"
      },
      "additionalContracts": [],
      "isFixedGasLimit": false
    }
  ],
  "receipts": [
    {
      "status": "0x1",
      "cumulativeGasUsed": "0x2775e3",
      "logs": [
        {
          "address": "0x2ac4cb8a1754d54baca3a4d32adf7e3fa45d31ce",
          "topics": [
            "0xd1fe0093c54116fe147366ec7de3cfa98e1e02e91d7ccb124241f6beae255b4c"
          ],
          "data": "0x0000000000000000000000000000000000000000000000000000000000005064",
          "blockHash": "0xe17ecc3567ad7351305f1bf2b6cd36a9ac225e26c65ea5fa6050b373290377f3",
          "blockNumber": "0x40e629f",
          "transactionHash": "0x26c9c8f3fd67870259a10a8c1034514b62897e72ce45d8e8be361567783fb4e7",
          "transactionIndex": "0x3",
          "logIndex": "0xc",
          "removed": false
        },
        {
          "address": "0xb97ef9ef8734c71904d8002f8b6bc66dd9c48a6e",
          "topics": [
            "0xddf252ad1be2c89b69c2b068fc378daa952ba7f163c4a11628f55a4df523b3ef",
            "0x0000000000000000000000002ac4cb8a1754d54baca3a4d32adf7e3fa45d31ce",
            "0x000000000000000000000000e8e8041cb5e3158a0829a19e014ca1cf91098554"
          ],
          "data": "0x0000000000000000000000000000000000000000000000000000000000000000",
          "blockHash": "0xe17ecc3567ad7351305f1bf2b6cd36a9ac225e26c65ea5fa6050b373290377f3",
          "blockNumber": "0x40e629f",
          "transactionHash": "0x26c9c8f3fd67870259a10a8c1034514b62897e72ce45d8e8be361567783fb4e7",
          "transactionIndex": "0x3",
          "logIndex": "0xd",
          "removed": false
        },
        {
          "address": "0xb97ef9ef8734c71904d8002f8b6bc66dd9c48a6e",
          "topics": [
            "0xddf252ad1be2c89b69c2b068fc378daa952ba7f163c4a11628f55a4df523b3ef",
            "0x0000000000000000000000002ac4cb8a1754d54baca3a4d32adf7e3fa45d31ce",
            "0x000000000000000000000000e8e8041cb5e3158a0829a19e014ca1cf91098554"
          ],
          "data": "0x00000000000000000000000000000000000000000000000000000000009637f7",
          "blockHash": "0xe17ecc3567ad7351305f1bf2b6cd36a9ac225e26c65ea5fa6050b373290377f3",
          "blockNumber": "0x40e629f",
          "transactionHash": "0x26c9c8f3fd67870259a10a8c1034514b62897e72ce45d8e8be361567783fb4e7",
          "transactionIndex": "0x3",
          "logIndex": "0xe",
          "removed": false
        },
        {
          "address": "0x2ac4cb8a1754d54baca3a4d32adf7e3fa45d31ce",
          "topics": [
            "0x58ce9a502017c1e4e0084fcfd7067e2642dfe9e11757d8017b9cf16d729967c7"
          ],
          "data": "0x00000000000000000000000000000000000000000000000000000000009637f700000000000000000000000000000000000000000000000000000000000000000000000000000000000000000000000000000000000000000000000000000000",
          "blockHash": "0xe17ecc3567ad7351305f1bf2b6cd36a9ac225e26c65ea5fa6050b373290377f3",
          "blockNumber": "0x40e629f",
          "transactionHash": "0x26c9c8f3fd67870259a10a8c1034514b62897e72ce45d8e8be361567783fb4e7",
          "transactionIndex": "0x3",
          "logIndex": "0xf",
          "removed": false
        },
        {
          "address": "0x506d6d820e5835b9b1d28c58019d0095ba0918fd",
          "topics": [
            "0xd1fe0093c54116fe147366ec7de3cfa98e1e02e91d7ccb124241f6beae255b4c"
          ],
          "data": "0x00000000000000000000000000000000000000000000000000021815346526af",
          "blockHash": "0xe17ecc3567ad7351305f1bf2b6cd36a9ac225e26c65ea5fa6050b373290377f3",
          "blockNumber": "0x40e629f",
          "transactionHash": "0x26c9c8f3fd67870259a10a8c1034514b62897e72ce45d8e8be361567783fb4e7",
          "transactionIndex": "0x3",
          "logIndex": "0x10",
          "removed": false
        },
        {
          "address": "0xb31f66aa3c1e785363f0875a1b74e27b85fd66c7",
          "topics": [
            "0xddf252ad1be2c89b69c2b068fc378daa952ba7f163c4a11628f55a4df523b3ef",
            "0x000000000000000000000000506d6d820e5835b9b1d28c58019d0095ba0918fd",
            "0x000000000000000000000000e8e8041cb5e3158a0829a19e014ca1cf91098554"
          ],
          "data": "0x0000000000000000000000000000000000000000000000000000000000000000",
          "blockHash": "0xe17ecc3567ad7351305f1bf2b6cd36a9ac225e26c65ea5fa6050b373290377f3",
          "blockNumber": "0x40e629f",
          "transactionHash": "0x26c9c8f3fd67870259a10a8c1034514b62897e72ce45d8e8be361567783fb4e7",
          "transactionIndex": "0x3",
          "logIndex": "0x11",
          "removed": false
        },
        {
          "address": "0xb31f66aa3c1e785363f0875a1b74e27b85fd66c7",
          "topics": [
            "0xddf252ad1be2c89b69c2b068fc378daa952ba7f163c4a11628f55a4df523b3ef",
            "0x000000000000000000000000506d6d820e5835b9b1d28c58019d0095ba0918fd",
            "0x000000000000000000000000e8e8041cb5e3158a0829a19e014ca1cf91098554"
          ],
          "data": "0x00000000000000000000000000000000000000000000000027a7b7e2f3f6dea8",
          "blockHash": "0xe17ecc3567ad7351305f1bf2b6cd36a9ac225e26c65ea5fa6050b373290377f3",
          "blockNumber": "0x40e629f",
          "transactionHash": "0x26c9c8f3fd67870259a10a8c1034514b62897e72ce45d8e8be361567783fb4e7",
          "transactionIndex": "0x3",
          "logIndex": "0x12",
          "removed": false
        },
        {
          "address": "0x506d6d820e5835b9b1d28c58019d0095ba0918fd",
          "topics": [
            "0x58ce9a502017c1e4e0084fcfd7067e2642dfe9e11757d8017b9cf16d729967c7"
          ],
          "data": "0x00000000000000000000000000000000000000000000000027a7b7e2f3f6dea800000000000000000000000000000000000000000000000000000000000000000000000000000000000000000000000000000000000000000000000000000000",
          "blockHash": "0xe17ecc3567ad7351305f1bf2b6cd36a9ac225e26c65ea5fa6050b373290377f3",
          "blockNumber": "0x40e629f",
          "transactionHash": "0x26c9c8f3fd67870259a10a8c1034514b62897e72ce45d8e8be361567783fb4e7",
          "transactionIndex": "0x3",
          "logIndex": "0x13",
          "removed": false
        },
        {
          "address": "0x224c4a79f016ef09e3c9c0f187a3db24d1dc0f21",
          "topics": [
            "0xd1fe0093c54116fe147366ec7de3cfa98e1e02e91d7ccb124241f6beae255b4c"
          ],
          "data": "0x00000000000000000000000000000000000000000000000003ecc18578cac309",
          "blockHash": "0xe17ecc3567ad7351305f1bf2b6cd36a9ac225e26c65ea5fa6050b373290377f3",
          "blockNumber": "0x40e629f",
          "transactionHash": "0x26c9c8f3fd67870259a10a8c1034514b62897e72ce45d8e8be361567783fb4e7",
          "transactionIndex": "0x3",
          "logIndex": "0x14",
          "removed": false
        },
        {
          "address": "0xb31f66aa3c1e785363f0875a1b74e27b85fd66c7",
          "topics": [
            "0xddf252ad1be2c89b69c2b068fc378daa952ba7f163c4a11628f55a4df523b3ef",
            "0x000000000000000000000000224c4a79f016ef09e3c9c0f187a3db24d1dc0f21",
            "0x000000000000000000000000e8e8041cb5e3158a0829a19e014ca1cf91098554"
          ],
          "data": "0x0000000000000000000000000000000000000000000000000000000000000000",
          "blockHash": "0xe17ecc3567ad7351305f1bf2b6cd36a9ac225e26c65ea5fa6050b373290377f3",
          "blockNumber": "0x40e629f",
          "transactionHash": "0x26c9c8f3fd67870259a10a8c1034514b62897e72ce45d8e8be361567783fb4e7",
          "transactionIndex": "0x3",
          "logIndex": "0x15",
          "removed": false
        },
        {
          "address": "0xb31f66aa3c1e785363f0875a1b74e27b85fd66c7",
          "topics": [
            "0xddf252ad1be2c89b69c2b068fc378daa952ba7f163c4a11628f55a4df523b3ef",
            "0x000000000000000000000000224c4a79f016ef09e3c9c0f187a3db24d1dc0f21",
            "0x000000000000000000000000e8e8041cb5e3158a0829a19e014ca1cf91098554"
          ],
          "data": "0x000000000000000000000000000000000000000000000000f0d39c086bd2c59e",
          "blockHash": "0xe17ecc3567ad7351305f1bf2b6cd36a9ac225e26c65ea5fa6050b373290377f3",
          "blockNumber": "0x40e629f",
          "transactionHash": "0x26c9c8f3fd67870259a10a8c1034514b62897e72ce45d8e8be361567783fb4e7",
          "transactionIndex": "0x3",
          "logIndex": "0x16",
          "removed": false
        },
        {
          "address": "0x224c4a79f016ef09e3c9c0f187a3db24d1dc0f21",
          "topics": [
            "0x58ce9a502017c1e4e0084fcfd7067e2642dfe9e11757d8017b9cf16d729967c7"
          ],
          "data": "0x000000000000000000000000000000000000000000000000f0d39c086bd2c59e00000000000000000000000000000000000000000000000000000000000000000000000000000000000000000000000000000000000000000000000000000000",
          "blockHash": "0xe17ecc3567ad7351305f1bf2b6cd36a9ac225e26c65ea5fa6050b373290377f3",
          "blockNumber": "0x40e629f",
          "transactionHash": "0x26c9c8f3fd67870259a10a8c1034514b62897e72ce45d8e8be361567783fb4e7",
          "transactionIndex": "0x3",
          "logIndex": "0x17",
          "removed": false
        },
        {
          "address": "0xd8a26dfeba3e9b558bd79d10722636dfb4dc2bf4",
          "topics": [
            "0xd1fe0093c54116fe147366ec7de3cfa98e1e02e91d7ccb124241f6beae255b4c"
          ],
          "data": "0x000000000000000000000000000000000000000000000000000000000001b1e0",
          "blockHash": "0xe17ecc3567ad7351305f1bf2b6cd36a9ac225e26c65ea5fa6050b373290377f3",
          "blockNumber": "0x40e629f",
          "transactionHash": "0x26c9c8f3fd67870259a10a8c1034514b62897e72ce45d8e8be361567783fb4e7",
          "transactionIndex": "0x3",
          "logIndex": "0x18",
          "removed": false
        },
        {
          "address": "0x152b9d0fdc40c096757f570a51e494bd4b943e50",
          "topics": [
            "0xddf252ad1be2c89b69c2b068fc378daa952ba7f163c4a11628f55a4df523b3ef",
            "0x000000000000000000000000d8a26dfeba3e9b558bd79d10722636dfb4dc2bf4",
            "0x000000000000000000000000e8e8041cb5e3158a0829a19e014ca1cf91098554"
          ],
          "data": "0x0000000000000000000000000000000000000000000000000000000000000000",
          "blockHash": "0xe17ecc3567ad7351305f1bf2b6cd36a9ac225e26c65ea5fa6050b373290377f3",
          "blockNumber": "0x40e629f",
          "transactionHash": "0x26c9c8f3fd67870259a10a8c1034514b62897e72ce45d8e8be361567783fb4e7",
          "transactionIndex": "0x3",
          "logIndex": "0x19",
          "removed": false
        },
        {
          "address": "0x152b9d0fdc40c096757f570a51e494bd4b943e50",
          "topics": [
            "0xddf252ad1be2c89b69c2b068fc378daa952ba7f163c4a11628f55a4df523b3ef",
            "0x000000000000000000000000d8a26dfeba3e9b558bd79d10722636dfb4dc2bf4",
            "0x000000000000000000000000e8e8041cb5e3158a0829a19e014ca1cf91098554"
          ],
          "data": "0x000000000000000000000000000000000000000000000000000000000046fcd1",
          "blockHash": "0xe17ecc3567ad7351305f1bf2b6cd36a9ac225e26c65ea5fa6050b373290377f3",
          "blockNumber": "0x40e629f",
          "transactionHash": "0x26c9c8f3fd67870259a10a8c1034514b62897e72ce45d8e8be361567783fb4e7",
          "transactionIndex": "0x3",
          "logIndex": "0x1a",
          "removed": false
        },
        {
          "address": "0xd8a26dfeba3e9b558bd79d10722636dfb4dc2bf4",
          "topics": [
            "0x58ce9a502017c1e4e0084fcfd7067e2642dfe9e11757d8017b9cf16d729967c7"
          ],
          "data": "0x000000000000000000000000000000000000000000000000000000000046fcd100000000000000000000000000000000000000000000000000000000000000000000000000000000000000000000000000000000000000000000000000000000",
          "blockHash": "0xe17ecc3567ad7351305f1bf2b6cd36a9ac225e26c65ea5fa6050b373290377f3",
          "blockNumber": "0x40e629f",
          "transactionHash": "0x26c9c8f3fd67870259a10a8c1034514b62897e72ce45d8e8be361567783fb4e7",
          "transactionIndex": "0x3",
          "logIndex": "0x1b",
          "removed": false
        },
        {
          "address": "0xb97ef9ef8734c71904d8002f8b6bc66dd9c48a6e",
          "topics": [
            "0xddf252ad1be2c89b69c2b068fc378daa952ba7f163c4a11628f55a4df523b3ef",
            "0x0000000000000000000000001ce6845b2996e4b0dcba0af7daae5454e2c43f6a",
            "0x000000000000000000000000e8e8041cb5e3158a0829a19e014ca1cf91098554"
          ],
          "data": "0x0000000000000000000000000000000000000000000000000000000000000000",
          "blockHash": "0xe17ecc3567ad7351305f1bf2b6cd36a9ac225e26c65ea5fa6050b373290377f3",
          "blockNumber": "0x40e629f",
          "transactionHash": "0x26c9c8f3fd67870259a10a8c1034514b62897e72ce45d8e8be361567783fb4e7",
          "transactionIndex": "0x3",
          "logIndex": "0x1c",
          "removed": false
        },
        {
          "address": "0xb97ef9ef8734c71904d8002f8b6bc66dd9c48a6e",
          "topics": [
            "0xddf252ad1be2c89b69c2b068fc378daa952ba7f163c4a11628f55a4df523b3ef",
            "0x0000000000000000000000001ce6845b2996e4b0dcba0af7daae5454e2c43f6a",
            "0x000000000000000000000000e8e8041cb5e3158a0829a19e014ca1cf91098554"
          ],
          "data": "0x000000000000000000000000000000000000000000000000000000000b979297",
          "blockHash": "0xe17ecc3567ad7351305f1bf2b6cd36a9ac225e26c65ea5fa6050b373290377f3",
          "blockNumber": "0x40e629f",
          "transactionHash": "0x26c9c8f3fd67870259a10a8c1034514b62897e72ce45d8e8be361567783fb4e7",
          "transactionIndex": "0x3",
          "logIndex": "0x1d",
          "removed": false
        },
        {
          "address": "0x1ce6845b2996e4b0dcba0af7daae5454e2c43f6a",
          "topics": [
            "0x58ce9a502017c1e4e0084fcfd7067e2642dfe9e11757d8017b9cf16d729967c7"
          ],
          "data": "0x000000000000000000000000000000000000000000000000000000000b97929700000000000000000000000000000000000000000000000000000000000000000000000000000000000000000000000000000000000000000000000000000000",
          "blockHash": "0xe17ecc3567ad7351305f1bf2b6cd36a9ac225e26c65ea5fa6050b373290377f3",
          "blockNumber": "0x40e629f",
          "transactionHash": "0x26c9c8f3fd67870259a10a8c1034514b62897e72ce45d8e8be361567783fb4e7",
          "transactionIndex": "0x3",
          "logIndex": "0x1e",
          "removed": false
        },
        {
          "address": "0xe0345f66318f482acccd67244a921c7fdc410957",
          "topics": [
            "0xd1fe0093c54116fe147366ec7de3cfa98e1e02e91d7ccb124241f6beae255b4c"
          ],
          "data": "0x0000000000000000000000000000000000000000000000000000000000bbce30",
          "blockHash": "0xe17ecc3567ad7351305f1bf2b6cd36a9ac225e26c65ea5fa6050b373290377f3",
          "blockNumber": "0x40e629f",
          "transactionHash": "0x26c9c8f3fd67870259a10a8c1034514b62897e72ce45d8e8be361567783fb4e7",
          "transactionIndex": "0x3",
          "logIndex": "0x1f",
          "removed": false
        },
        {
          "address": "0xb97ef9ef8734c71904d8002f8b6bc66dd9c48a6e",
          "topics": [
            "0xddf252ad1be2c89b69c2b068fc378daa952ba7f163c4a11628f55a4df523b3ef",
            "0x000000000000000000000000e0345f66318f482acccd67244a921c7fdc410957",
            "0x000000000000000000000000e8e8041cb5e3158a0829a19e014ca1cf91098554"
          ],
          "data": "0x0000000000000000000000000000000000000000000000000000000000000000",
          "blockHash": "0xe17ecc3567ad7351305f1bf2b6cd36a9ac225e26c65ea5fa6050b373290377f3",
          "blockNumber": "0x40e629f",
          "transactionHash": "0x26c9c8f3fd67870259a10a8c1034514b62897e72ce45d8e8be361567783fb4e7",
          "transactionIndex": "0x3",
          "logIndex": "0x20",
          "removed": false
        },
        {
          "address": "0xb97ef9ef8734c71904d8002f8b6bc66dd9c48a6e",
          "topics": [
            "0xddf252ad1be2c89b69c2b068fc378daa952ba7f163c4a11628f55a4df523b3ef",
            "0x000000000000000000000000e0345f66318f482acccd67244a921c7fdc410957",
            "0x000000000000000000000000e8e8041cb5e3158a0829a19e014ca1cf91098554"
          ],
          "data": "0x00000000000000000000000000000000000000000000000000000005b55d5b74",
          "blockHash": "0xe17ecc3567ad7351305f1bf2b6cd36a9ac225e26c65ea5fa6050b373290377f3",
          "blockNumber": "0x40e629f",
          "transactionHash": "0x26c9c8f3fd67870259a10a8c1034514b62897e72ce45d8e8be361567783fb4e7",
          "transactionIndex": "0x3",
          "logIndex": "0x21",
          "removed": false
        },
        {
          "address": "0xe0345f66318f482acccd67244a921c7fdc410957",
          "topics": [
            "0x58ce9a502017c1e4e0084fcfd7067e2642dfe9e11757d8017b9cf16d729967c7"
          ],
          "data": "0x00000000000000000000000000000000000000000000000000000005b55d5b7400000000000000000000000000000000000000000000000000000000000000000000000000000000000000000000000000000000000000000000000000000000",
          "blockHash": "0xe17ecc3567ad7351305f1bf2b6cd36a9ac225e26c65ea5fa6050b373290377f3",
          "blockNumber": "0x40e629f",
          "transactionHash": "0x26c9c8f3fd67870259a10a8c1034514b62897e72ce45d8e8be361567783fb4e7",
          "transactionIndex": "0x3",
          "logIndex": "0x22",
          "removed": false
        },
        {
          "address": "0x672b77f0538b53dc117c9ddfeb7377a678d321a6",
          "topics": [
            "0xd1fe0093c54116fe147366ec7de3cfa98e1e02e91d7ccb124241f6beae255b4c"
          ],
          "data": "0x0000000000000000000000000000000000000000000000000000000033159ada",
          "blockHash": "0xe17ecc3567ad7351305f1bf2b6cd36a9ac225e26c65ea5fa6050b373290377f3",
          "blockNumber": "0x40e629f",
          "transactionHash": "0x26c9c8f3fd67870259a10a8c1034514b62897e72ce45d8e8be361567783fb4e7",
          "transactionIndex": "0x3",
          "logIndex": "0x23",
          "removed": false
        },
        {
          "address": "0xb97ef9ef8734c71904d8002f8b6bc66dd9c48a6e",
          "topics": [
            "0xddf252ad1be2c89b69c2b068fc378daa952ba7f163c4a11628f55a4df523b3ef",
            "0x000000000000000000000000672b77f0538b53dc117c9ddfeb7377a678d321a6",
            "0x000000000000000000000000e8e8041cb5e3158a0829a19e014ca1cf91098554"
          ],
          "data": "0x0000000000000000000000000000000000000000000000000000000000000000",
          "blockHash": "0xe17ecc3567ad7351305f1bf2b6cd36a9ac225e26c65ea5fa6050b373290377f3",
          "blockNumber": "0x40e629f",
          "transactionHash": "0x26c9c8f3fd67870259a10a8c1034514b62897e72ce45d8e8be361567783fb4e7",
          "transactionIndex": "0x3",
          "logIndex": "0x24",
          "removed": false
        },
        {
          "address": "0xb97ef9ef8734c71904d8002f8b6bc66dd9c48a6e",
          "topics": [
            "0xddf252ad1be2c89b69c2b068fc378daa952ba7f163c4a11628f55a4df523b3ef",
            "0x000000000000000000000000672b77f0538b53dc117c9ddfeb7377a678d321a6",
            "0x000000000000000000000000e8e8041cb5e3158a0829a19e014ca1cf91098554"
          ],
          "data": "0x000000000000000000000000000000000000000000000000000000027d1cf540",
          "blockHash": "0xe17ecc3567ad7351305f1bf2b6cd36a9ac225e26c65ea5fa6050b373290377f3",
          "blockNumber": "0x40e629f",
          "transactionHash": "0x26c9c8f3fd67870259a10a8c1034514b62897e72ce45d8e8be361567783fb4e7",
          "transactionIndex": "0x3",
          "logIndex": "0x25",
          "removed": false
        },
        {
          "address": "0x672b77f0538b53dc117c9ddfeb7377a678d321a6",
          "topics": [
            "0x58ce9a502017c1e4e0084fcfd7067e2642dfe9e11757d8017b9cf16d729967c7"
          ],
          "data": "0x000000000000000000000000000000000000000000000000000000027d1cf54000000000000000000000000000000000000000000000000000000000000000000000000000000000000000000000000000000000000000000000000000000000",
          "blockHash": "0xe17ecc3567ad7351305f1bf2b6cd36a9ac225e26c65ea5fa6050b373290377f3",
          "blockNumber": "0x40e629f",
          "transactionHash": "0x26c9c8f3fd67870259a10a8c1034514b62897e72ce45d8e8be361567783fb4e7",
          "transactionIndex": "0x3",
          "logIndex": "0x26",
          "removed": false
        },
        {
          "address": "0x7437ac81457fa98ffb2d0c8f9943ecfe4813e2f1",
          "topics": [
            "0xd1fe0093c54116fe147366ec7de3cfa98e1e02e91d7ccb124241f6beae255b4c"
          ],
          "data": "0x000000000000000000000000000000000000000000000000000000000007e5b1",
          "blockHash": "0xe17ecc3567ad7351305f1bf2b6cd36a9ac225e26c65ea5fa6050b373290377f3",
          "blockNumber": "0x40e629f",
          "transactionHash": "0x26c9c8f3fd67870259a10a8c1034514b62897e72ce45d8e8be361567783fb4e7",
          "transactionIndex": "0x3",
          "logIndex": "0x27",
          "removed": false
        },
        {
          "address": "0x152b9d0fdc40c096757f570a51e494bd4b943e50",
          "topics": [
            "0xddf252ad1be2c89b69c2b068fc378daa952ba7f163c4a11628f55a4df523b3ef",
            "0x0000000000000000000000007437ac81457fa98ffb2d0c8f9943ecfe4813e2f1",
            "0x000000000000000000000000e8e8041cb5e3158a0829a19e014ca1cf91098554"
          ],
          "data": "0x0000000000000000000000000000000000000000000000000000000000000000",
          "blockHash": "0xe17ecc3567ad7351305f1bf2b6cd36a9ac225e26c65ea5fa6050b373290377f3",
          "blockNumber": "0x40e629f",
          "transactionHash": "0x26c9c8f3fd67870259a10a8c1034514b62897e72ce45d8e8be361567783fb4e7",
          "transactionIndex": "0x3",
          "logIndex": "0x28",
          "removed": false
        },
        {
          "address": "0x152b9d0fdc40c096757f570a51e494bd4b943e50",
          "topics": [
            "0xddf252ad1be2c89b69c2b068fc378daa952ba7f163c4a11628f55a4df523b3ef",
            "0x0000000000000000000000007437ac81457fa98ffb2d0c8f9943ecfe4813e2f1",
            "0x000000000000000000000000e8e8041cb5e3158a0829a19e014ca1cf91098554"
          ],
          "data": "0x000000000000000000000000000000000000000000000000000000000083beb1",
          "blockHash": "0xe17ecc3567ad7351305f1bf2b6cd36a9ac225e26c65ea5fa6050b373290377f3",
          "blockNumber": "0x40e629f",
          "transactionHash": "0x26c9c8f3fd67870259a10a8c1034514b62897e72ce45d8e8be361567783fb4e7",
          "transactionIndex": "0x3",
          "logIndex": "0x29",
          "removed": false
        },
        {
          "address": "0x7437ac81457fa98ffb2d0c8f9943ecfe4813e2f1",
          "topics": [
            "0x58ce9a502017c1e4e0084fcfd7067e2642dfe9e11757d8017b9cf16d729967c7"
          ],
          "data": "0x000000000000000000000000000000000000000000000000000000000083beb100000000000000000000000000000000000000000000000000000000000000000000000000000000000000000000000000000000000000000000000000000000",
          "blockHash": "0xe17ecc3567ad7351305f1bf2b6cd36a9ac225e26c65ea5fa6050b373290377f3",
          "blockNumber": "0x40e629f",
          "transactionHash": "0x26c9c8f3fd67870259a10a8c1034514b62897e72ce45d8e8be361567783fb4e7",
          "transactionIndex": "0x3",
          "logIndex": "0x2a",
          "removed": false
        },
        {
          "address": "0xc97629d52431fd3ee71dd24885501cba2205b1fb",
          "topics": [
            "0xd1fe0093c54116fe147366ec7de3cfa98e1e02e91d7ccb124241f6beae255b4c"
          ],
          "data": "0x0000000000000000000000000000000000000000000000000000000000000001",
          "blockHash": "0xe17ecc3567ad7351305f1bf2b6cd36a9ac225e26c65ea5fa6050b373290377f3",
          "blockNumber": "0x40e629f",
          "transactionHash": "0x26c9c8f3fd67870259a10a8c1034514b62897e72ce45d8e8be361567783fb4e7",
          "transactionIndex": "0x3",
          "logIndex": "0x2b",
          "removed": false
        },
        {
          "address": "0xb97ef9ef8734c71904d8002f8b6bc66dd9c48a6e",
          "topics": [
            "0xddf252ad1be2c89b69c2b068fc378daa952ba7f163c4a11628f55a4df523b3ef",
            "0x000000000000000000000000c97629d52431fd3ee71dd24885501cba2205b1fb",
            "0x000000000000000000000000e8e8041cb5e3158a0829a19e014ca1cf91098554"
          ],
          "data": "0x0000000000000000000000000000000000000000000000000000000000000000",
          "blockHash": "0xe17ecc3567ad7351305f1bf2b6cd36a9ac225e26c65ea5fa6050b373290377f3",
          "blockNumber": "0x40e629f",
          "transactionHash": "0x26c9c8f3fd67870259a10a8c1034514b62897e72ce45d8e8be361567783fb4e7",
          "transactionIndex": "0x3",
          "logIndex": "0x2c",
          "removed": false
        },
        {
          "address": "0xb97ef9ef8734c71904d8002f8b6bc66dd9c48a6e",
          "topics": [
            "0xddf252ad1be2c89b69c2b068fc378daa952ba7f163c4a11628f55a4df523b3ef",
            "0x000000000000000000000000c97629d52431fd3ee71dd24885501cba2205b1fb",
            "0x000000000000000000000000e8e8041cb5e3158a0829a19e014ca1cf91098554"
          ],
          "data": "0x0000000000000000000000000000000000000000000000000000000000079767",
          "blockHash": "0xe17ecc3567ad7351305f1bf2b6cd36a9ac225e26c65ea5fa6050b373290377f3",
          "blockNumber": "0x40e629f",
          "transactionHash": "0x26c9c8f3fd67870259a10a8c1034514b62897e72ce45d8e8be361567783fb4e7",
          "transactionIndex": "0x3",
          "logIndex": "0x2d",
          "removed": false
        },
        {
          "address": "0xc97629d52431fd3ee71dd24885501cba2205b1fb",
          "topics": [
            "0x58ce9a502017c1e4e0084fcfd7067e2642dfe9e11757d8017b9cf16d729967c7"
          ],
          "data": "0x000000000000000000000000000000000000000000000000000000000007976700000000000000000000000000000000000000000000000000000000000000000000000000000000000000000000000000000000000000000000000000000000",
          "blockHash": "0xe17ecc3567ad7351305f1bf2b6cd36a9ac225e26c65ea5fa6050b373290377f3",
          "blockNumber": "0x40e629f",
          "transactionHash": "0x26c9c8f3fd67870259a10a8c1034514b62897e72ce45d8e8be361567783fb4e7",
          "transactionIndex": "0x3",
          "logIndex": "0x2e",
          "removed": false
        },
        {
          "address": "0x9c4d4800b489d217724155399cd64d07eae603f3",
          "topics": [
            "0xd1fe0093c54116fe147366ec7de3cfa98e1e02e91d7ccb124241f6beae255b4c"
          ],
          "data": "0x0000000000000000000000000000000000000000000000000000000010cde851",
          "blockHash": "0xe17ecc3567ad7351305f1bf2b6cd36a9ac225e26c65ea5fa6050b373290377f3",
          "blockNumber": "0x40e629f",
          "transactionHash": "0x26c9c8f3fd67870259a10a8c1034514b62897e72ce45d8e8be361567783fb4e7",
          "transactionIndex": "0x3",
          "logIndex": "0x2f",
          "removed": false
        },
        {
          "address": "0x00000000efe302beaa2b3e6e1b18d08d69a9012a",
          "topics": [
            "0xddf252ad1be2c89b69c2b068fc378daa952ba7f163c4a11628f55a4df523b3ef",
            "0x0000000000000000000000009c4d4800b489d217724155399cd64d07eae603f3",
            "0x000000000000000000000000e8e8041cb5e3158a0829a19e014ca1cf91098554"
          ],
          "data": "0x0000000000000000000000000000000000000000000000000000000000000000",
          "blockHash": "0xe17ecc3567ad7351305f1bf2b6cd36a9ac225e26c65ea5fa6050b373290377f3",
          "blockNumber": "0x40e629f",
          "transactionHash": "0x26c9c8f3fd67870259a10a8c1034514b62897e72ce45d8e8be361567783fb4e7",
          "transactionIndex": "0x3",
          "logIndex": "0x30",
          "removed": false
        },
        {
          "address": "0x00000000efe302beaa2b3e6e1b18d08d69a9012a",
          "topics": [
            "0xddf252ad1be2c89b69c2b068fc378daa952ba7f163c4a11628f55a4df523b3ef",
            "0x0000000000000000000000009c4d4800b489d217724155399cd64d07eae603f3",
            "0x000000000000000000000000e8e8041cb5e3158a0829a19e014ca1cf91098554"
          ],
          "data": "0x0000000000000000000000000000000000000000000000000000000022a43a78",
          "blockHash": "0xe17ecc3567ad7351305f1bf2b6cd36a9ac225e26c65ea5fa6050b373290377f3",
          "blockNumber": "0x40e629f",
          "transactionHash": "0x26c9c8f3fd67870259a10a8c1034514b62897e72ce45d8e8be361567783fb4e7",
          "transactionIndex": "0x3",
          "logIndex": "0x31",
          "removed": false
        },
        {
          "address": "0x9c4d4800b489d217724155399cd64d07eae603f3",
          "topics": [
            "0x58ce9a502017c1e4e0084fcfd7067e2642dfe9e11757d8017b9cf16d729967c7"
          ],
          "data": "0x0000000000000000000000000000000000000000000000000000000022a43a7800000000000000000000000000000000000000000000000000000000000000000000000000000000000000000000000000000000000000000000000000000000",
          "blockHash": "0xe17ecc3567ad7351305f1bf2b6cd36a9ac225e26c65ea5fa6050b373290377f3",
          "blockNumber": "0x40e629f",
          "transactionHash": "0x26c9c8f3fd67870259a10a8c1034514b62897e72ce45d8e8be361567783fb4e7",
          "transactionIndex": "0x3",
          "logIndex": "0x32",
          "removed": false
        },
        {
          "address": "0xd1dd7f8affbdef3594d84245eadac0940d9394c3",
          "topics": [
            "0xd1fe0093c54116fe147366ec7de3cfa98e1e02e91d7ccb124241f6beae255b4c"
          ],
          "data": "0x0000000000000000000000000000000000000000000000000000000006cb331d",
          "blockHash": "0xe17ecc3567ad7351305f1bf2b6cd36a9ac225e26c65ea5fa6050b373290377f3",
          "blockNumber": "0x40e629f",
          "transactionHash": "0x26c9c8f3fd67870259a10a8c1034514b62897e72ce45d8e8be361567783fb4e7",
          "transactionIndex": "0x3",
          "logIndex": "0x33",
          "removed": false
        },
        {
          "address": "0x00000000efe302beaa2b3e6e1b18d08d69a9012a",
          "topics": [
            "0xddf252ad1be2c89b69c2b068fc378daa952ba7f163c4a11628f55a4df523b3ef",
            "0x000000000000000000000000d1dd7f8affbdef3594d84245eadac0940d9394c3",
            "0x000000000000000000000000e8e8041cb5e3158a0829a19e014ca1cf91098554"
          ],
          "data": "0x0000000000000000000000000000000000000000000000000000000000000000",
          "blockHash": "0xe17ecc3567ad7351305f1bf2b6cd36a9ac225e26c65ea5fa6050b373290377f3",
          "blockNumber": "0x40e629f",
          "transactionHash": "0x26c9c8f3fd67870259a10a8c1034514b62897e72ce45d8e8be361567783fb4e7",
          "transactionIndex": "0x3",
          "logIndex": "0x34",
          "removed": false
        },
        {
          "address": "0x00000000efe302beaa2b3e6e1b18d08d69a9012a",
          "topics": [
            "0xddf252ad1be2c89b69c2b068fc378daa952ba7f163c4a11628f55a4df523b3ef",
            "0x000000000000000000000000d1dd7f8affbdef3594d84245eadac0940d9394c3",
            "0x000000000000000000000000e8e8041cb5e3158a0829a19e014ca1cf91098554"
          ],
          "data": "0x000000000000000000000000000000000000000000000000000000002f8dff97",
          "blockHash": "0xe17ecc3567ad7351305f1bf2b6cd36a9ac225e26c65ea5fa6050b373290377f3",
          "blockNumber": "0x40e629f",
          "transactionHash": "0x26c9c8f3fd67870259a10a8c1034514b62897e72ce45d8e8be361567783fb4e7",
          "transactionIndex": "0x3",
          "logIndex": "0x35",
          "removed": false
        },
        {
          "address": "0xd1dd7f8affbdef3594d84245eadac0940d9394c3",
          "topics": [
            "0x58ce9a502017c1e4e0084fcfd7067e2642dfe9e11757d8017b9cf16d729967c7"
          ],
          "data": "0x000000000000000000000000000000000000000000000000000000002f8dff9700000000000000000000000000000000000000000000000000000000000000000000000000000000000000000000000000000000000000000000000000000000",
          "blockHash": "0xe17ecc3567ad7351305f1bf2b6cd36a9ac225e26c65ea5fa6050b373290377f3",
          "blockNumber": "0x40e629f",
          "transactionHash": "0x26c9c8f3fd67870259a10a8c1034514b62897e72ce45d8e8be361567783fb4e7",
          "transactionIndex": "0x3",
          "logIndex": "0x36",
          "removed": false
        },
        {
          "address": "0xe0fc62e685e2b3183b4b88b1fe674cfec55a63f7",
          "topics": [
            "0xd1fe0093c54116fe147366ec7de3cfa98e1e02e91d7ccb124241f6beae255b4c"
          ],
          "data": "0x00000000000000000000000000000000000000000000000000000000094f5cff",
          "blockHash": "0xe17ecc3567ad7351305f1bf2b6cd36a9ac225e26c65ea5fa6050b373290377f3",
          "blockNumber": "0x40e629f",
          "transactionHash": "0x26c9c8f3fd67870259a10a8c1034514b62897e72ce45d8e8be361567783fb4e7",
          "transactionIndex": "0x3",
          "logIndex": "0x37",
          "removed": false
        },
        {
          "address": "0x9702230a8ea53601f5cd2dc00fdbc13d4df4a8c7",
          "topics": [
            "0xddf252ad1be2c89b69c2b068fc378daa952ba7f163c4a11628f55a4df523b3ef",
            "0x000000000000000000000000e0fc62e685e2b3183b4b88b1fe674cfec55a63f7",
            "0x000000000000000000000000e8e8041cb5e3158a0829a19e014ca1cf91098554"
          ],
          "data": "0x0000000000000000000000000000000000000000000000000000000000000000",
          "blockHash": "0xe17ecc3567ad7351305f1bf2b6cd36a9ac225e26c65ea5fa6050b373290377f3",
          "blockNumber": "0x40e629f",
          "transactionHash": "0x26c9c8f3fd67870259a10a8c1034514b62897e72ce45d8e8be361567783fb4e7",
          "transactionIndex": "0x3",
          "logIndex": "0x38",
          "removed": false
        },
        {
          "address": "0x9702230a8ea53601f5cd2dc00fdbc13d4df4a8c7",
          "topics": [
            "0xddf252ad1be2c89b69c2b068fc378daa952ba7f163c4a11628f55a4df523b3ef",
            "0x000000000000000000000000e0fc62e685e2b3183b4b88b1fe674cfec55a63f7",
            "0x000000000000000000000000e8e8041cb5e3158a0829a19e014ca1cf91098554"
          ],
          "data": "0x0000000000000000000000000000000000000000000000000000000016fda37b",
          "blockHash": "0xe17ecc3567ad7351305f1bf2b6cd36a9ac225e26c65ea5fa6050b373290377f3",
          "blockNumber": "0x40e629f",
          "transactionHash": "0x26c9c8f3fd67870259a10a8c1034514b62897e72ce45d8e8be361567783fb4e7",
          "transactionIndex": "0x3",
          "logIndex": "0x39",
          "removed": false
        },
        {
          "address": "0xe0fc62e685e2b3183b4b88b1fe674cfec55a63f7",
          "topics": [
            "0x58ce9a502017c1e4e0084fcfd7067e2642dfe9e11757d8017b9cf16d729967c7"
          ],
          "data": "0x0000000000000000000000000000000000000000000000000000000016fda37b00000000000000000000000000000000000000000000000000000000000000000000000000000000000000000000000000000000000000000000000000000000",
          "blockHash": "0xe17ecc3567ad7351305f1bf2b6cd36a9ac225e26c65ea5fa6050b373290377f3",
          "blockNumber": "0x40e629f",
          "transactionHash": "0x26c9c8f3fd67870259a10a8c1034514b62897e72ce45d8e8be361567783fb4e7",
          "transactionIndex": "0x3",
          "logIndex": "0x3a",
          "removed": false
        },
        {
          "address": "0x8ce973a91c2636717475515cc2deb46b765e5072",
          "topics": [
            "0xd1fe0093c54116fe147366ec7de3cfa98e1e02e91d7ccb124241f6beae255b4c"
          ],
          "data": "0x0000000000000000000000000000000000000000000000000000000000743ff6",
          "blockHash": "0xe17ecc3567ad7351305f1bf2b6cd36a9ac225e26c65ea5fa6050b373290377f3",
          "blockNumber": "0x40e629f",
          "transactionHash": "0x26c9c8f3fd67870259a10a8c1034514b62897e72ce45d8e8be361567783fb4e7",
          "transactionIndex": "0x3",
          "logIndex": "0x3b",
          "removed": false
        },
        {
          "address": "0x9702230a8ea53601f5cd2dc00fdbc13d4df4a8c7",
          "topics": [
            "0xddf252ad1be2c89b69c2b068fc378daa952ba7f163c4a11628f55a4df523b3ef",
            "0x0000000000000000000000008ce973a91c2636717475515cc2deb46b765e5072",
            "0x000000000000000000000000e8e8041cb5e3158a0829a19e014ca1cf91098554"
          ],
          "data": "0x0000000000000000000000000000000000000000000000000000000000000000",
          "blockHash": "0xe17ecc3567ad7351305f1bf2b6cd36a9ac225e26c65ea5fa6050b373290377f3",
          "blockNumber": "0x40e629f",
          "transactionHash": "0x26c9c8f3fd67870259a10a8c1034514b62897e72ce45d8e8be361567783fb4e7",
          "transactionIndex": "0x3",
          "logIndex": "0x3c",
          "removed": false
        },
        {
          "address": "0x9702230a8ea53601f5cd2dc00fdbc13d4df4a8c7",
          "topics": [
            "0xddf252ad1be2c89b69c2b068fc378daa952ba7f163c4a11628f55a4df523b3ef",
            "0x0000000000000000000000008ce973a91c2636717475515cc2deb46b765e5072",
            "0x000000000000000000000000e8e8041cb5e3158a0829a19e014ca1cf91098554"
          ],
          "data": "0x000000000000000000000000000000000000000000000000000000001789f186",
          "blockHash": "0xe17ecc3567ad7351305f1bf2b6cd36a9ac225e26c65ea5fa6050b373290377f3",
          "blockNumber": "0x40e629f",
          "transactionHash": "0x26c9c8f3fd67870259a10a8c1034514b62897e72ce45d8e8be361567783fb4e7",
          "transactionIndex": "0x3",
          "logIndex": "0x3d",
          "removed": false
        },
        {
          "address": "0x8ce973a91c2636717475515cc2deb46b765e5072",
          "topics": [
            "0x58ce9a502017c1e4e0084fcfd7067e2642dfe9e11757d8017b9cf16d729967c7"
          ],
          "data": "0x000000000000000000000000000000000000000000000000000000001789f18600000000000000000000000000000000000000000000000000000000000000000000000000000000000000000000000000000000000000000000000000000000",
          "blockHash": "0xe17ecc3567ad7351305f1bf2b6cd36a9ac225e26c65ea5fa6050b373290377f3",
          "blockNumber": "0x40e629f",
          "transactionHash": "0x26c9c8f3fd67870259a10a8c1034514b62897e72ce45d8e8be361567783fb4e7",
          "transactionIndex": "0x3",
          "logIndex": "0x3e",
          "removed": false
        },
        {
          "address": "0x20abecf84ce707c3650b4e8afcf7ea1e22bbcd0c",
          "topics": [
            "0xd1fe0093c54116fe147366ec7de3cfa98e1e02e91d7ccb124241f6beae255b4c"
          ],
          "data": "0x0000000000000000000000000000000000000000000000000000000019025873",
          "blockHash": "0xe17ecc3567ad7351305f1bf2b6cd36a9ac225e26c65ea5fa6050b373290377f3",
          "blockNumber": "0x40e629f",
          "transactionHash": "0x26c9c8f3fd67870259a10a8c1034514b62897e72ce45d8e8be361567783fb4e7",
          "transactionIndex": "0x3",
          "logIndex": "0x3f",
          "removed": false
        },
        {
          "address": "0xb97ef9ef8734c71904d8002f8b6bc66dd9c48a6e",
          "topics": [
            "0xddf252ad1be2c89b69c2b068fc378daa952ba7f163c4a11628f55a4df523b3ef",
            "0x00000000000000000000000020abecf84ce707c3650b4e8afcf7ea1e22bbcd0c",
            "0x000000000000000000000000e8e8041cb5e3158a0829a19e014ca1cf91098554"
          ],
          "data": "0x0000000000000000000000000000000000000000000000000000000000000000",
          "blockHash": "0xe17ecc3567ad7351305f1bf2b6cd36a9ac225e26c65ea5fa6050b373290377f3",
          "blockNumber": "0x40e629f",
          "transactionHash": "0x26c9c8f3fd67870259a10a8c1034514b62897e72ce45d8e8be361567783fb4e7",
          "transactionIndex": "0x3",
          "logIndex": "0x40",
          "removed": false
        },
        {
          "address": "0xb97ef9ef8734c71904d8002f8b6bc66dd9c48a6e",
          "topics": [
            "0xddf252ad1be2c89b69c2b068fc378daa952ba7f163c4a11628f55a4df523b3ef",
            "0x00000000000000000000000020abecf84ce707c3650b4e8afcf7ea1e22bbcd0c",
            "0x000000000000000000000000e8e8041cb5e3158a0829a19e014ca1cf91098554"
          ],
          "data": "0x000000000000000000000000000000000000000000000000000000001c973817",
          "blockHash": "0xe17ecc3567ad7351305f1bf2b6cd36a9ac225e26c65ea5fa6050b373290377f3",
          "blockNumber": "0x40e629f",
          "transactionHash": "0x26c9c8f3fd67870259a10a8c1034514b62897e72ce45d8e8be361567783fb4e7",
          "transactionIndex": "0x3",
          "logIndex": "0x41",
          "removed": false
        },
        {
          "address": "0x20abecf84ce707c3650b4e8afcf7ea1e22bbcd0c",
          "topics": [
            "0x58ce9a502017c1e4e0084fcfd7067e2642dfe9e11757d8017b9cf16d729967c7"
          ],
          "data": "0x000000000000000000000000000000000000000000000000000000001c97381700000000000000000000000000000000000000000000000000000000000000000000000000000000000000000000000000000000000000000000000000000000",
          "blockHash": "0xe17ecc3567ad7351305f1bf2b6cd36a9ac225e26c65ea5fa6050b373290377f3",
          "blockNumber": "0x40e629f",
          "transactionHash": "0x26c9c8f3fd67870259a10a8c1034514b62897e72ce45d8e8be361567783fb4e7",
          "transactionIndex": "0x3",
          "logIndex": "0x42",
          "removed": false
        },
        {
          "address": "0xcde5f8d4b1fa41d9dee31d5a1044d2f3c9f5ac32",
          "topics": [
            "0xd1fe0093c54116fe147366ec7de3cfa98e1e02e91d7ccb124241f6beae255b4c"
          ],
          "data": "0x0000000000000000000000000000000000000000000000000000000000003028",
          "blockHash": "0xe17ecc3567ad7351305f1bf2b6cd36a9ac225e26c65ea5fa6050b373290377f3",
          "blockNumber": "0x40e629f",
          "transactionHash": "0x26c9c8f3fd67870259a10a8c1034514b62897e72ce45d8e8be361567783fb4e7",
          "transactionIndex": "0x3",
          "logIndex": "0x43",
          "removed": false
        },
        {
          "address": "0xb97ef9ef8734c71904d8002f8b6bc66dd9c48a6e",
          "topics": [
            "0xddf252ad1be2c89b69c2b068fc378daa952ba7f163c4a11628f55a4df523b3ef",
            "0x000000000000000000000000cde5f8d4b1fa41d9dee31d5a1044d2f3c9f5ac32",
            "0x000000000000000000000000e8e8041cb5e3158a0829a19e014ca1cf91098554"
          ],
          "data": "0x0000000000000000000000000000000000000000000000000000000000000000",
          "blockHash": "0xe17ecc3567ad7351305f1bf2b6cd36a9ac225e26c65ea5fa6050b373290377f3",
          "blockNumber": "0x40e629f",
          "transactionHash": "0x26c9c8f3fd67870259a10a8c1034514b62897e72ce45d8e8be361567783fb4e7",
          "transactionIndex": "0x3",
          "logIndex": "0x44",
          "removed": false
        },
        {
          "address": "0xb97ef9ef8734c71904d8002f8b6bc66dd9c48a6e",
          "topics": [
            "0xddf252ad1be2c89b69c2b068fc378daa952ba7f163c4a11628f55a4df523b3ef",
            "0x000000000000000000000000cde5f8d4b1fa41d9dee31d5a1044d2f3c9f5ac32",
            "0x000000000000000000000000e8e8041cb5e3158a0829a19e014ca1cf91098554"
          ],
          "data": "0x000000000000000000000000000000000000000000000000000000000000f822",
          "blockHash": "0xe17ecc3567ad7351305f1bf2b6cd36a9ac225e26c65ea5fa6050b373290377f3",
          "blockNumber": "0x40e629f",
          "transactionHash": "0x26c9c8f3fd67870259a10a8c1034514b62897e72ce45d8e8be361567783fb4e7",
          "transactionIndex": "0x3",
          "logIndex": "0x45",
          "removed": false
        },
        {
          "address": "0xcde5f8d4b1fa41d9dee31d5a1044d2f3c9f5ac32",
          "topics": [
            "0x58ce9a502017c1e4e0084fcfd7067e2642dfe9e11757d8017b9cf16d729967c7"
          ],
          "data": "0x000000000000000000000000000000000000000000000000000000000000f82200000000000000000000000000000000000000000000000000000000000000000000000000000000000000000000000000000000000000000000000000000000",
          "blockHash": "0xe17ecc3567ad7351305f1bf2b6cd36a9ac225e26c65ea5fa6050b373290377f3",
          "blockNumber": "0x40e629f",
          "transactionHash": "0x26c9c8f3fd67870259a10a8c1034514b62897e72ce45d8e8be361567783fb4e7",
          "transactionIndex": "0x3",
          "logIndex": "0x46",
          "removed": false
        },
        {
          "address": "0x606fe9a70338e798a292ca22c1f28c829f24048e",
          "topics": [
            "0xd1fe0093c54116fe147366ec7de3cfa98e1e02e91d7ccb124241f6beae255b4c"
          ],
          "data": "0x00000000000000000000000000000000000000000000000000000000008f7bf6",
          "blockHash": "0xe17ecc3567ad7351305f1bf2b6cd36a9ac225e26c65ea5fa6050b373290377f3",
          "blockNumber": "0x40e629f",
          "transactionHash": "0x26c9c8f3fd67870259a10a8c1034514b62897e72ce45d8e8be361567783fb4e7",
          "transactionIndex": "0x3",
          "logIndex": "0x47",
          "removed": false
        },
        {
          "address": "0xb97ef9ef8734c71904d8002f8b6bc66dd9c48a6e",
          "topics": [
            "0xddf252ad1be2c89b69c2b068fc378daa952ba7f163c4a11628f55a4df523b3ef",
            "0x000000000000000000000000606fe9a70338e798a292ca22c1f28c829f24048e",
            "0x000000000000000000000000e8e8041cb5e3158a0829a19e014ca1cf91098554"
          ],
          "data": "0x0000000000000000000000000000000000000000000000000000000000000000",
          "blockHash": "0xe17ecc3567ad7351305f1bf2b6cd36a9ac225e26c65ea5fa6050b373290377f3",
          "blockNumber": "0x40e629f",
          "transactionHash": "0x26c9c8f3fd67870259a10a8c1034514b62897e72ce45d8e8be361567783fb4e7",
          "transactionIndex": "0x3",
          "logIndex": "0x48",
          "removed": false
        },
        {
          "address": "0xb97ef9ef8734c71904d8002f8b6bc66dd9c48a6e",
          "topics": [
            "0xddf252ad1be2c89b69c2b068fc378daa952ba7f163c4a11628f55a4df523b3ef",
            "0x000000000000000000000000606fe9a70338e798a292ca22c1f28c829f24048e",
            "0x000000000000000000000000e8e8041cb5e3158a0829a19e014ca1cf91098554"
          ],
          "data": "0x000000000000000000000000000000000000000000000000000000000ff9d7e1",
          "blockHash": "0xe17ecc3567ad7351305f1bf2b6cd36a9ac225e26c65ea5fa6050b373290377f3",
          "blockNumber": "0x40e629f",
          "transactionHash": "0x26c9c8f3fd67870259a10a8c1034514b62897e72ce45d8e8be361567783fb4e7",
          "transactionIndex": "0x3",
          "logIndex": "0x49",
          "removed": false
        },
        {
          "address": "0x606fe9a70338e798a292ca22c1f28c829f24048e",
          "topics": [
            "0x58ce9a502017c1e4e0084fcfd7067e2642dfe9e11757d8017b9cf16d729967c7"
          ],
          "data": "0x000000000000000000000000000000000000000000000000000000000ff9d7e100000000000000000000000000000000000000000000000000000000000000000000000000000000000000000000000000000000000000000000000000000000",
          "blockHash": "0xe17ecc3567ad7351305f1bf2b6cd36a9ac225e26c65ea5fa6050b373290377f3",
          "blockNumber": "0x40e629f",
          "transactionHash": "0x26c9c8f3fd67870259a10a8c1034514b62897e72ce45d8e8be361567783fb4e7",
          "transactionIndex": "0x3",
          "logIndex": "0x4a",
          "removed": false
        },
        {
          "address": "0x678bc8bbcd59eb63a7302a305e116e5fcf3dd419",
          "topics": [
            "0xd1fe0093c54116fe147366ec7de3cfa98e1e02e91d7ccb124241f6beae255b4c"
          ],
          "data": "0x000000000000000000000000000000000000000000000000000219ed01ee90fd",
          "blockHash": "0xe17ecc3567ad7351305f1bf2b6cd36a9ac225e26c65ea5fa6050b373290377f3",
          "blockNumber": "0x40e629f",
          "transactionHash": "0x26c9c8f3fd67870259a10a8c1034514b62897e72ce45d8e8be361567783fb4e7",
          "transactionIndex": "0x3",
          "logIndex": "0x4b",
          "removed": false
        },
        {
          "address": "0x2b2c81e08f1af8835a78bb2a90ae924ace0ea4be",
          "topics": [
            "0xddf252ad1be2c89b69c2b068fc378daa952ba7f163c4a11628f55a4df523b3ef",
            "0x000000000000000000000000678bc8bbcd59eb63a7302a305e116e5fcf3dd419",
            "0x000000000000000000000000e8e8041cb5e3158a0829a19e014ca1cf91098554"
          ],
          "data": "0x000000000000000000000000000000000000000000000000035b9cdb9e3c80a4",
          "blockHash": "0xe17ecc3567ad7351305f1bf2b6cd36a9ac225e26c65ea5fa6050b373290377f3",
          "blockNumber": "0x40e629f",
          "transactionHash": "0x26c9c8f3fd67870259a10a8c1034514b62897e72ce45d8e8be361567783fb4e7",
          "transactionIndex": "0x3",
          "logIndex": "0x4c",
          "removed": false
        },
        {
          "address": "0x678bc8bbcd59eb63a7302a305e116e5fcf3dd419",
          "topics": [
            "0x58ce9a502017c1e4e0084fcfd7067e2642dfe9e11757d8017b9cf16d729967c7"
          ],
          "data": "0x000000000000000000000000000000000000000000000000035b9cdb9e3c80a400000000000000000000000000000000000000000000000000000000000000000000000000000000000000000000000000000000000000000000000000000001",
          "blockHash": "0xe17ecc3567ad7351305f1bf2b6cd36a9ac225e26c65ea5fa6050b373290377f3",
          "blockNumber": "0x40e629f",
          "transactionHash": "0x26c9c8f3fd67870259a10a8c1034514b62897e72ce45d8e8be361567783fb4e7",
          "transactionIndex": "0x3",
          "logIndex": "0x4d",
          "removed": false
        },
        {
          "address": "0x2690f75325d2a7d966e9c3688879bc9f1e3bb1cb",
          "topics": [
            "0xd1fe0093c54116fe147366ec7de3cfa98e1e02e91d7ccb124241f6beae255b4c"
          ],
          "data": "0x00000000000000000000000000000000000000000000000000075d2473ffb64a",
          "blockHash": "0xe17ecc3567ad7351305f1bf2b6cd36a9ac225e26c65ea5fa6050b373290377f3",
          "blockNumber": "0x40e629f",
          "transactionHash": "0x26c9c8f3fd67870259a10a8c1034514b62897e72ce45d8e8be361567783fb4e7",
          "transactionIndex": "0x3",
          "logIndex": "0x4e",
          "removed": false
        },
        {
          "address": "0xb31f66aa3c1e785363f0875a1b74e27b85fd66c7",
          "topics": [
            "0xddf252ad1be2c89b69c2b068fc378daa952ba7f163c4a11628f55a4df523b3ef",
            "0x0000000000000000000000002690f75325d2a7d966e9c3688879bc9f1e3bb1cb",
            "0x000000000000000000000000e8e8041cb5e3158a0829a19e014ca1cf91098554"
          ],
          "data": "0x0000000000000000000000000000000000000000000000000000000000000000",
          "blockHash": "0xe17ecc3567ad7351305f1bf2b6cd36a9ac225e26c65ea5fa6050b373290377f3",
          "blockNumber": "0x40e629f",
          "transactionHash": "0x26c9c8f3fd67870259a10a8c1034514b62897e72ce45d8e8be361567783fb4e7",
          "transactionIndex": "0x3",
          "logIndex": "0x4f",
          "removed": false
        },
        {
          "address": "0xb31f66aa3c1e785363f0875a1b74e27b85fd66c7",
          "topics": [
            "0xddf252ad1be2c89b69c2b068fc378daa952ba7f163c4a11628f55a4df523b3ef",
            "0x0000000000000000000000002690f75325d2a7d966e9c3688879bc9f1e3bb1cb",
            "0x000000000000000000000000e8e8041cb5e3158a0829a19e014ca1cf91098554"
          ],
          "data": "0x0000000000000000000000000000000000000000000000004504f27b8c5e0d8e",
          "blockHash": "0xe17ecc3567ad7351305f1bf2b6cd36a9ac225e26c65ea5fa6050b373290377f3",
          "blockNumber": "0x40e629f",
          "transactionHash": "0x26c9c8f3fd67870259a10a8c1034514b62897e72ce45d8e8be361567783fb4e7",
          "transactionIndex": "0x3",
          "logIndex": "0x50",
          "removed": false
        },
        {
          "address": "0x2690f75325d2a7d966e9c3688879bc9f1e3bb1cb",
          "topics": [
            "0x58ce9a502017c1e4e0084fcfd7067e2642dfe9e11757d8017b9cf16d729967c7"
          ],
          "data": "0x0000000000000000000000000000000000000000000000004504f27b8c5e0d8e00000000000000000000000000000000000000000000000000000000000000000000000000000000000000000000000000000000000000000000000000000000",
          "blockHash": "0xe17ecc3567ad7351305f1bf2b6cd36a9ac225e26c65ea5fa6050b373290377f3",
          "blockNumber": "0x40e629f",
          "transactionHash": "0x26c9c8f3fd67870259a10a8c1034514b62897e72ce45d8e8be361567783fb4e7",
          "transactionIndex": "0x3",
          "logIndex": "0x51",
          "removed": false
        }
      ],
      "logsBloom": "0x0000800000800800001004802100000104800244040c0000240000000200000002404100000000000050000000800020000820100000000009000200000404000000800000000000800000280000008100058000002488100002100000008004000000001100090000000020000800420020000100000000000000100000000200200000b200000000040001100040000080001000200000000000000000040000000000200820020000000000040200004000002003040000200000080040001000a042000840000000800000000401400004400800000040000000140000012000800004000510002010000002000403891000000002020000008080428000",
      "type": "0x2",
      "transactionHash": "0x26c9c8f3fd67870259a10a8c1034514b62897e72ce45d8e8be361567783fb4e7",
      "transactionIndex": "0x3",
      "blockHash": "0xe17ecc3567ad7351305f1bf2b6cd36a9ac225e26c65ea5fa6050b373290377f3",
      "blockNumber": "0x40e629f",
      "gasUsed": "0x1ded03",
      "effectiveGasPrice": "0xb5879a1e",
      "from": "0xaad2f138eb20fb60c34ac70624339ccbac2320fa",
      "to": "0xca11bde05977b3631167028862be2a173976ca11",
      "contractAddress": null
    }
  ],
  "libraries": [],
  "pending": [],
  "returns": {},
  "timestamp": 1756822876,
  "chain": 43114,
  "commit": "f990f0758"
}