{
  "transactions": [
    {
      "hash": "0x6d0c712601b957ef17ccafb95753773700cb4dbb5bf8fc4c7125444809342738",
      "transactionType": "CALL",
      "contractName": null,
      "contractAddress": "0x2a4507b28c6e620a2dcc05062f250d3d1c0f3faa",
      "function": "create((address,address,address,uint32,address,uint32,uint256,uint256,bool),bytes32)",
      "arguments": [
        "(0x9Da7f8c0D6e3F247AFFDf92c3DDDd83c1E248E14, 0xB97EF9Ef8734C71904D8002F8b6Bc66Dd9c48a6E, 0x25835DdAC2CA6e9806c7244e9a19924641e247DF, 87001, 0x0000000000000000000000000000000000000000, 0, 1000000000000000000, 0, false)",
        "0x0000000000000000000000000000000000000000000000000000000000000000"
      ],
      "transaction": {
        "from": "0xaad2f138eb20fb60c34ac70624339ccbac2320fa",
        "to": "0x2a4507b28c6e620a2dcc05062f250d3d1c0f3faa",
        "gas": "0x74f94",
        "value": "0x0",
        "input": "0x5b996c420000000000000000000000009da7f8c0d6e3f247affdf92c3dddd83c1e248e14000000000000000000000000b97ef9ef8734c71904d8002f8b6bc66dd9c48a6e00000000000000000000000025835ddac2ca6e9806c7244e9a19924641e247df00000000000000000000000000000000000000000000000000000000000153d9000000000000000000000000000000000000000000000000000000000000000000000000000000000000000000000000000000000000000000000000000000000000000000000000000000000000000000000000000000000de0b6b3a7640000000000000000000000000000000000000000000000000000000000000000000000000000000000000000000000000000000000000000000000000000000000000000000000000000000000000000000000000000000000000000000000000000",
        "nonce": "0x7",
        "chainId": "0xa86a"
      },
      "additionalContracts": [
        {
          "transactionType": "CREATE",
          "address": "0xc4dd5c8e15264d49f7949e9b754e60c880b5251b",
          "initCode": "0x6101c0604052348015610010575f5ffd5b506040516104fd3803806104fd83398101604081905261002f9161011d565b80516020820151606083015160c08085015160e08087015160a09283529092526001600160a01b0394851690915291831661010090815263ffffffff918216608090815260408601518516610120528501805185166101405292850151909116610160529051909116151561018052015115156101a0526101c6565b60405161012081016001600160401b03811182821017156100da57634e487b7160e01b5f52604160045260245ffd5b60405290565b80516001600160a01b03811681146100f6575f5ffd5b919050565b805163ffffffff811681146100f6575f5ffd5b805180151581146100f6575f5ffd5b5f61012082840312801561012f575f5ffd5b506101386100ab565b610141836100e0565b815261014f602084016100e0565b6020820152610160604084016100e0565b6040820152610171606084016100fb565b6060820152610182608084016100e0565b608082015261019360a084016100fb565b60a082015260c0838101519082015260e080840151908201526101b9610100840161010e565b6101008201529392505050565b60805160a05160c05160e05161010051610120516101405161016051610180516101a0516102cd6102305f395f61019e01525f61017501525f60b401525f606701525f604201525f61014e01525f61012601525f61010001525f60da01525f608f01526102cd5ff3fe608060405234801561000f575f5ffd5b5060043610610029575f3560e01c8063c3f909d41461002d575b5f5ffd5b60408051610140810182526001600160a01b037f0000000000000000000000000000000000000000000000000000000000000000811682527f0000000000000000000000000000000000000000000000000000000000000000811660208301527f0000000000000000000000000000000000000000000000000000000000000000828401527f000000000000000000000000000000000000000000000000000000000000000060608301527f000000000000000000000000000000000000000000000000000000000000000060808301527f000000000000000000000000000000000000000000000000000000000000000060a08301527f0000000000000000000000000000000000000000000000000000000000000000811660c08301527f00000000000000000000000000000000000000000000000000000000000000001660e08201527f000000000000000000000000000000000000000000000000000000000000000015156101008201527f0000000000000000000000000000000000000000000000000000000000000000151561012082015290516101d191906101da565b60405180910390f35b81516001600160a01b031681526101408101602083015161020660208401826001600160a01b03169052565b5060408301516040830152606083015160608301526080830151608083015260a083015160a083015260c083015161024960c08401826001600160a01b03169052565b5060e083015161026460e08401826001600160a01b03169052565b5061010083015161027a61010084018215159052565b5061012083015161029061012084018215159052565b509291505056fea26469706673582212202900bc819ad851e409ee0f549ba949074e20749f1ca6569fa7b8302671e9ca5064736f6c634300081c00330000000000000000000000009da7f8c0d6e3f247affdf92c3dddd83c1e248e14000000000000000000000000b97ef9ef8734c71904d8002f8b6bc66dd9c48a6e00000000000000000000000025835ddac2ca6e9806c7244e9a19924641e247df00000000000000000000000000000000000000000000000000000000000153d9000000000000000000000000000000000000000000000000000000000000000000000000000000000000000000000000000000000000000000000000000000000000000000000000000000000000000000000000000000000de0b6b3a764000000000000000000000000000000000000000000000000000000000000000000000000000000000000000000000000000000000000000000000000000000000000"
        },
        {
          "transactionType": "CREATE2",
          "address": "0x665bed87569660427c7ea474e36a1b3159b4be0a",
          "initCode": "0x3d602d80600a3d3981f3363d3d373d3d3d363d73bef9a21b4e4cfb29385771e57a90ecb8ad798d915af43d82803e903d91602b57fd5bf3"
        }
      ],
      "isFixedGasLimit": false
    }
  ],
  "receipts": [
    {
      "status": "0x1",
      "cumulativeGasUsed": "0x1e308a",
      "logs": [
        {
          "address": "0x2a4507b28c6e620a2dcc05062f250d3d1c0f3faa",
          "topics": [
            "0xb3eacd0e351fafdfefdec84e1cd19679b38dbcd63ea7c2c24da17fd2bc3b3c0e",
            "0x000000000000000000000000665bed87569660427c7ea474e36a1b3159b4be0a"
          ],
          "data": "0x",
          "blockHash": "0xa42ff49890e3ceb1a4003ff72c0458719c09b303797d22130011cd3810304522",
          "blockNumber": "0x415ae6c",
          "transactionHash": "0x6d0c712601b957ef17ccafb95753773700cb4dbb5bf8fc4c7125444809342738",
          "transactionIndex": "0x7",
          "logIndex": "0x18",
          "removed": false
        },
        {
          "address": "0x665bed87569660427c7ea474e36a1b3159b4be0a",
          "topics": [
            "0x077847d1fadf50041a730385b3d6b2de1cdeb5e078cb933fb091003e7f10e07a"
          ],
          "data": "0x000000000000000000000000c4dd5c8e15264d49f7949e9b754e60c880b5251b",
          "blockHash": "0xa42ff49890e3ceb1a4003ff72c0458719c09b303797d22130011cd3810304522",
          "blockNumber": "0x415ae6c",
          "transactionHash": "0x6d0c712601b957ef17ccafb95753773700cb4dbb5bf8fc4c7125444809342738",
          "transactionIndex": "0x7",
          "logIndex": "0x19",
          "removed": false
        },
        {
          "address": "0x665bed87569660427c7ea474e36a1b3159b4be0a",
          "topics": [
            "0xc7f505b2f371ae2175ee4913f4499e1f2633a7b5936321eed1cdaeb6115181d2"
          ],
          "data": "0x0000000000000000000000000000000000000000000000000000000000000001",
          "blockHash": "0xa42ff49890e3ceb1a4003ff72c0458719c09b303797d22130011cd3810304522",
          "blockNumber": "0x415ae6c",
          "transactionHash": "0x6d0c712601b957ef17ccafb95753773700cb4dbb5bf8fc4c7125444809342738",
          "transactionIndex": "0x7",
          "logIndex": "0x1a",
          "removed": false
        }
      ],
      "logsBloom": "0x00000000000000100100000000000000000000020000000000000000000000000000000000000000000000000000008000000000000080000000000000000000000000000000000000000000800000000000000000000000000000000000000008000000000000000000000000001000000000000000000000000000000000000000001000000000000800000000000000000000000080000000000000000000000000004000000000000000000000000000000002000000000000000200000000000000800000000000000000000000040000000004000000000000000000000000000000000000000000002000000000000000000000000000000000000000",
      "type": "0x2",
      "transactionHash": "0x6d0c712601b957ef17ccafb95753773700cb4dbb5bf8fc4c7125444809342738",
      "transactionIndex": "0x7",
      "blockHash": "0xa42ff49890e3ceb1a4003ff72c0458719c09b303797d22130011cd3810304522",
      "blockNumber": "0x415ae6c",
      "gasUsed": "0x54afe",
      "effectiveGasPrice": "0x34aaa235f",
      "from": "0xaad2f138eb20fb60c34ac70624339ccbac2320fa",
      "to": "0x2a4507b28c6e620a2dcc05062f250d3d1c0f3faa",
      "contractAddress": null
    }
  ],
  "libraries": [],
  "pending": [],
  "returns": {
    "oracle": {
      "internal_type": "contract ChainlinkV3Oracle",
      "value": "0x665bED87569660427C7EA474E36a1b3159B4BE0a"
    }
  },
  "timestamp": 1757513814,
  "chain": 43114,
  "commit": "39d85f936"
}