{
  "transactions": [
    {
      "hash": "0xd0be9a7479fbc681e6557152364fa73f94fe41876dadf0d0953456c4d21a4b2e",
      "transactionType": "CALL",
      "contractName": null,
      "contractAddress": "0x2736dfda36766580a053dcac91b662336c125edb",
      "function": "update(string,address)",
      "arguments": [
        "LiquidationHelper",
        "0x8FfC46A1b7a3b12F4A11Db8877d302876DCA7Ab1"
      ],
      "transaction": {
        "from": "0x6d228fa4dad2163056a48fc2186d716f5c65e89a",
        "to": "0x2736dfda36766580a053dcac91b662336c125edb",
        "gas": "0xb984",
        "value": "0x0",
        "input": "0x2cff89c900000000000000000000000000000000000000000000000000000000000000400000000000000000000000008ffc46a1b7a3b12f4a11db8877d302876dca7ab100000000000000000000000000000000000000000000000000000000000000114c69717569646174696f6e48656c706572000000000000000000000000000000",
        "nonce": "0x11c",
        "chainId": "0xa"
      },
      "additionalContracts": [],
      "isFixedGasLimit": false
    }
  ],
  "receipts": [
    {
      "status": "0x1",
      "cumulativeGasUsed": "0x64dd0f",
      "logs": [
        {
          "address": "0x2736dfda36766580a053dcac91b662336c125edb",
          "topics": [
            "0xaa96e0e6f7c38ef3ea5679180dc8034becfee398a6d177ee2c175663f96340e6",
            "0x0000000000000000000000008ffc46a1b7a3b12f4a11db8877d302876dca7ab1"
          ],
          "data": "0x000000000000000000000000000000000000000000000000000000000000002000000000000000000000000000000000000000000000000000000000000000114c69717569646174696f6e48656c706572000000000000000000000000000000",
          "blockHash": "0x8e87ccf45649a3fa8de6de8205a088563560dd95a09f0c8bc7f35400b8714668",
          "blockNumber": "0x7b8f43b",
          "transactionHash": "0xd0be9a7479fbc681e6557152364fa73f94fe41876dadf0d0953456c4d21a4b2e",
          "transactionIndex": "0x14",
          "logIndex": "0x52",
          "removed": false
        }
      ],
      "logsBloom": "0x00000000040000000000000000040000000000000000000000000000000000000000000000000000000000000000000000000008000000000000000000000100000200000000000000000000000000000000000000000000000000000000000000000000000000000000000000000000000000000000000008000000000000000000000000000000000000000000000000000000000000000040000000000000000000000200000000000000000000000000000000000000000000000000000000000000000000000000000000000000000000002000000000000000000000000000000000000000000000000000000000000000000000000000000000000000",
      "type": "0x2",
      "transactionHash": "0xd0be9a7479fbc681e6557152364fa73f94fe41876dadf0d0953456c4d21a4b2e",
      "transactionIndex": "0x14",
      "blockHash": "0x8e87ccf45649a3fa8de6de8205a088563560dd95a09f0c8bc7f35400b8714668",
      "blockNumber": "0x7b8f43b",
      "gasUsed": "0x7eda",
      "effectiveGasPrice": "0x18820",
      "from": "0x6d228fa4dad2163056a48fc2186d716f5c65e89a",
      "to": "0x2736dfda36766580a053dcac91b662336c125edb",
      "contractAddress": null,
      "l1BaseFeeScalar": "0x146b",
      "l1BlobBaseFee": "0x4a1bd3218",
      "l1BlobBaseFeeScalar": "0xf79c5",
      "l1Fee": "0x21125a08062",
      "l1GasPrice": "0x3d104e592",
      "l1GasUsed": "0x697"
    }
  ],
  "libraries": [],
  "pending": [],
  "returns": {},
  "timestamp": 1734722096,
  "chain": 10,
  "commit": "1039d862"
}