{
  "transactions": [
    {
      "hash": "0x9bf7580d426fa524125e7db4b4e146ab16883ae024768fcd2e8f08f462a3ce26",
      "transactionType": "CALL",
      "contractName": null,
      "contractAddress": "0x6ccf6a6af00bb037223f27b9109bc4bf45c6b21e",
      "function": "create(address,address,bytes32)",
      "arguments": [
        "0x14A84F1a61cCd7D1BE596A6cc11FE33A36Bc1646",
        "0xf4a46DC09E3e17d60ab54e1E9AEb47faaa5ad6F3",
        "0x0000000000000000000000000000000000000000000000000000000000000000"
      ],
      "transaction": {
        "from": "0xaad2f138eb20fb60c34ac70624339ccbac2320fa",
        "to": "0x6ccf6a6af00bb037223f27b9109bc4bf45c6b21e",
        "gas": "0x7d27c",
        "value": "0x0",
        "input": "0xd1692f5600000000000000000000000014a84f1a61ccd7d1be596a6cc11fe33a36bc1646000000000000000000000000f4a46dc09e3e17d60ab54e1e9aeb47faaa5ad6f30000000000000000000000000000000000000000000000000000000000000000",
        "nonce": "0xb",
        "chainId": "0xa86a"
      },
      "additionalContracts": [
        {
          "transactionType": "CREATE2",
          "address": "0x6b0e09e71d175fc2ea9ec13a46da92804cfe9925",
          "initCode": "0x610100604052348015610010575f5ffd5b5060405161068038038061068083398101604081905261002f91610146565b6001600160a01b03808316608081905290821660e052604080516338d52e0f60e01b815290516338d52e0f916004808201926020929091908290030181865afa15801561007e573d5f5f3e3d5ffd5b505050506040513d601f19601f820116820180604052508101906100a2919061017e565b6001600160a01b031660c0816001600160a01b031681525050806001600160a01b031663217a4b706040518163ffffffff1660e01b8152600401602060405180830381865afa1580156100f7573d5f5f3e3d5ffd5b505050506040513d601f19601f8201168201806040525081019061011b919061017e565b6001600160a01b031660a052506101a09050565b6001600160a01b0381168114610143575f5ffd5b50565b5f5f60408385031215610157575f5ffd5b82516101628161012f565b60208401519092506101738161012f565b809150509250929050565b5f6020828403121561018e575f5ffd5b81516101998161012f565b9392505050565b60805160a05160c05160e05161048c6101f45f395f818161016b015261034601525f818161013c015261031b01525f81816081015261010d01525f818160de01528181610224015261028c015261048c5ff3fe608060405234801561000f575f5ffd5b506004361061004a575f3560e01c806313b0be331461004e578063217a4b7014610074578063c3f909d4146100ab578063f9fa619a146101de575b5f5ffd5b61006161005c3660046103f5565b6101f1565b6040519081526020015b60405180910390f35b6040516001600160a01b037f000000000000000000000000000000000000000000000000000000000000000016815260200161006b565b61019b604080516080810182525f80825260208201819052918101829052606081019190915260405180608001604052807f00000000000000000000000000000000000000000000000000000000000000006001600160a01b031681526020017f00000000000000000000000000000000000000000000000000000000000000006001600160a01b031681526020017f00000000000000000000000000000000000000000000000000000000000000006001600160a01b031681526020017f00000000000000000000000000000000000000000000000000000000000000006001600160a01b0316815250905090565b60405161006b919081516001600160a01b039081168252602080840151821690830152604080840151821690830152606092830151169181019190915260800190565b6101ef6101ec36600461041f565b50565b005b5f6fffffffffffffffffffffffffffffffff831061022257604051631df5999960e21b815260040160405180910390fd5b7f00000000000000000000000000000000000000000000000000000000000000006001600160a01b0316826001600160a01b0316146102745760405163981a2a2b60e01b815260040160405180910390fd5b6040516303d1689d60e11b8152600481018490525f907f00000000000000000000000000000000000000000000000000000000000000006001600160a01b0316906307a2d13a90602401602060405180830381865afa1580156102d9573d5f5f3e3d5ffd5b505050506040513d601f19601f820116820180604052508101906102fd919061043f565b6040516313b0be3360e01b8152600481018290526001600160a01b037f0000000000000000000000000000000000000000000000000000000000000000811660248301529192507f0000000000000000000000000000000000000000000000000000000000000000909116906313b0be3390604401602060405180830381865afa15801561038d573d5f5f3e3d5ffd5b505050506040513d601f19601f820116820180604052508101906103b1919061043f565b9150815f036103d3576040516301a7e28b60e61b815260040160405180910390fd5b5092915050565b80356001600160a01b03811681146103f0575f5ffd5b919050565b5f5f60408385031215610406575f5ffd5b82359150610416602084016103da565b90509250929050565b5f6020828403121561042f575f5ffd5b610438826103da565b9392505050565b5f6020828403121561044f575f5ffd5b505191905056fea26469706673582212206fb63304afc0a3d48785e59abdf3b87753b7af0c12215bfb7e55e91db243ff5764736f6c634300081c003300000000000000000000000014a84f1a61ccd7d1be596a6cc11fe33a36bc1646000000000000000000000000f4a46dc09e3e17d60ab54e1e9aeb47faaa5ad6f3"
        }
      ],
      "isFixedGasLimit": false
    }
  ],
  "receipts": [
    {
      "status": "0x1",
      "cumulativeGasUsed": "0x2bcf1b",
      "logs": [
        {
          "address": "0x6ccf6a6af00bb037223f27b9109bc4bf45c6b21e",
          "topics": [
            "0xb3eacd0e351fafdfefdec84e1cd19679b38dbcd63ea7c2c24da17fd2bc3b3c0e",
            "0x0000000000000000000000006b0e09e71d175fc2ea9ec13a46da92804cfe9925"
          ],
          "data": "0x",
          "blockHash": "0x20b6a34740d8b9a48c9acdd5c7a319a84a6057d1346e35bea7fc2247290642fb",
          "blockNumber": "0x421042a",
          "transactionHash": "0x9bf7580d426fa524125e7db4b4e146ab16883ae024768fcd2e8f08f462a3ce26",
          "transactionIndex": "0x2e",
          "logIndex": "0x34",
          "removed": false
        }
      ],
      "logsBloom": "0x00000000000000100100000000000000000000000000000000000000000000000000000000000000000000000000000000000000000000000000000000000000080000000000000000000000000000000000000000000000000000000000000008000000000000000000000000000000000000000000000000100000000000000000000000000000000000000000000000000000000000000000000000000000000200000000000000000000000400000000000000000000000000000000000000000000000080000000000000000000000000000000000000000000000000000000000000000000000000000000020000000000000000000000000000000000",
      "type": "0x2",
      "transactionHash": "0x9bf7580d426fa524125e7db4b4e146ab16883ae024768fcd2e8f08f462a3ce26",
      "transactionIndex": "0x2e",
      "blockHash": "0x20b6a34740d8b9a48c9acdd5c7a319a84a6057d1346e35bea7fc2247290642fb",
      "blockNumber": "0x421042a",
      "gasUsed": "0x5a9c4",
      "effectiveGasPrice": "0x33bed3ad",
      "from": "0xaad2f138eb20fb60c34ac70624339ccbac2320fa",
      "to": "0x6ccf6a6af00bb037223f27b9109bc4bf45c6b21e",
      "contractAddress": null
    }
  ],
  "libraries": [],
  "pending": [],
  "returns": {
    "oracle": {
      "internal_type": "contract ERC4626OracleWithUnderlying",
      "value": "0x6b0e09E71d175Fc2Ea9ec13A46DA92804CFe9925"
    }
  },
  "timestamp": 1758801494,
  "chain": 43114,
  "commit": "f05c3c260"
}