{
  "transactions": [
    {
      "hash": "0x2c70fd4a0ea964baaec075600562d7984ac690faaf2904eac06102450abec214",
      "transactionType": "CALL",
      "contractName": "ChainlinkV3OracleFactory",
      "contractAddress": "0x7699c568bf5595b744d5d9bc01b19989ca7e3de6",
      "function": "create((address,address,address,uint32,address,uint32,uint256,uint256,bool),bytes32)",
      "arguments": [
        "(0x5a791652f3b140d357df072d355a98ab754877D1, 0xaf88d065e77c8cC2239327C5EDb3A432268e5831, 0x539FA1ce6333F79a0cda5dEB9833B5fAEEABE70E, 87001, 0x0000000000000000000000000000000000000000, 0, 1000000, 0, false)",
        "0x0000000000000000000000000000000000000000000000000000000000000000"
      ],
      "transaction": {
        "from": "0xaad2f138eb20fb60c34ac70624339ccbac2320fa",
        "to": "0x7699c568bf5595b744d5d9bc01b19989ca7e3de6",
        "gas": "0x817f6",
        "value": "0x0",
        "input": "0x5b996c420000000000000000000000005a791652f3b140d357df072d355a98ab754877d1000000000000000000000000af88d065e77c8cc2239327c5edb3a432268e5831000000000000000000000000539fa1ce6333f79a0cda5deb9833b5faeeabe70e00000000000000000000000000000000000000000000000000000000000153d90000000000000000000000000000000000000000000000000000000000000000000000000000000000000000000000000000000000000000000000000000000000000000000000000000000000000000000000000000000000000000000f4240000000000000000000000000000000000000000000000000000000000000000000000000000000000000000000000000000000000000000000000000000000000000000000000000000000000000000000000000000000000000000000000000",
        "nonce": "0x17",
        "chainId": "0xa4b1"
      },
      "additionalContracts": [
        {
          "transactionType": "CREATE",
          "address": "0x5c4ec43055ef6461c64a482f636a006705ff594e",
          "initCode": "0x6101c0604052348015610010575f5ffd5b506040516104fd3803806104fd83398101604081905261002f9161011d565b80516020820151606083015160c08085015160e08087015160a09283529092526001600160a01b0394851690915291831661010090815263ffffffff918216608090815260408601518516610120528501805185166101405292850151909116610160529051909116151561018052015115156101a0526101c6565b60405161012081016001600160401b03811182821017156100da57634e487b7160e01b5f52604160045260245ffd5b60405290565b80516001600160a01b03811681146100f6575f5ffd5b919050565b805163ffffffff811681146100f6575f5ffd5b805180151581146100f6575f5ffd5b5f61012082840312801561012f575f5ffd5b506101386100ab565b610141836100e0565b815261014f602084016100e0565b6020820152610160604084016100e0565b6040820152610171606084016100fb565b6060820152610182608084016100e0565b608082015261019360a084016100fb565b60a082015260c0838101519082015260e080840151908201526101b9610100840161010e565b6101008201529392505050565b60805160a05160c05160e05161010051610120516101405161016051610180516101a0516102cd6102305f395f61019e01525f61017501525f60b401525f606701525f604201525f61014e01525f61012601525f61010001525f60da01525f608f01526102cd5ff3fe608060405234801561000f575f5ffd5b5060043610610029575f3560e01c8063c3f909d41461002d575b5f5ffd5b60408051610140810182526001600160a01b037f0000000000000000000000000000000000000000000000000000000000000000811682527f0000000000000000000000000000000000000000000000000000000000000000811660208301527f0000000000000000000000000000000000000000000000000000000000000000828401527f000000000000000000000000000000000000000000000000000000000000000060608301527f000000000000000000000000000000000000000000000000000000000000000060808301527f000000000000000000000000000000000000000000000000000000000000000060a08301527f0000000000000000000000000000000000000000000000000000000000000000811660c08301527f00000000000000000000000000000000000000000000000000000000000000001660e08201527f000000000000000000000000000000000000000000000000000000000000000015156101008201527f0000000000000000000000000000000000000000000000000000000000000000151561012082015290516101d191906101da565b60405180910390f35b81516001600160a01b031681526101408101602083015161020660208401826001600160a01b03169052565b5060408301516040830152606083015160608301526080830151608083015260a083015160a083015260c083015161024960c08401826001600160a01b03169052565b5060e083015161026460e08401826001600160a01b03169052565b5061010083015161027a61010084018215159052565b5061012083015161029061012084018215159052565b509291505056fea2646970667358221220a27b890a2c25df4451132e760151dcebaf446e03a67ac1340763259ebb2a082364736f6c634300081c00330000000000000000000000005a791652f3b140d357df072d355a98ab754877d1000000000000000000000000af88d065e77c8cc2239327c5edb3a432268e5831000000000000000000000000539fa1ce6333f79a0cda5deb9833b5faeeabe70e00000000000000000000000000000000000000000000000000000000000153d90000000000000000000000000000000000000000000000000000000000000000000000000000000000000000000000000000000000000000000000000000000000000000000000000000000000000000000000000000000000000000000f424000000000000000000000000000000000000000000000000000000000000000000000000000000000000000000000000000000000000000000000000000000000"
        },
        {
          "transactionType": "CREATE2",
          "address": "0xd00265cc26aec24adedb22177b1b197c6595a846",
          "initCode": "0x3d602d80600a3d3981f3363d3d373d3d3d363d734db912bfe4385274a51fc55ff671da71b02d1fc75af43d82803e903d91602b57fd5bf3"
        }
      ],
      "isFixedGasLimit": false
    }
  ],
  "receipts": [
    {
      "status": "0x1",
      "cumulativeGasUsed": "0x6dcbd",
      "logs": [
        {
          "address": "0x7699c568bf5595b744d5d9bc01b19989ca7e3de6",
          "topics": [
            "0xb3eacd0e351fafdfefdec84e1cd19679b38dbcd63ea7c2c24da17fd2bc3b3c0e",
            "0x000000000000000000000000d00265cc26aec24adedb22177b1b197c6595a846"
          ],
          "data": "0x",
          "blockHash": "0x7dbe4495d3638f2efe9bd6381d478e1385fe324486974f32b28ed757542e17d8",
          "blockNumber": "0x16e73f77",
          "transactionHash": "0x2c70fd4a0ea964baaec075600562d7984ac690faaf2904eac06102450abec214",
          "transactionIndex": "0x2",
          "logIndex": "0x0",
          "removed": false
        },
        {
          "address": "0xd00265cc26aec24adedb22177b1b197c6595a846",
          "topics": [
            "0x077847d1fadf50041a730385b3d6b2de1cdeb5e078cb933fb091003e7f10e07a"
          ],
          "data": "0x0000000000000000000000005c4ec43055ef6461c64a482f636a006705ff594e",
          "blockHash": "0x7dbe4495d3638f2efe9bd6381d478e1385fe324486974f32b28ed757542e17d8",
          "blockNumber": "0x16e73f77",
          "transactionHash": "0x2c70fd4a0ea964baaec075600562d7984ac690faaf2904eac06102450abec214",
          "transactionIndex": "0x2",
          "logIndex": "0x1",
          "removed": false
        },
        {
          "address": "0xd00265cc26aec24adedb22177b1b197c6595a846",
          "topics": [
            "0xc7f505b2f371ae2175ee4913f4499e1f2633a7b5936321eed1cdaeb6115181d2"
          ],
          "data": "0x0000000000000000000000000000000000000000000000000000000000000001",
          "blockHash": "0x7dbe4495d3638f2efe9bd6381d478e1385fe324486974f32b28ed757542e17d8",
          "blockNumber": "0x16e73f77",
          "transactionHash": "0x2c70fd4a0ea964baaec075600562d7984ac690faaf2904eac06102450abec214",
          "transactionIndex": "0x2",
          "logIndex": "0x2",
          "removed": false
        }
      ],
      "logsBloom": "0x00000000000000100100000000000200000000000000200000000000000000000000000000000000000000000000000000000000000000000000000000000000000000020000000000000000800000000000001000000000000000000000000008000000000000000000000000001000000000000000000000000000000000000000000008000000000800000000000800000000000080000000000000000000000000000000000000000000000000000001000000000000000000000000000020000000000000000000000000000000040000000004000000000000000000000008000000000000000000000000000000000000000000000000000000000000",
      "type": "0x2",
      "transactionHash": "0x2c70fd4a0ea964baaec075600562d7984ac690faaf2904eac06102450abec214",
      "transactionIndex": "0x2",
      "blockHash": "0x7dbe4495d3638f2efe9bd6381d478e1385fe324486974f32b28ed757542e17d8",
      "blockNumber": "0x16e73f77",
      "gasUsed": "0x5ea37",
      "effectiveGasPrice": "0xaa6130",
      "from": "0xaad2f138eb20fb60c34ac70624339ccbac2320fa",
      "to": "0x7699c568bf5595b744d5d9bc01b19989ca7e3de6",
      "contractAddress": null,
      "gasUsedForL1": "0x9f51",
      "l1BlockNumber": "0x1661ac9",
      "timeboosted": false
    }
  ],
  "libraries": [],
  "pending": [],
  "returns": {
    "oracle": {
      "internal_type": "contract ChainlinkV3Oracle",
      "value": "0xd00265cC26AeC24AdeDb22177B1B197c6595A846"
    }
  },
  "timestamp": 1759150098,
  "chain": 42161,
  "commit": "7aad2717b"
}