{
  "transactions": [
    {
      "hash": "0x5b051850c45f65845dd7f0ab7e8a771be6abd5b282be8afa5f19c239d68f2e9e",
      "transactionType": "CALL",
      "contractName": null,
      "contractAddress": "0x653b957dac238a918c4b7dda798ae09920355edc",
      "function": "create((address,address,address,uint32,address,uint32,uint256,uint256))",
      "arguments": [
        "(0xCC0966D8418d412c599A6421b760a847eB169A8c, 0xad525F341368AA80093672278234ad364EFcAf0A, 0x26FB59e5562405F42f55661f790fA1Bd2F410A3d, 22201, 0x0000000000000000000000000000000000000000, 0, 100000000, 0)"
      ],
      "transaction": {
        "from": "0x6d228fa4dad2163056a48fc2186d716f5c65e89a",
        "to": "0x653b957dac238a918c4b7dda798ae09920355edc",
        "gas": "0x9cb9",
        "value": "0x0",
        "input": "0x4b4de5ff000000000000000000000000cc0966d8418d412c599a6421b760a847eb169a8c000000000000000000000000ad525f341368aa80093672278234ad364efcaf0a00000000000000000000000026fb59e5562405f42f55661f790fa1bd2f410a3d00000000000000000000000000000000000000000000000000000000000056b9000000000000000000000000000000000000000000000000000000000000000000000000000000000000000000000000000000000000000000000000000000000000000000000000000000000000000000000000000000000000000005f5e1000000000000000000000000000000000000000000000000000000000000000000",
        "nonce": "0x7e",
        "chainId": "0x92"
      },
      "additionalContracts": [],
      "isFixedGasLimit": false
    }
  ],
  "receipts": [
    {
      "status": "0x1",
      "cumulativeGasUsed": "0x75cb",
      "logs": [],
      "logsBloom": "0x00000000000000000000000000000000000000000000000000000000000000000000000000000000000000000000000000000000000000000000000000000000000000000000000000000000000000000000000000000000000000000000000000000000000000000000000000000000000000000000000000000000000000000000000000000000000000000000000000000000000000000000000000000000000000000000000000000000000000000000000000000000000000000000000000000000000000000000000000000000000000000000000000000000000000000000000000000000000000000000000000000000000000000000000000000000",
      "type": "0x2",
      "transactionHash": "0x5b051850c45f65845dd7f0ab7e8a771be6abd5b282be8afa5f19c239d68f2e9e",
      "transactionIndex": "0x0",
      "blockHash": "0x2de7c3274859920e47579a84d401b7fdc3df8170e396a2f69d0ace57b50150cd",
      "blockNumber": "0x47fc73",
      "gasUsed": "0x75cb",
      "effectiveGasPrice": "0xba43b7401",
      "from": "0x6d228fa4dad2163056a48fc2186d716f5c65e89a",
      "to": "0x653b957dac238a918c4b7dda798ae09920355edc",
      "contractAddress": null
    }
  ],
  "libraries": [],
  "pending": [],
  "returns": {
    "oracle": {
      "internal_type": "contract ChainlinkV3Oracle",
      "value": "0xb64C4eF733FaEce2ab7014E9A6751A68163cC10b"
    }
  },
  "timestamp": 1737398338,
  "chain": 146,
  "commit": "6e8f07a2"
}