{
  "transactions": [
    {
      "hash": "0x37ffaa7f9ef97e1473c04cd94a8624ba0552a946ecead88bff0b8ac65f267d28",
      "transactionType": "CALL",
      "contractName": null,
      "contractAddress": "0x653b957dac238a918c4b7dda798ae09920355edc",
      "function": "create((address,address,address,uint32,address,uint32,uint256,uint256))",
      "arguments": [
        "(0x50c42dEAcD8Fc9773493ED674b675bE577f2634b, 0xad525F341368AA80093672278234ad364EFcAf0A, 0x824364077993847f71293B24ccA8567c00c2de11, 87001, 0x0000000000000000000000000000000000000000, 0, 100000000, 0)"
      ],
      "transaction": {
        "from": "0x6d228fa4dad2163056a48fc2186d716f5c65e89a",
        "to": "0x653b957dac238a918c4b7dda798ae09920355edc",
        "gas": "0x7542c",
        "value": "0x0",
        "input": "0x4b4de5ff00000000000000000000000050c42deacd8fc9773493ed674b675be577f2634b000000000000000000000000ad525f341368aa80093672278234ad364efcaf0a000000000000000000000000824364077993847f71293b24cca8567c00c2de1100000000000000000000000000000000000000000000000000000000000153d9000000000000000000000000000000000000000000000000000000000000000000000000000000000000000000000000000000000000000000000000000000000000000000000000000000000000000000000000000000000000000005f5e1000000000000000000000000000000000000000000000000000000000000000000",
        "nonce": "0x6a",
        "chainId": "0x92"
      },
      "additionalContracts": [
        {
          "transactionType": "CREATE",
          "address": "0x8b4dce12eb50272555bd8e19a80717e37f8266ff",
          "initCode": "0x6101a0604052348015610010575f5ffd5b5060405161047f38038061047f83398101604081905261002f916100ce565b80516020820151606083015160c08085015160e08087015160a09283529092526001600160a01b039485169091529183166101005263ffffffff9081166080908152604085015184166101205284018051841661014052919093015190921661016052905116151561018052610190565b80516001600160a01b03811681146100b6575f5ffd5b919050565b805163ffffffff811681146100b6575f5ffd5b5f6101008284031280156100e0575f5ffd5b5060405161010081016001600160401b038111828210171561011057634e487b7160e01b5f52604160045260245ffd5b60405261011c836100a0565b815261012a602084016100a0565b602082015261013b604084016100a0565b604082015261014c606084016100bb565b606082015261015d608084016100a0565b608082015261016e60a084016100bb565b60a082015260c0838101519082015260e0928301519281019290925250919050565b60805160a05160c05160e051610100516101205161014051610160516101805161028f6101f05f395f61017501525f60b401525f606701525f604201525f61014e01525f61012601525f61010001525f60da01525f608f015261028f5ff3fe608060405234801561000f575f5ffd5b5060043610610029575f3560e01c8063c3f909d41461002d575b5f5ffd5b60408051610120810182526001600160a01b037f0000000000000000000000000000000000000000000000000000000000000000811682527f0000000000000000000000000000000000000000000000000000000000000000811660208301527f0000000000000000000000000000000000000000000000000000000000000000828401527f000000000000000000000000000000000000000000000000000000000000000060608301527f000000000000000000000000000000000000000000000000000000000000000060808301527f000000000000000000000000000000000000000000000000000000000000000060a08301527f0000000000000000000000000000000000000000000000000000000000000000811660c08301527f00000000000000000000000000000000000000000000000000000000000000001660e08201527f0000000000000000000000000000000000000000000000000000000000000000151561010082015290516101a891906101b1565b60405180910390f35b81516001600160a01b031681526020808301516101208301916101de908401826001600160a01b03169052565b5060408301516040830152606083015160608301526080830151608083015260a083015160a083015260c083015161022160c08401826001600160a01b03169052565b5060e083015161023c60e08401826001600160a01b03169052565b5061010083015161025261010084018215159052565b509291505056fea264697066735822122089de3ddacef594b155d1ee58186bf003e06893c4c6f27a37378d47c2b443f35864736f6c634300081c003300000000000000000000000050c42deacd8fc9773493ed674b675be577f2634b000000000000000000000000ad525f341368aa80093672278234ad364efcaf0a000000000000000000000000824364077993847f71293b24cca8567c00c2de1100000000000000000000000000000000000000000000000000000000000153d9000000000000000000000000000000000000000000000000000000000000000000000000000000000000000000000000000000000000000000000000000000000000000000000000000000000000000000000000000000000000000005f5e1000000000000000000000000000000000000000000000000000000000000000000"
        },
        {
          "transactionType": "CREATE",
          "address": "0xed4399235f377afb48da005607a0f52ed7c3bc7f",
          "initCode": "0x3d602d80600a3d3981f3363d3d373d3d3d363d739b2a312858043b918959f9a21ca89ec666a8afd35af43d82803e903d91602b57fd5bf3"
        }
      ],
      "isFixedGasLimit": false
    }
  ],
  "receipts": [
    {
      "status": "0x1",
      "cumulativeGasUsed": "0x53e2f",
      "logs": [
        {
          "address": "0x653b957dac238a918c4b7dda798ae09920355edc",
          "topics": [
            "0xb3eacd0e351fafdfefdec84e1cd19679b38dbcd63ea7c2c24da17fd2bc3b3c0e",
            "0x000000000000000000000000ed4399235f377afb48da005607a0f52ed7c3bc7f"
          ],
          "data": "0x",
          "blockHash": "0x38c866dcd9dec8aab62e34a20d370dd3ef571d86a737760aa07e9439f98d6d8d",
          "blockNumber": "0x40f80e",
          "transactionHash": "0x37ffaa7f9ef97e1473c04cd94a8624ba0552a946ecead88bff0b8ac65f267d28",
          "transactionIndex": "0x0",
          "logIndex": "0x0",
          "removed": false
        },
        {
          "address": "0xed4399235f377afb48da005607a0f52ed7c3bc7f",
          "topics": [
            "0x077847d1fadf50041a730385b3d6b2de1cdeb5e078cb933fb091003e7f10e07a"
          ],
          "data": "0x0000000000000000000000008b4dce12eb50272555bd8e19a80717e37f8266ff",
          "blockHash": "0x38c866dcd9dec8aab62e34a20d370dd3ef571d86a737760aa07e9439f98d6d8d",
          "blockNumber": "0x40f80e",
          "transactionHash": "0x37ffaa7f9ef97e1473c04cd94a8624ba0552a946ecead88bff0b8ac65f267d28",
          "transactionIndex": "0x0",
          "logIndex": "0x1",
          "removed": false
        },
        {
          "address": "0xed4399235f377afb48da005607a0f52ed7c3bc7f",
          "topics": [
            "0xc7f505b2f371ae2175ee4913f4499e1f2633a7b5936321eed1cdaeb6115181d2"
          ],
          "data": "0x0000000000000000000000000000000000000000000000000000000000000001",
          "blockHash": "0x38c866dcd9dec8aab62e34a20d370dd3ef571d86a737760aa07e9439f98d6d8d",
          "blockNumber": "0x40f80e",
          "transactionHash": "0x37ffaa7f9ef97e1473c04cd94a8624ba0552a946ecead88bff0b8ac65f267d28",
          "transactionIndex": "0x0",
          "logIndex": "0x2",
          "removed": false
        }
      ],
      "logsBloom": "0x00000000000000104100000000000000000000000000000000000800000000000000000000000008000000000000000000000000000000400000000000000200000001000000000000000000800000000000000000000000000000000000000008000000000000000000000000001000000000000000000200000000000000000000000000000000000800000000000000000000000080000000000000000000000000000000000000000000000000000000000000000000000000000000000000000000000000000000000000000000040000000004000000000000000000000000000000000000000000000020000000000000000000000000000000000000",
      "type": "0x2",
      "transactionHash": "0x37ffaa7f9ef97e1473c04cd94a8624ba0552a946ecead88bff0b8ac65f267d28",
      "transactionIndex": "0x0",
      "blockHash": "0x38c866dcd9dec8aab62e34a20d370dd3ef571d86a737760aa07e9439f98d6d8d",
      "blockNumber": "0x40f80e",
      "gasUsed": "0x53e2f",
      "effectiveGasPrice": "0x174876e801",
      "from": "0x6d228fa4dad2163056a48fc2186d716f5c65e89a",
      "to": "0x653b957dac238a918c4b7dda798ae09920355edc",
      "contractAddress": null
    }
  ],
  "libraries": [],
  "pending": [],
  "returns": {
    "oracle": {
      "internal_type": "contract ChainlinkV3Oracle",
      "value": "0xed4399235f377AFB48dA005607a0F52Ed7C3bC7F"
    }
  },
  "timestamp": 1737113453,
  "chain": 146,
  "commit": "9e4cf299"
}