{
  "transactions": [
    {
      "hash": "0x762251ab24b3b9c816fca5db009232f4f807848420a15c424d212010df47b051",
      "transactionType": "CALL",
      "contractName": null,
      "contractAddress": "0xcdcbbbe6608eac3fd8e311bb81038632f01133f9",
      "function": "create((address,address,address,uint32,address,uint32))",
      "arguments": [
        "(0x039e2fB66102314Ce7b64Ce5Ce3E5183bc94aD38, 0xad525F341368AA80093672278234ad364EFcAf0A, 0x93EE65a6B5f7e87b878abED72CB025E9b19679FE, 22201, 0x0000000000000000000000000000000000000000, 0)"
      ],
      "transaction": {
        "from": "0x6d228fa4dad2163056a48fc2186d716f5c65e89a",
        "to": "0xcdcbbbe6608eac3fd8e311bb81038632f01133f9",
        "gas": "0x7e8b3",
        "value": "0x0",
        "input": "0xa7e1f512000000000000000000000000039e2fb66102314ce7b64ce5ce3e5183bc94ad38000000000000000000000000ad525f341368aa80093672278234ad364efcaf0a00000000000000000000000093ee65a6b5f7e87b878abed72cb025e9b19679fe00000000000000000000000000000000000000000000000000000000000056b900000000000000000000000000000000000000000000000000000000000000000000000000000000000000000000000000000000000000000000000000000000",
        "nonce": "0x52",
        "chainId": "0x92"
      },
      "additionalContracts": [
        {
          "transactionType": "CREATE",
          "address": "0xf2e1627293ba4e0f60e52c8fbe4c5541d3b24c65",
          "initCode": "0x6101a0604052348015610010575f5ffd5b5060405161047a38038061047a83398101604081905261002f916100c1565b82516020840151606085015160a094855260c0939093526001600160a01b0391821660e05281166101005263ffffffff918216608090815260408501518216610120528401805182166101405292909301511661016052511615156101805261018b565b80516001600160a01b03811681146100a9575f5ffd5b919050565b805163ffffffff811681146100a9575f5ffd5b5f5f5f8385036101008112156100d5575f5ffd5b60c08112156100e2575f5ffd5b5060405160c081016001600160401b038111828210171561011157634e487b7160e01b5f52604160045260245ffd5b60405261011d85610093565b815261012b60208601610093565b602082015261013c60408601610093565b604082015261014d606086016100ae565b606082015261015e60808601610093565b608082015261016f60a086016100ae565b60a082015260c085015160e09095015190969495509392505050565b60805160a05160c05160e051610100516101205161014051610160516101805161028f6101eb5f395f61017501525f60b401525f606701525f604201525f61014e01525f61012601525f61010001525f60da01525f608f015261028f5ff3fe608060405234801561000f575f5ffd5b5060043610610029575f3560e01c8063c3f909d41461002d575b5f5ffd5b60408051610120810182526001600160a01b037f0000000000000000000000000000000000000000000000000000000000000000811682527f0000000000000000000000000000000000000000000000000000000000000000811660208301527f0000000000000000000000000000000000000000000000000000000000000000828401527f000000000000000000000000000000000000000000000000000000000000000060608301527f000000000000000000000000000000000000000000000000000000000000000060808301527f000000000000000000000000000000000000000000000000000000000000000060a08301527f0000000000000000000000000000000000000000000000000000000000000000811660c08301527f00000000000000000000000000000000000000000000000000000000000000001660e08201527f0000000000000000000000000000000000000000000000000000000000000000151561010082015290516101a891906101b1565b60405180910390f35b81516001600160a01b031681526020808301516101208301916101de908401826001600160a01b03169052565b5060408301516040830152606083015160608301526080830151608083015260a083015160a083015260c083015161022160c08401826001600160a01b03169052565b5060e083015161023c60e08401826001600160a01b03169052565b5061010083015161025261010084018215159052565b509291505056fea264697066735822122005083d0590feb91704a54b6c3b1fcae1a6bbecca6fd536c936c6beb72198800264736f6c634300081c0033000000000000000000000000039e2fb66102314ce7b64ce5ce3e5183bc94ad38000000000000000000000000ad525f341368aa80093672278234ad364efcaf0a00000000000000000000000093ee65a6b5f7e87b878abed72cb025e9b19679fe00000000000000000000000000000000000000000000000000000000000056b9000000000000000000000000000000000000000000000000000000000000000000000000000000000000000000000000000000000000000000000000000000000000000000000000000000000000000000000000000000000de0b6b3a76400000000000000000000000000000000000000000000000000000000000000000000"
        },
        {
          "transactionType": "CREATE",
          "address": "0x886354e413507cd568b309cfa9c42688db91af3e",
          "initCode": "0x3d602d80600a3d3981f3363d3d373d3d3d363d7387275b34b6c55ee722e66751fe4590f5c2aca82c5af43d82803e903d91602b57fd5bf3"
        }
      ],
      "isFixedGasLimit": false
    }
  ],
  "receipts": [
    {
      "status": "0x1",
      "cumulativeGasUsed": "0x5a870",
      "logs": [
        {
          "address": "0xcdcbbbe6608eac3fd8e311bb81038632f01133f9",
          "topics": [
            "0xb3eacd0e351fafdfefdec84e1cd19679b38dbcd63ea7c2c24da17fd2bc3b3c0e",
            "0x000000000000000000000000886354e413507cd568b309cfa9c42688db91af3e"
          ],
          "data": "0x",
          "blockHash": "0xcfa61aa423c5abcf8e7295c97a72c6aecbab1187f6401fb994d19ee29a2a6fea",
          "blockNumber": "0x3f2f6b",
          "transactionHash": "0x762251ab24b3b9c816fca5db009232f4f807848420a15c424d212010df47b051",
          "transactionIndex": "0x0",
          "logIndex": "0x0",
          "removed": false
        },
        {
          "address": "0x886354e413507cd568b309cfa9c42688db91af3e",
          "topics": [
            "0x077847d1fadf50041a730385b3d6b2de1cdeb5e078cb933fb091003e7f10e07a"
          ],
          "data": "0x000000000000000000000000f2e1627293ba4e0f60e52c8fbe4c5541d3b24c65",
          "blockHash": "0xcfa61aa423c5abcf8e7295c97a72c6aecbab1187f6401fb994d19ee29a2a6fea",
          "blockNumber": "0x3f2f6b",
          "transactionHash": "0x762251ab24b3b9c816fca5db009232f4f807848420a15c424d212010df47b051",
          "transactionIndex": "0x0",
          "logIndex": "0x1",
          "removed": false
        },
        {
          "address": "0x886354e413507cd568b309cfa9c42688db91af3e",
          "topics": [
            "0xc7f505b2f371ae2175ee4913f4499e1f2633a7b5936321eed1cdaeb6115181d2"
          ],
          "data": "0x0000000000000000000000000000000000000000000000000000000000000001",
          "blockHash": "0xcfa61aa423c5abcf8e7295c97a72c6aecbab1187f6401fb994d19ee29a2a6fea",
          "blockNumber": "0x3f2f6b",
          "transactionHash": "0x762251ab24b3b9c816fca5db009232f4f807848420a15c424d212010df47b051",
          "transactionIndex": "0x0",
          "logIndex": "0x2",
          "removed": false
        }
      ],
      "logsBloom": "0x00000000000000100100000000000000000000000000000000000000000000000000000000000000000000000002000000000000000000000000000000000000000000000000000000000000800000000000000000000000000000000000000008000000080000000000000000001080000000000000000000001000000000000000000000000200000800000000000000000000000080000000000000000000000000000200000000000000000000000000000000000000000000000000000000000000000000000000000000000000040000001004000020000200000000000000000000000000000000000000000000000000000000000000000000000000",
      "type": "0x2",
      "transactionHash": "0x762251ab24b3b9c816fca5db009232f4f807848420a15c424d212010df47b051",
      "transactionIndex": "0x0",
      "blockHash": "0xcfa61aa423c5abcf8e7295c97a72c6aecbab1187f6401fb994d19ee29a2a6fea",
      "blockNumber": "0x3f2f6b",
      "gasUsed": "0x5a870",
      "effectiveGasPrice": "0x18fd9add80",
      "from": "0x6d228fa4dad2163056a48fc2186d716f5c65e89a",
      "to": "0xcdcbbbe6608eac3fd8e311bb81038632f01133f9",
      "contractAddress": null
    }
  ],
  "libraries": [],
  "pending": [],
  "returns": {
    "oracle": {
      "internal_type": "contract ChainlinkV3Oracle",
      "value": "0x886354E413507cD568B309CFA9C42688db91AF3e"
    }
  },
  "timestamp": 1737027758,
  "chain": 146,
  "commit": "58bff3f8"
}