{
  "transactions": [
    {
      "hash": "0xc210f7c5e611147b4d28cd7c9909b1a15aa13f5be6246a7037dfbf2d71042add",
      "transactionType": "CALL",
      "contractName": null,
      "contractAddress": "0x17b0fd3eb9cfbda5b46a0c896e28b3f0c5a7f61d",
      "function": "create((address,address,address,uint32,address,uint32,uint256,uint256,bool))",
      "arguments": [
        "(0xd3DCe716f3eF535C5Ff8d041c1A41C3bd89b97aE, 0xad525F341368AA80093672278234ad364EFcAf0A, 0xb81131B6368b3F0a83af09dB4E39Ac23DA96C2Db, 22001, 0x55bCa887199d5520B3Ce285D41e6dC10C08716C9, 87001, 10000, 0, false)"
      ],
      "transaction": {
        "from": "0x6d228fa4dad2163056a48fc2186d716f5c65e89a",
        "to": "0x17b0fd3eb9cfbda5b46a0c896e28b3f0c5a7f61d",
        "gas": "0x76219",
        "value": "0x0",
        "input": "0xfe58f4b9000000000000000000000000d3dce716f3ef535c5ff8d041c1a41c3bd89b97ae000000000000000000000000ad525f341368aa80093672278234ad364efcaf0a000000000000000000000000b81131b6368b3f0a83af09db4e39ac23da96c2db00000000000000000000000000000000000000000000000000000000000055f100000000000000000000000055bca887199d5520b3ce285d41e6dc10c08716c900000000000000000000000000000000000000000000000000000000000153d9000000000000000000000000000000000000000000000000000000000000271000000000000000000000000000000000000000000000000000000000000000000000000000000000000000000000000000000000000000000000000000000000",
        "nonce": "0x92",
        "chainId": "0x92"
      },
      "additionalContracts": [
        {
          "transactionType": "CREATE",
          "address": "0xd7b72d07fb20d5ddbe3c6ef8d4e4eeb572fc7de8",
          "initCode": "0x6101c0604052348015610010575f5ffd5b506040516104fd3803806104fd83398101604081905261002f9161011d565b80516020820151606083015160c08085015160e08087015160a09283529092526001600160a01b0394851690915291831661010090815263ffffffff918216608090815260408601518516610120528501805185166101405292850151909116610160529051909116151561018052015115156101a0526101c6565b60405161012081016001600160401b03811182821017156100da57634e487b7160e01b5f52604160045260245ffd5b60405290565b80516001600160a01b03811681146100f6575f5ffd5b919050565b805163ffffffff811681146100f6575f5ffd5b805180151581146100f6575f5ffd5b5f61012082840312801561012f575f5ffd5b506101386100ab565b610141836100e0565b815261014f602084016100e0565b6020820152610160604084016100e0565b6040820152610171606084016100fb565b6060820152610182608084016100e0565b608082015261019360a084016100fb565b60a082015260c0838101519082015260e080840151908201526101b9610100840161010e565b6101008201529392505050565b60805160a05160c05160e05161010051610120516101405161016051610180516101a0516102cd6102305f395f61019e01525f61017501525f60b401525f606701525f604201525f61014e01525f61012601525f61010001525f60da01525f608f01526102cd5ff3fe608060405234801561000f575f5ffd5b5060043610610029575f3560e01c8063c3f909d41461002d575b5f5ffd5b60408051610140810182526001600160a01b037f0000000000000000000000000000000000000000000000000000000000000000811682527f0000000000000000000000000000000000000000000000000000000000000000811660208301527f0000000000000000000000000000000000000000000000000000000000000000828401527f000000000000000000000000000000000000000000000000000000000000000060608301527f000000000000000000000000000000000000000000000000000000000000000060808301527f000000000000000000000000000000000000000000000000000000000000000060a08301527f0000000000000000000000000000000000000000000000000000000000000000811660c08301527f00000000000000000000000000000000000000000000000000000000000000001660e08201527f000000000000000000000000000000000000000000000000000000000000000015156101008201527f0000000000000000000000000000000000000000000000000000000000000000151561012082015290516101d191906101da565b60405180910390f35b81516001600160a01b031681526101408101602083015161020660208401826001600160a01b03169052565b5060408301516040830152606083015160608301526080830151608083015260a083015160a083015260c083015161024960c08401826001600160a01b03169052565b5060e083015161026460e08401826001600160a01b03169052565b5061010083015161027a61010084018215159052565b5061012083015161029061012084018215159052565b509291505056fea2646970667358221220366e50c3c111297f52ef99b14992a476def50e09f375a143657a8c4f22cf051264736f6c634300081c0033000000000000000000000000d3dce716f3ef535c5ff8d041c1a41c3bd89b97ae000000000000000000000000ad525f341368aa80093672278234ad364efcaf0a000000000000000000000000b81131b6368b3f0a83af09db4e39ac23da96c2db00000000000000000000000000000000000000000000000000000000000055f100000000000000000000000055bca887199d5520b3ce285d41e6dc10c08716c900000000000000000000000000000000000000000000000000000000000153d9000000000000000000000000000000000000000000000000000000000000271000000000000000000000000000000000000000000000000000000000000000000000000000000000000000000000000000000000000000000000000000000000"
        },
        {
          "transactionType": "CREATE",
          "address": "0x06cb64298676bec4e6726cf557262b534a4b6666",
          "initCode": "0x3d602d80600a3d3981f3363d3d373d3d3d363d73be86dfbfb64f933d508e32908a871cfc0cb9e2e35af43d82803e903d91602b57fd5bf3"
        }
      ],
      "isFixedGasLimit": false
    }
  ],
  "receipts": [
    {
      "status": "0x1",
      "cumulativeGasUsed": "0x92062",
      "logs": [
        {
          "address": "0x17b0fd3eb9cfbda5b46a0c896e28b3f0c5a7f61d",
          "topics": [
            "0xb3eacd0e351fafdfefdec84e1cd19679b38dbcd63ea7c2c24da17fd2bc3b3c0e",
            "0x00000000000000000000000006cb64298676bec4e6726cf557262b534a4b6666"
          ],
          "data": "0x",
          "blockHash": "0x457293fb3b64e6ef0459c5560dc5ab3b30a00396d41d933035d7434149596b3c",
          "blockNumber": "0x4e49b2",
          "transactionHash": "0xc210f7c5e611147b4d28cd7c9909b1a15aa13f5be6246a7037dfbf2d71042add",
          "transactionIndex": "0x2",
          "logIndex": "0x8",
          "removed": false
        },
        {
          "address": "0x06cb64298676bec4e6726cf557262b534a4b6666",
          "topics": [
            "0x077847d1fadf50041a730385b3d6b2de1cdeb5e078cb933fb091003e7f10e07a"
          ],
          "data": "0x000000000000000000000000d7b72d07fb20d5ddbe3c6ef8d4e4eeb572fc7de8",
          "blockHash": "0x457293fb3b64e6ef0459c5560dc5ab3b30a00396d41d933035d7434149596b3c",
          "blockNumber": "0x4e49b2",
          "transactionHash": "0xc210f7c5e611147b4d28cd7c9909b1a15aa13f5be6246a7037dfbf2d71042add",
          "transactionIndex": "0x2",
          "logIndex": "0x9",
          "removed": false
        },
        {
          "address": "0x06cb64298676bec4e6726cf557262b534a4b6666",
          "topics": [
            "0xc7f505b2f371ae2175ee4913f4499e1f2633a7b5936321eed1cdaeb6115181d2"
          ],
          "data": "0x0000000000000000000000000000000000000000000000000000000000000001",
          "blockHash": "0x457293fb3b64e6ef0459c5560dc5ab3b30a00396d41d933035d7434149596b3c",
          "blockNumber": "0x4e49b2",
          "transactionHash": "0xc210f7c5e611147b4d28cd7c9909b1a15aa13f5be6246a7037dfbf2d71042add",
          "transactionIndex": "0x2",
          "logIndex": "0xa",
          "removed": false
        }
      ],
      "logsBloom": "0x00000000000000100100000080000000000000000000000000000000000000000000000000000000000000000000000000000000000000000000000000000000000000000000000000000000800000000000000000000000000000000000000008000000000000000000000000001000000000000000000000000000400000000000000000000000000800000000000000000200008080000000000000000000000000000008000000010000000000000000000000000000000000000000200000000000000000000000000000000000040000000004000000000000000000000000800000000000000000000000000000000000000000000000000000002000",
      "type": "0x2",
      "transactionHash": "0xc210f7c5e611147b4d28cd7c9909b1a15aa13f5be6246a7037dfbf2d71042add",
      "transactionIndex": "0x2",
      "blockHash": "0x457293fb3b64e6ef0459c5560dc5ab3b30a00396d41d933035d7434149596b3c",
      "blockNumber": "0x4e49b2",
      "gasUsed": "0x58c91",
      "effectiveGasPrice": "0xba43b7401",
      "from": "0x6d228fa4dad2163056a48fc2186d716f5c65e89a",
      "to": "0x17b0fd3eb9cfbda5b46a0c896e28b3f0c5a7f61d",
      "contractAddress": null
    }
  ],
  "libraries": [],
  "pending": [],
  "returns": {
    "oracle": {
      "internal_type": "contract ChainlinkV3Oracle",
      "value": "0x06CB64298676bec4E6726CF557262B534A4b6666"
    }
  },
  "timestamp": 1737641385,
  "chain": 146,
  "commit": "a08c0439"
}