{
  "transactions": [
    {
      "hash": "0x35ee5760c24a33669de267de4ee2023ae05197a86ab2d4036380683df7182a2d",
      "transactionType": "CALL",
      "contractName": null,
      "contractAddress": "0x653b957dac238a918c4b7dda798ae09920355edc",
      "function": "create((address,address,address,uint32,address,uint32,uint256,uint256))",
      "arguments": [
        "(0x541FD749419CA806a8bc7da8ac23D346f2dF8B77, 0xad525F341368AA80093672278234ad364EFcAf0A, 0x4aF6b78d92432D32E3a635E824d3A541866f7a78, 22201, 0x0000000000000000000000000000000000000000, 0, 100000000, 0)"
      ],
      "transaction": {
        "from": "0x6d228fa4dad2163056a48fc2186d716f5c65e89a",
        "to": "0x653b957dac238a918c4b7dda798ae09920355edc",
        "gas": "0x9cb9",
        "value": "0x0",
        "input": "0x4b4de5ff000000000000000000000000541fd749419ca806a8bc7da8ac23d346f2df8b77000000000000000000000000ad525f341368aa80093672278234ad364efcaf0a0000000000000000000000004af6b78d92432d32e3a635e824d3a541866f7a7800000000000000000000000000000000000000000000000000000000000056b9000000000000000000000000000000000000000000000000000000000000000000000000000000000000000000000000000000000000000000000000000000000000000000000000000000000000000000000000000000000000000005f5e1000000000000000000000000000000000000000000000000000000000000000000",
        "nonce": "0x7f",
        "chainId": "0x92"
      },
      "additionalContracts": [],
      "isFixedGasLimit": false
    }
  ],
  "receipts": [
    {
      "status": "0x1",
      "cumulativeGasUsed": "0x29d58",
      "logs": [],
      "logsBloom": "0x00000000000000000000000000000000000000000000000000000000000000000000000000000000000000000000000000000000000000000000000000000000000000000000000000000000000000000000000000000000000000000000000000000000000000000000000000000000000000000000000000000000000000000000000000000000000000000000000000000000000000000000000000000000000000000000000000000000000000000000000000000000000000000000000000000000000000000000000000000000000000000000000000000000000000000000000000000000000000000000000000000000000000000000000000000000",
      "type": "0x2",
      "transactionHash": "0x35ee5760c24a33669de267de4ee2023ae05197a86ab2d4036380683df7182a2d",
      "transactionIndex": "0x1",
      "blockHash": "0x31a51f6092bcff2fc41854460641fa4767bb861a144f3ff4a0126f9b54b778f5",
      "blockNumber": "0x47fce0",
      "gasUsed": "0x75cb",
      "effectiveGasPrice": "0xba43b7401",
      "from": "0x6d228fa4dad2163056a48fc2186d716f5c65e89a",
      "to": "0x653b957dac238a918c4b7dda798ae09920355edc",
      "contractAddress": null
    }
  ],
  "libraries": [],
  "pending": [],
  "returns": {
    "oracle": {
      "internal_type": "contract ChainlinkV3Oracle",
      "value": "0x781e40467A6DF17c5C1dA6267294E727A64c2b72"
    }
  },
  "timestamp": 1737398397,
  "chain": 146,
  "commit": "6e8f07a2"
}