{
  "transactions": [
    {
      "hash": "0xb7b31f6eeb2c70d95473de700841a324df65e9ea89891671248933fefff3c1cd",
      "transactionType": "CALL",
      "contractName": null,
      "contractAddress": "0x653b957dac238a918c4b7dda798ae09920355edc",
      "function": "create((address,address,address,uint32,address,uint32,uint256,uint256))",
      "arguments": [
        "(0x29219dd400f2Bf60E5a23d13Be72B486D4038894, 0xad525F341368AA80093672278234ad364EFcAf0A, 0x55bCa887199d5520B3Ce285D41e6dC10C08716C9, 87001, 0x0000000000000000000000000000000000000000, 0, 0, 10000)"
      ],
      "transaction": {
        "from": "0x6d228fa4dad2163056a48fc2186d716f5c65e89a",
        "to": "0x653b957dac238a918c4b7dda798ae09920355edc",
        "gas": "0x6ebf8",
        "value": "0x0",
        "input": "0x4b4de5ff00000000000000000000000029219dd400f2bf60e5a23d13be72b486d4038894000000000000000000000000ad525f341368aa80093672278234ad364efcaf0a00000000000000000000000055bca887199d5520b3ce285d41e6dc10c08716c900000000000000000000000000000000000000000000000000000000000153d90000000000000000000000000000000000000000000000000000000000000000000000000000000000000000000000000000000000000000000000000000000000000000000000000000000000000000000000000000000000000000000000000000000000000000000000000000000000000000000000000000000000002710",
        "nonce": "0x67",
        "chainId": "0x92"
      },
      "additionalContracts": [
        {
          "transactionType": "CREATE",
          "address": "0x90fc2111a3df751adc269552cd6a2449492b7cff",
          "initCode": "0x6101a0604052348015610010575f5ffd5b5060405161047f38038061047f83398101604081905261002f916100ce565b80516020820151606083015160c08085015160e08087015160a09283529092526001600160a01b039485169091529183166101005263ffffffff9081166080908152604085015184166101205284018051841661014052919093015190921661016052905116151561018052610190565b80516001600160a01b03811681146100b6575f5ffd5b919050565b805163ffffffff811681146100b6575f5ffd5b5f6101008284031280156100e0575f5ffd5b5060405161010081016001600160401b038111828210171561011057634e487b7160e01b5f52604160045260245ffd5b60405261011c836100a0565b815261012a602084016100a0565b602082015261013b604084016100a0565b604082015261014c606084016100bb565b606082015261015d608084016100a0565b608082015261016e60a084016100bb565b60a082015260c0838101519082015260e0928301519281019290925250919050565b60805160a05160c05160e051610100516101205161014051610160516101805161028f6101f05f395f61017501525f60b401525f606701525f604201525f61014e01525f61012601525f61010001525f60da01525f608f015261028f5ff3fe608060405234801561000f575f5ffd5b5060043610610029575f3560e01c8063c3f909d41461002d575b5f5ffd5b60408051610120810182526001600160a01b037f0000000000000000000000000000000000000000000000000000000000000000811682527f0000000000000000000000000000000000000000000000000000000000000000811660208301527f0000000000000000000000000000000000000000000000000000000000000000828401527f000000000000000000000000000000000000000000000000000000000000000060608301527f000000000000000000000000000000000000000000000000000000000000000060808301527f000000000000000000000000000000000000000000000000000000000000000060a08301527f0000000000000000000000000000000000000000000000000000000000000000811660c08301527f00000000000000000000000000000000000000000000000000000000000000001660e08201527f0000000000000000000000000000000000000000000000000000000000000000151561010082015290516101a891906101b1565b60405180910390f35b81516001600160a01b031681526020808301516101208301916101de908401826001600160a01b03169052565b5060408301516040830152606083015160608301526080830151608083015260a083015160a083015260c083015161022160c08401826001600160a01b03169052565b5060e083015161023c60e08401826001600160a01b03169052565b5061010083015161025261010084018215159052565b509291505056fea264697066735822122089de3ddacef594b155d1ee58186bf003e06893c4c6f27a37378d47c2b443f35864736f6c634300081c003300000000000000000000000029219dd400f2bf60e5a23d13be72b486d4038894000000000000000000000000ad525f341368aa80093672278234ad364efcaf0a00000000000000000000000055bca887199d5520b3ce285d41e6dc10c08716c900000000000000000000000000000000000000000000000000000000000153d90000000000000000000000000000000000000000000000000000000000000000000000000000000000000000000000000000000000000000000000000000000000000000000000000000000000000000000000000000000000000000000000000000000000000000000000000000000000000000000000000000000000002710"
        },
        {
          "transactionType": "CREATE",
          "address": "0x44bd4bfd2a361eaa7d905935cc59d8849639c77d",
          "initCode": "0x3d602d80600a3d3981f3363d3d373d3d3d363d739b2a312858043b918959f9a21ca89ec666a8afd35af43d82803e903d91602b57fd5bf3"
        }
      ],
      "isFixedGasLimit": false
    }
  ],
  "receipts": [
    {
      "status": "0x1",
      "cumulativeGasUsed": "0x533c8",
      "logs": [
        {
          "address": "0x653b957dac238a918c4b7dda798ae09920355edc",
          "topics": [
            "0xb3eacd0e351fafdfefdec84e1cd19679b38dbcd63ea7c2c24da17fd2bc3b3c0e",
            "0x00000000000000000000000044bd4bfd2a361eaa7d905935cc59d8849639c77d"
          ],
          "data": "0x",
          "blockHash": "0x7e97c0f360bad5393acc11afcea307a122698ee93e6ebaac4d099ba8f7e8c5e9",
          "blockNumber": "0x409b56",
          "transactionHash": "0xb7b31f6eeb2c70d95473de700841a324df65e9ea89891671248933fefff3c1cd",
          "transactionIndex": "0x0",
          "logIndex": "0x0",
          "removed": false
        },
        {
          "address": "0x44bd4bfd2a361eaa7d905935cc59d8849639c77d",
          "topics": [
            "0x077847d1fadf50041a730385b3d6b2de1cdeb5e078cb933fb091003e7f10e07a"
          ],
          "data": "0x00000000000000000000000090fc2111a3df751adc269552cd6a2449492b7cff",
          "blockHash": "0x7e97c0f360bad5393acc11afcea307a122698ee93e6ebaac4d099ba8f7e8c5e9",
          "blockNumber": "0x409b56",
          "transactionHash": "0xb7b31f6eeb2c70d95473de700841a324df65e9ea89891671248933fefff3c1cd",
          "transactionIndex": "0x0",
          "logIndex": "0x1",
          "removed": false
        },
        {
          "address": "0x44bd4bfd2a361eaa7d905935cc59d8849639c77d",
          "topics": [
            "0xc7f505b2f371ae2175ee4913f4499e1f2633a7b5936321eed1cdaeb6115181d2"
          ],
          "data": "0x0000000000000000000000000000000000000000000000000000000000000001",
          "blockHash": "0x7e97c0f360bad5393acc11afcea307a122698ee93e6ebaac4d099ba8f7e8c5e9",
          "blockNumber": "0x409b56",
          "transactionHash": "0xb7b31f6eeb2c70d95473de700841a324df65e9ea89891671248933fefff3c1cd",
          "transactionIndex": "0x0",
          "logIndex": "0x2",
          "removed": false
        }
      ],
      "logsBloom": "0x00000000000000104100000000000000000000000000000000000000000000000000000000000000000000000000000000000000000000400000000000000000000200000000000000000000800000000000000000000000000010000000000008000000000000000000000000001000000000000000000000000000000000000000000000000000000800000000000000000800000080000200000000000000000000000000004000000000000000000200000000000000000000000000000000000000000000000000000000000000040000000004000000000000000000000000000000000000000000000020000000000000000000000000000000000000",
      "type": "0x2",
      "transactionHash": "0xb7b31f6eeb2c70d95473de700841a324df65e9ea89891671248933fefff3c1cd",
      "transactionIndex": "0x0",
      "blockHash": "0x7e97c0f360bad5393acc11afcea307a122698ee93e6ebaac4d099ba8f7e8c5e9",
      "blockNumber": "0x409b56",
      "gasUsed": "0x533c8",
      "effectiveGasPrice": "0x174876e801",
      "from": "0x6d228fa4dad2163056a48fc2186d716f5c65e89a",
      "to": "0x653b957dac238a918c4b7dda798ae09920355edc",
      "contractAddress": null
    }
  ],
  "libraries": [],
  "pending": [],
  "returns": {
    "oracle": {
      "internal_type": "contract ChainlinkV3Oracle",
      "value": "0x44bd4BfD2a361EAa7D905935Cc59D8849639C77D"
    }
  },
  "timestamp": 1737093478,
  "chain": 146,
  "commit": "35853b22"
}