{
  "transactions": [
    {
      "hash": "0xe370fdb145f30b28e5e619a511af9aea3338b51933d9406fd3e3e0ddd7903979",
      "transactionType": "CALL",
      "contractName": null,
      "contractAddress": "0xca11bde05977b3631167028862be2a173976ca11",
      "function": "aggregate3((address,bool,bytes)[])",
      "arguments": [
        "[(0x160287E2D3fdCDE9E91317982fc1Cc01C1f94085, false, 0x476343ee), (0x4EF4dc9DEf84E3cc54D7A4Aa95877Fbd4aDD36C1, false, 0x476343ee), (0x7d9d91B85b0De3ab74007803a601Da8c1D277A3a, false, 0x476343ee), (0x5e81803bff86C7073661C47436c4C3092a922c9d, false, 0x476343ee), (0xd38d220b94e35e0EBc952437182F7f3244AF97A9, false, 0x476343ee), (0xf887B602a746f932f9BbCb6334D3407B7eec23Ce, false, 0x476343ee), (0xCE6aB1c71981e79Cd30052C521c162674251018a, false, 0x476343ee), (0xf797F9B0514aC73B0c7c9790A652DB4CC397B8D6, false, 0x476343ee), (0x73886a0D00dD9C0c201ec3cD85A407c6a629Bb03, false, 0x476343ee), (0xB347d92F98e9730cDBb0a20234dDf170f627BB60, false, 0x476343ee), (0x5CD6614d11C3dD84fb941E5BE2F5A454C88e32b6, false, 0x476343ee), (0xe54661e8db3b106D6D31C3A33CB4a9c57Ff62997, false, 0x476343ee), (0x1dE3bA67Da79A81Bc0c3922689c98550e4bd9bc2, false, 0x476343ee), (0x02AE6A64a0DC17ffFDC5722Ad8270a7B32Be44db, false, 0x476343ee), (0x9064a590751373440C8804F4F34AA6456ecF9cB4, false, 0x476343ee)]"
      ],
      "transaction": {
        "from": "0xaad2f138eb20fb60c34ac70624339ccbac2320fa",
        "to": "0xca11bde05977b3631167028862be2a173976ca11",
        "gas": "0x20b9c7",
        "value": "0x0",
        "input": "0x82ad56cb0000000000000000000000000000000000000000000000000000000000000020000000000000000000000000000000000000000000000000000000000000000f00000000000000000000000000000000000000000000000000000000000001e00000000000000000000000000000000000000000000000000000000000000280000000000000000000000000000000000000000000000000000000000000032000000000000000000000000000000000000000000000000000000000000003c00000000000000000000000000000000000000000000000000000000000000460000000000000000000000000000000000000000000000000000000000000050000000000000000000000000000000000000000000000000000000000000005a0000000000000000000000000000000000000000000000000000000000000064000000000000000000000000000000000000000000000000000000000000006e00000000000000000000000000000000000000000000000000000000000000780000000000000000000000000000000000000000000000000000000000000082000000000000000000000000000000000000000000000000000000000000008c000000000000000000000000000000000000000000000000000000000000009600000000000000000000000000000000000000000000000000000000000000a000000000000000000000000000000000000000000000000000000000000000aa0000000000000000000000000160287e2d3fdcde9e91317982fc1cc01c1f94085000000000000000000000000000000000000000000000000000000000000000000000000000000000000000000000000000000000000000000000000000000600000000000000000000000000000000000000000000000000000000000000004476343ee000000000000000000000000000000000000000000000000000000000000000000000000000000004ef4dc9def84e3cc54d7a4aa95877fbd4add36c1000000000000000000000000000000000000000000000000000000000000000000000000000000000000000000000000000000000000000000000000000000600000000000000000000000000000000000000000000000000000000000000004476343ee000000000000000000000000000000000000000000000000000000000000000000000000000000007d9d91b85b0de3ab74007803a601da8c1d277a3a000000000000000000000000000000000000000000000000000000000000000000000000000000000000000000000000000000000000000000000000000000600000000000000000000000000000000000000000000000000000000000000004476343ee000000000000000000000000000000000000000000000000000000000000000000000000000000005e81803bff86c7073661c47436c4c3092a922c9d000000000000000000000000000000000000000000000000000000000000000000000000000000000000000000000000000000000000000000000000000000600000000000000000000000000000000000000000000000000000000000000004476343ee00000000000000000000000000000000000000000000000000000000000000000000000000000000d38d220b94e35e0ebc952437182f7f3244af97a9000000000000000000000000000000000000000000000000000000000000000000000000000000000000000000000000000000000000000000000000000000600000000000000000000000000000000000000000000000000000000000000004476343ee00000000000000000000000000000000000000000000000000000000000000000000000000000000f887b602a746f932f9bbcb6334d3407b7eec23ce000000000000000000000000000000000000000000000000000000000000000000000000000000000000000000000000000000000000000000000000000000600000000000000000000000000000000000000000000000000000000000000004476343ee00000000000000000000000000000000000000000000000000000000000000000000000000000000ce6ab1c71981e79cd30052c521c162674251018a000000000000000000000000000000000000000000000000000000000000000000000000000000000000000000000000000000000000000000000000000000600000000000000000000000000000000000000000000000000000000000000004476343ee00000000000000000000000000000000000000000000000000000000000000000000000000000000f797f9b0514ac73b0c7c9790a652db4cc397b8d6000000000000000000000000000000000000000000000000000000000000000000000000000000000000000000000000000000000000000000000000000000600000000000000000000000000000000000000000000000000000000000000004476343ee0000000000000000000000000000000000000000000000000000000000000000000000000000000073886a0d00dd9c0c201ec3cd85a407c6a629bb03000000000000000000000000000000000000000000000000000000000000000000000000000000000000000000000000000000000000000000000000000000600000000000000000000000000000000000000000000000000000000000000004476343ee00000000000000000000000000000000000000000000000000000000000000000000000000000000b347d92f98e9730cdbb0a20234ddf170f627bb60000000000000000000000000000000000000000000000000000000000000000000000000000000000000000000000000000000000000000000000000000000600000000000000000000000000000000000000000000000000000000000000004476343ee000000000000000000000000000000000000000000000000000000000000000000000000000000005cd6614d11c3dd84fb941e5be2f5a454c88e32b6000000000000000000000000000000000000000000000000000000000000000000000000000000000000000000000000000000000000000000000000000000600000000000000000000000000000000000000000000000000000000000000004476343ee00000000000000000000000000000000000000000000000000000000000000000000000000000000e54661e8db3b106d6d31c3a33cb4a9c57ff62997000000000000000000000000000000000000000000000000000000000000000000000000000000000000000000000000000000000000000000000000000000600000000000000000000000000000000000000000000000000000000000000004476343ee000000000000000000000000000000000000000000000000000000000000000000000000000000001de3ba67da79a81bc0c3922689c98550e4bd9bc2000000000000000000000000000000000000000000000000000000000000000000000000000000000000000000000000000000000000000000000000000000600000000000000000000000000000000000000000000000000000000000000004476343ee0000000000000000000000000000000000000000000000000000000000000000000000000000000002ae6a64a0dc17fffdc5722ad8270a7b32be44db000000000000000000000000000000000000000000000000000000000000000000000000000000000000000000000000000000000000000000000000000000600000000000000000000000000000000000000000000000000000000000000004476343ee000000000000000000000000000000000000000000000000000000000000000000000000000000009064a590751373440c8804f4f34aa6456ecf9cb4000000000000000000000000000000000000000000000000000000000000000000000000000000000000000000000000000000000000000000000000000000600000000000000000000000000000000000000000000000000000000000000004476343ee00000000000000000000000000000000000000000000000000000000",
        "nonce": "0x0",
        "chainId": "0x1"
      },
      "additionalContracts": [],
      "isFixedGasLimit": false
    }
  ],
  "receipts": [
    {
      "status": "0x1",
      "cumulativeGasUsed": "0x855a6f",
      "logs": [
        {
          "address": "0x160287e2d3fdcde9e91317982fc1cc01c1f94085",
          "topics": [
            "0xd1fe0093c54116fe147366ec7de3cfa98e1e02e91d7ccb124241f6beae255b4c"
          ],
          "data": "0x000000000000000000000000000000000000000000000000115e75dd65ad790c",
          "blockHash": "0x48e7eed8b26b8b00a9fe6a5496292e29b00f01825e584c674e6fe0ff8efb063c",
          "blockNumber": "0x1632a0c",
          "blockTimestamp": "0x68b70057",
          "transactionHash": "0xe370fdb145f30b28e5e619a511af9aea3338b51933d9406fd3e3e0ddd7903979",
          "transactionIndex": "0x3b",
          "logIndex": "0xcf",
          "removed": false
        },
        {
          "address": "0xc02aaa39b223fe8d0a0e5c4f27ead9083c756cc2",
          "topics": [
            "0xddf252ad1be2c89b69c2b068fc378daa952ba7f163c4a11628f55a4df523b3ef",
            "0x000000000000000000000000160287e2d3fdcde9e91317982fc1cc01c1f94085",
            "0x000000000000000000000000e8e8041cb5e3158a0829a19e014ca1cf91098554"
          ],
          "data": "0x0000000000000000000000000000000000000000000000000000000000000000",
          "blockHash": "0x48e7eed8b26b8b00a9fe6a5496292e29b00f01825e584c674e6fe0ff8efb063c",
          "blockNumber": "0x1632a0c",
          "blockTimestamp": "0x68b70057",
          "transactionHash": "0xe370fdb145f30b28e5e619a511af9aea3338b51933d9406fd3e3e0ddd7903979",
          "transactionIndex": "0x3b",
          "logIndex": "0xd0",
          "removed": false
        },
        {
          "address": "0xc02aaa39b223fe8d0a0e5c4f27ead9083c756cc2",
          "topics": [
            "0xddf252ad1be2c89b69c2b068fc378daa952ba7f163c4a11628f55a4df523b3ef",
            "0x000000000000000000000000160287e2d3fdcde9e91317982fc1cc01c1f94085",
            "0x000000000000000000000000e8e8041cb5e3158a0829a19e014ca1cf91098554"
          ],
          "data": "0x00000000000000000000000000000000000000000000000012370aaa26437bd6",
          "blockHash": "0x48e7eed8b26b8b00a9fe6a5496292e29b00f01825e584c674e6fe0ff8efb063c",
          "blockNumber": "0x1632a0c",
          "blockTimestamp": "0x68b70057",
          "transactionHash": "0xe370fdb145f30b28e5e619a511af9aea3338b51933d9406fd3e3e0ddd7903979",
          "transactionIndex": "0x3b",
          "logIndex": "0xd1",
          "removed": false
        },
        {
          "address": "0x160287e2d3fdcde9e91317982fc1cc01c1f94085",
          "topics": [
            "0x58ce9a502017c1e4e0084fcfd7067e2642dfe9e11757d8017b9cf16d729967c7"
          ],
          "data": "0x00000000000000000000000000000000000000000000000012370aaa26437bd600000000000000000000000000000000000000000000000000000000000000000000000000000000000000000000000000000000000000000000000000000000",
          "blockHash": "0x48e7eed8b26b8b00a9fe6a5496292e29b00f01825e584c674e6fe0ff8efb063c",
          "blockNumber": "0x1632a0c",
          "blockTimestamp": "0x68b70057",
          "transactionHash": "0xe370fdb145f30b28e5e619a511af9aea3338b51933d9406fd3e3e0ddd7903979",
          "transactionIndex": "0x3b",
          "logIndex": "0xd2",
          "removed": false
        },
        {
          "address": "0x4ef4dc9def84e3cc54d7a4aa95877fbd4add36c1",
          "topics": [
            "0xd1fe0093c54116fe147366ec7de3cfa98e1e02e91d7ccb124241f6beae255b4c"
          ],
          "data": "0x00000000000000000000000000000000000000000000000000000000098c10b2",
          "blockHash": "0x48e7eed8b26b8b00a9fe6a5496292e29b00f01825e584c674e6fe0ff8efb063c",
          "blockNumber": "0x1632a0c",
          "blockTimestamp": "0x68b70057",
          "transactionHash": "0xe370fdb145f30b28e5e619a511af9aea3338b51933d9406fd3e3e0ddd7903979",
          "transactionIndex": "0x3b",
          "logIndex": "0xd3",
          "removed": false
        },
        {
          "address": "0xa0b86991c6218b36c1d19d4a2e9eb0ce3606eb48",
          "topics": [
            "0xddf252ad1be2c89b69c2b068fc378daa952ba7f163c4a11628f55a4df523b3ef",
            "0x0000000000000000000000004ef4dc9def84e3cc54d7a4aa95877fbd4add36c1",
            "0x000000000000000000000000e8e8041cb5e3158a0829a19e014ca1cf91098554"
          ],
          "data": "0x0000000000000000000000000000000000000000000000000000000000000000",
          "blockHash": "0x48e7eed8b26b8b00a9fe6a5496292e29b00f01825e584c674e6fe0ff8efb063c",
          "blockNumber": "0x1632a0c",
          "blockTimestamp": "0x68b70057",
          "transactionHash": "0xe370fdb145f30b28e5e619a511af9aea3338b51933d9406fd3e3e0ddd7903979",
          "transactionIndex": "0x3b",
          "logIndex": "0xd4",
          "removed": false
        },
        {
          "address": "0xa0b86991c6218b36c1d19d4a2e9eb0ce3606eb48",
          "topics": [
            "0xddf252ad1be2c89b69c2b068fc378daa952ba7f163c4a11628f55a4df523b3ef",
            "0x0000000000000000000000004ef4dc9def84e3cc54d7a4aa95877fbd4add36c1",
            "0x000000000000000000000000e8e8041cb5e3158a0829a19e014ca1cf91098554"
          ],
          "data": "0x00000000000000000000000000000000000000000000000000000000105e0576",
          "blockHash": "0x48e7eed8b26b8b00a9fe6a5496292e29b00f01825e584c674e6fe0ff8efb063c",
          "blockNumber": "0x1632a0c",
          "blockTimestamp": "0x68b70057",
          "transactionHash": "0xe370fdb145f30b28e5e619a511af9aea3338b51933d9406fd3e3e0ddd7903979",
          "transactionIndex": "0x3b",
          "logIndex": "0xd5",
          "removed": false
        },
        {
          "address": "0x4ef4dc9def84e3cc54d7a4aa95877fbd4add36c1",
          "topics": [
            "0x58ce9a502017c1e4e0084fcfd7067e2642dfe9e11757d8017b9cf16d729967c7"
          ],
          "data": "0x00000000000000000000000000000000000000000000000000000000105e057600000000000000000000000000000000000000000000000000000000000000000000000000000000000000000000000000000000000000000000000000000000",
          "blockHash": "0x48e7eed8b26b8b00a9fe6a5496292e29b00f01825e584c674e6fe0ff8efb063c",
          "blockNumber": "0x1632a0c",
          "blockTimestamp": "0x68b70057",
          "transactionHash": "0xe370fdb145f30b28e5e619a511af9aea3338b51933d9406fd3e3e0ddd7903979",
          "transactionIndex": "0x3b",
          "logIndex": "0xd6",
          "removed": false
        },
        {
          "address": "0x7d9d91b85b0de3ab74007803a601da8c1d277a3a",
          "topics": [
            "0xd1fe0093c54116fe147366ec7de3cfa98e1e02e91d7ccb124241f6beae255b4c"
          ],
          "data": "0x000000000000000000000000000000000000000000000000000000000e57756e",
          "blockHash": "0x48e7eed8b26b8b00a9fe6a5496292e29b00f01825e584c674e6fe0ff8efb063c",
          "blockNumber": "0x1632a0c",
          "blockTimestamp": "0x68b70057",
          "transactionHash": "0xe370fdb145f30b28e5e619a511af9aea3338b51933d9406fd3e3e0ddd7903979",
          "transactionIndex": "0x3b",
          "logIndex": "0xd7",
          "removed": false
        },
        {
          "address": "0xa0b86991c6218b36c1d19d4a2e9eb0ce3606eb48",
          "topics": [
            "0xddf252ad1be2c89b69c2b068fc378daa952ba7f163c4a11628f55a4df523b3ef",
            "0x0000000000000000000000007d9d91b85b0de3ab74007803a601da8c1d277a3a",
            "0x000000000000000000000000e8e8041cb5e3158a0829a19e014ca1cf91098554"
          ],
          "data": "0x0000000000000000000000000000000000000000000000000000000000000000",
          "blockHash": "0x48e7eed8b26b8b00a9fe6a5496292e29b00f01825e584c674e6fe0ff8efb063c",
          "blockNumber": "0x1632a0c",
          "blockTimestamp": "0x68b70057",
          "transactionHash": "0xe370fdb145f30b28e5e619a511af9aea3338b51933d9406fd3e3e0ddd7903979",
          "transactionIndex": "0x3b",
          "logIndex": "0xd8",
          "removed": false
        },
        {
          "address": "0xa0b86991c6218b36c1d19d4a2e9eb0ce3606eb48",
          "topics": [
            "0xddf252ad1be2c89b69c2b068fc378daa952ba7f163c4a11628f55a4df523b3ef",
            "0x0000000000000000000000007d9d91b85b0de3ab74007803a601da8c1d277a3a",
            "0x000000000000000000000000e8e8041cb5e3158a0829a19e014ca1cf91098554"
          ],
          "data": "0x0000000000000000000000000000000000000000000000000000000029499dcb",
          "blockHash": "0x48e7eed8b26b8b00a9fe6a5496292e29b00f01825e584c674e6fe0ff8efb063c",
          "blockNumber": "0x1632a0c",
          "blockTimestamp": "0x68b70057",
          "transactionHash": "0xe370fdb145f30b28e5e619a511af9aea3338b51933d9406fd3e3e0ddd7903979",
          "transactionIndex": "0x3b",
          "logIndex": "0xd9",
          "removed": false
        },
        {
          "address": "0x7d9d91b85b0de3ab74007803a601da8c1d277a3a",
          "topics": [
            "0x58ce9a502017c1e4e0084fcfd7067e2642dfe9e11757d8017b9cf16d729967c7"
          ],
          "data": "0x0000000000000000000000000000000000000000000000000000000029499dcb00000000000000000000000000000000000000000000000000000000000000000000000000000000000000000000000000000000000000000000000000000000",
          "blockHash": "0x48e7eed8b26b8b00a9fe6a5496292e29b00f01825e584c674e6fe0ff8efb063c",
          "blockNumber": "0x1632a0c",
          "blockTimestamp": "0x68b70057",
          "transactionHash": "0xe370fdb145f30b28e5e619a511af9aea3338b51933d9406fd3e3e0ddd7903979",
          "transactionIndex": "0x3b",
          "logIndex": "0xda",
          "removed": false
        },
        {
          "address": "0x5e81803bff86c7073661c47436c4c3092a922c9d",
          "topics": [
            "0xd1fe0093c54116fe147366ec7de3cfa98e1e02e91d7ccb124241f6beae255b4c"
          ],
          "data": "0x00000000000000000000000000000000000000000000000000000000002c823f",
          "blockHash": "0x48e7eed8b26b8b00a9fe6a5496292e29b00f01825e584c674e6fe0ff8efb063c",
          "blockNumber": "0x1632a0c",
          "blockTimestamp": "0x68b70057",
          "transactionHash": "0xe370fdb145f30b28e5e619a511af9aea3338b51933d9406fd3e3e0ddd7903979",
          "transactionIndex": "0x3b",
          "logIndex": "0xdb",
          "removed": false
        },
        {
          "address": "0xa0b86991c6218b36c1d19d4a2e9eb0ce3606eb48",
          "topics": [
            "0xddf252ad1be2c89b69c2b068fc378daa952ba7f163c4a11628f55a4df523b3ef",
            "0x0000000000000000000000005e81803bff86c7073661c47436c4c3092a922c9d",
            "0x000000000000000000000000e8e8041cb5e3158a0829a19e014ca1cf91098554"
          ],
          "data": "0x0000000000000000000000000000000000000000000000000000000000000000",
          "blockHash": "0x48e7eed8b26b8b00a9fe6a5496292e29b00f01825e584c674e6fe0ff8efb063c",
          "blockNumber": "0x1632a0c",
          "blockTimestamp": "0x68b70057",
          "transactionHash": "0xe370fdb145f30b28e5e619a511af9aea3338b51933d9406fd3e3e0ddd7903979",
          "transactionIndex": "0x3b",
          "logIndex": "0xdc",
          "removed": false
        },
        {
          "address": "0xa0b86991c6218b36c1d19d4a2e9eb0ce3606eb48",
          "topics": [
            "0xddf252ad1be2c89b69c2b068fc378daa952ba7f163c4a11628f55a4df523b3ef",
            "0x0000000000000000000000005e81803bff86c7073661c47436c4c3092a922c9d",
            "0x000000000000000000000000e8e8041cb5e3158a0829a19e014ca1cf91098554"
          ],
          "data": "0x00000000000000000000000000000000000000000000000000000000125b41a8",
          "blockHash": "0x48e7eed8b26b8b00a9fe6a5496292e29b00f01825e584c674e6fe0ff8efb063c",
          "blockNumber": "0x1632a0c",
          "blockTimestamp": "0x68b70057",
          "transactionHash": "0xe370fdb145f30b28e5e619a511af9aea3338b51933d9406fd3e3e0ddd7903979",
          "transactionIndex": "0x3b",
          "logIndex": "0xdd",
          "removed": false
        },
        {
          "address": "0x5e81803bff86c7073661c47436c4c3092a922c9d",
          "topics": [
            "0x58ce9a502017c1e4e0084fcfd7067e2642dfe9e11757d8017b9cf16d729967c7"
          ],
          "data": "0x00000000000000000000000000000000000000000000000000000000125b41a800000000000000000000000000000000000000000000000000000000000000000000000000000000000000000000000000000000000000000000000000000000",
          "blockHash": "0x48e7eed8b26b8b00a9fe6a5496292e29b00f01825e584c674e6fe0ff8efb063c",
          "blockNumber": "0x1632a0c",
          "blockTimestamp": "0x68b70057",
          "transactionHash": "0xe370fdb145f30b28e5e619a511af9aea3338b51933d9406fd3e3e0ddd7903979",
          "transactionIndex": "0x3b",
          "logIndex": "0xde",
          "removed": false
        },
        {
          "address": "0xa0b86991c6218b36c1d19d4a2e9eb0ce3606eb48",
          "topics": [
            "0xddf252ad1be2c89b69c2b068fc378daa952ba7f163c4a11628f55a4df523b3ef",
            "0x000000000000000000000000d38d220b94e35e0ebc952437182f7f3244af97a9",
            "0x000000000000000000000000e8e8041cb5e3158a0829a19e014ca1cf91098554"
          ],
          "data": "0x0000000000000000000000000000000000000000000000000000000000000000",
          "blockHash": "0x48e7eed8b26b8b00a9fe6a5496292e29b00f01825e584c674e6fe0ff8efb063c",
          "blockNumber": "0x1632a0c",
          "blockTimestamp": "0x68b70057",
          "transactionHash": "0xe370fdb145f30b28e5e619a511af9aea3338b51933d9406fd3e3e0ddd7903979",
          "transactionIndex": "0x3b",
          "logIndex": "0xdf",
          "removed": false
        },
        {
          "address": "0xa0b86991c6218b36c1d19d4a2e9eb0ce3606eb48",
          "topics": [
            "0xddf252ad1be2c89b69c2b068fc378daa952ba7f163c4a11628f55a4df523b3ef",
            "0x000000000000000000000000d38d220b94e35e0ebc952437182f7f3244af97a9",
            "0x000000000000000000000000e8e8041cb5e3158a0829a19e014ca1cf91098554"
          ],
          "data": "0x0000000000000000000000000000000000000000000000000000000008947b87",
          "blockHash": "0x48e7eed8b26b8b00a9fe6a5496292e29b00f01825e584c674e6fe0ff8efb063c",
          "blockNumber": "0x1632a0c",
          "blockTimestamp": "0x68b70057",
          "transactionHash": "0xe370fdb145f30b28e5e619a511af9aea3338b51933d9406fd3e3e0ddd7903979",
          "transactionIndex": "0x3b",
          "logIndex": "0xe0",
          "removed": false
        },
        {
          "address": "0xd38d220b94e35e0ebc952437182f7f3244af97a9",
          "topics": [
            "0x58ce9a502017c1e4e0084fcfd7067e2642dfe9e11757d8017b9cf16d729967c7"
          ],
          "data": "0x0000000000000000000000000000000000000000000000000000000008947b8700000000000000000000000000000000000000000000000000000000000000000000000000000000000000000000000000000000000000000000000000000000",
          "blockHash": "0x48e7eed8b26b8b00a9fe6a5496292e29b00f01825e584c674e6fe0ff8efb063c",
          "blockNumber": "0x1632a0c",
          "blockTimestamp": "0x68b70057",
          "transactionHash": "0xe370fdb145f30b28e5e619a511af9aea3338b51933d9406fd3e3e0ddd7903979",
          "transactionIndex": "0x3b",
          "logIndex": "0xe1",
          "removed": false
        },
        {
          "address": "0xf887b602a746f932f9bbcb6334d3407b7eec23ce",
          "topics": [
            "0xd1fe0093c54116fe147366ec7de3cfa98e1e02e91d7ccb124241f6beae255b4c"
          ],
          "data": "0x000000000000000000000000000000000000000000000000000000000edd9790",
          "blockHash": "0x48e7eed8b26b8b00a9fe6a5496292e29b00f01825e584c674e6fe0ff8efb063c",
          "blockNumber": "0x1632a0c",
          "blockTimestamp": "0x68b70057",
          "transactionHash": "0xe370fdb145f30b28e5e619a511af9aea3338b51933d9406fd3e3e0ddd7903979",
          "transactionIndex": "0x3b",
          "logIndex": "0xe2",
          "removed": false
        },
        {
          "address": "0xa0b86991c6218b36c1d19d4a2e9eb0ce3606eb48",
          "topics": [
            "0xddf252ad1be2c89b69c2b068fc378daa952ba7f163c4a11628f55a4df523b3ef",
            "0x000000000000000000000000f887b602a746f932f9bbcb6334d3407b7eec23ce",
            "0x000000000000000000000000e8e8041cb5e3158a0829a19e014ca1cf91098554"
          ],
          "data": "0x0000000000000000000000000000000000000000000000000000000000000000",
          "blockHash": "0x48e7eed8b26b8b00a9fe6a5496292e29b00f01825e584c674e6fe0ff8efb063c",
          "blockNumber": "0x1632a0c",
          "blockTimestamp": "0x68b70057",
          "transactionHash": "0xe370fdb145f30b28e5e619a511af9aea3338b51933d9406fd3e3e0ddd7903979",
          "transactionIndex": "0x3b",
          "logIndex": "0xe3",
          "removed": false
        },
        {
          "address": "0xa0b86991c6218b36c1d19d4a2e9eb0ce3606eb48",
          "topics": [
            "0xddf252ad1be2c89b69c2b068fc378daa952ba7f163c4a11628f55a4df523b3ef",
            "0x000000000000000000000000f887b602a746f932f9bbcb6334d3407b7eec23ce",
            "0x000000000000000000000000e8e8041cb5e3158a0829a19e014ca1cf91098554"
          ],
          "data": "0x0000000000000000000000000000000000000000000000000000000048c94c58",
          "blockHash": "0x48e7eed8b26b8b00a9fe6a5496292e29b00f01825e584c674e6fe0ff8efb063c",
          "blockNumber": "0x1632a0c",
          "blockTimestamp": "0x68b70057",
          "transactionHash": "0xe370fdb145f30b28e5e619a511af9aea3338b51933d9406fd3e3e0ddd7903979",
          "transactionIndex": "0x3b",
          "logIndex": "0xe4",
          "removed": false
        },
        {
          "address": "0xf887b602a746f932f9bbcb6334d3407b7eec23ce",
          "topics": [
            "0x58ce9a502017c1e4e0084fcfd7067e2642dfe9e11757d8017b9cf16d729967c7"
          ],
          "data": "0x0000000000000000000000000000000000000000000000000000000048c94c5800000000000000000000000000000000000000000000000000000000000000000000000000000000000000000000000000000000000000000000000000000000",
          "blockHash": "0x48e7eed8b26b8b00a9fe6a5496292e29b00f01825e584c674e6fe0ff8efb063c",
          "blockNumber": "0x1632a0c",
          "blockTimestamp": "0x68b70057",
          "transactionHash": "0xe370fdb145f30b28e5e619a511af9aea3338b51933d9406fd3e3e0ddd7903979",
          "transactionIndex": "0x3b",
          "logIndex": "0xe5",
          "removed": false
        },
        {
          "address": "0xce6ab1c71981e79cd30052c521c162674251018a",
          "topics": [
            "0xd1fe0093c54116fe147366ec7de3cfa98e1e02e91d7ccb124241f6beae255b4c"
          ],
          "data": "0x00000000000000000000000000000000000000000000000000000000549b25f8",
          "blockHash": "0x48e7eed8b26b8b00a9fe6a5496292e29b00f01825e584c674e6fe0ff8efb063c",
          "blockNumber": "0x1632a0c",
          "blockTimestamp": "0x68b70057",
          "transactionHash": "0xe370fdb145f30b28e5e619a511af9aea3338b51933d9406fd3e3e0ddd7903979",
          "transactionIndex": "0x3b",
          "logIndex": "0xe6",
          "removed": false
        },
        {
          "address": "0xa0b86991c6218b36c1d19d4a2e9eb0ce3606eb48",
          "topics": [
            "0xddf252ad1be2c89b69c2b068fc378daa952ba7f163c4a11628f55a4df523b3ef",
            "0x000000000000000000000000ce6ab1c71981e79cd30052c521c162674251018a",
            "0x000000000000000000000000e8e8041cb5e3158a0829a19e014ca1cf91098554"
          ],
          "data": "0x0000000000000000000000000000000000000000000000000000000000000000",
          "blockHash": "0x48e7eed8b26b8b00a9fe6a5496292e29b00f01825e584c674e6fe0ff8efb063c",
          "blockNumber": "0x1632a0c",
          "blockTimestamp": "0x68b70057",
          "transactionHash": "0xe370fdb145f30b28e5e619a511af9aea3338b51933d9406fd3e3e0ddd7903979",
          "transactionIndex": "0x3b",
          "logIndex": "0xe7",
          "removed": false
        },
        {
          "address": "0xa0b86991c6218b36c1d19d4a2e9eb0ce3606eb48",
          "topics": [
            "0xddf252ad1be2c89b69c2b068fc378daa952ba7f163c4a11628f55a4df523b3ef",
            "0x000000000000000000000000ce6ab1c71981e79cd30052c521c162674251018a",
            "0x000000000000000000000000e8e8041cb5e3158a0829a19e014ca1cf91098554"
          ],
          "data": "0x000000000000000000000000000000000000000000000000000000014860a84b",
          "blockHash": "0x48e7eed8b26b8b00a9fe6a5496292e29b00f01825e584c674e6fe0ff8efb063c",
          "blockNumber": "0x1632a0c",
          "blockTimestamp": "0x68b70057",
          "transactionHash": "0xe370fdb145f30b28e5e619a511af9aea3338b51933d9406fd3e3e0ddd7903979",
          "transactionIndex": "0x3b",
          "logIndex": "0xe8",
          "removed": false
        },
        {
          "address": "0xce6ab1c71981e79cd30052c521c162674251018a",
          "topics": [
            "0x58ce9a502017c1e4e0084fcfd7067e2642dfe9e11757d8017b9cf16d729967c7"
          ],
          "data": "0x000000000000000000000000000000000000000000000000000000014860a84b00000000000000000000000000000000000000000000000000000000000000000000000000000000000000000000000000000000000000000000000000000000",
          "blockHash": "0x48e7eed8b26b8b00a9fe6a5496292e29b00f01825e584c674e6fe0ff8efb063c",
          "blockNumber": "0x1632a0c",
          "blockTimestamp": "0x68b70057",
          "transactionHash": "0xe370fdb145f30b28e5e619a511af9aea3338b51933d9406fd3e3e0ddd7903979",
          "transactionIndex": "0x3b",
          "logIndex": "0xe9",
          "removed": false
        },
        {
          "address": "0xf797f9b0514ac73b0c7c9790a652db4cc397b8d6",
          "topics": [
            "0xd1fe0093c54116fe147366ec7de3cfa98e1e02e91d7ccb124241f6beae255b4c"
          ],
          "data": "0x00000000000000000000000000000000000000000000000000000000025005f1",
          "blockHash": "0x48e7eed8b26b8b00a9fe6a5496292e29b00f01825e584c674e6fe0ff8efb063c",
          "blockNumber": "0x1632a0c",
          "blockTimestamp": "0x68b70057",
          "transactionHash": "0xe370fdb145f30b28e5e619a511af9aea3338b51933d9406fd3e3e0ddd7903979",
          "transactionIndex": "0x3b",
          "logIndex": "0xea",
          "removed": false
        },
        {
          "address": "0xa0b86991c6218b36c1d19d4a2e9eb0ce3606eb48",
          "topics": [
            "0xddf252ad1be2c89b69c2b068fc378daa952ba7f163c4a11628f55a4df523b3ef",
            "0x000000000000000000000000f797f9b0514ac73b0c7c9790a652db4cc397b8d6",
            "0x000000000000000000000000e8e8041cb5e3158a0829a19e014ca1cf91098554"
          ],
          "data": "0x0000000000000000000000000000000000000000000000000000000000000000",
          "blockHash": "0x48e7eed8b26b8b00a9fe6a5496292e29b00f01825e584c674e6fe0ff8efb063c",
          "blockNumber": "0x1632a0c",
          "blockTimestamp": "0x68b70057",
          "transactionHash": "0xe370fdb145f30b28e5e619a511af9aea3338b51933d9406fd3e3e0ddd7903979",
          "transactionIndex": "0x3b",
          "logIndex": "0xeb",
          "removed": false
        },
        {
          "address": "0xa0b86991c6218b36c1d19d4a2e9eb0ce3606eb48",
          "topics": [
            "0xddf252ad1be2c89b69c2b068fc378daa952ba7f163c4a11628f55a4df523b3ef",
            "0x000000000000000000000000f797f9b0514ac73b0c7c9790a652db4cc397b8d6",
            "0x000000000000000000000000e8e8041cb5e3158a0829a19e014ca1cf91098554"
          ],
          "data": "0x000000000000000000000000000000000000000000000000000000000beea232",
          "blockHash": "0x48e7eed8b26b8b00a9fe6a5496292e29b00f01825e584c674e6fe0ff8efb063c",
          "blockNumber": "0x1632a0c",
          "blockTimestamp": "0x68b70057",
          "transactionHash": "0xe370fdb145f30b28e5e619a511af9aea3338b51933d9406fd3e3e0ddd7903979",
          "transactionIndex": "0x3b",
          "logIndex": "0xec",
          "removed": false
        },
        {
          "address": "0xf797f9b0514ac73b0c7c9790a652db4cc397b8d6",
          "topics": [
            "0x58ce9a502017c1e4e0084fcfd7067e2642dfe9e11757d8017b9cf16d729967c7"
          ],
          "data": "0x000000000000000000000000000000000000000000000000000000000beea23200000000000000000000000000000000000000000000000000000000000000000000000000000000000000000000000000000000000000000000000000000000",
          "blockHash": "0x48e7eed8b26b8b00a9fe6a5496292e29b00f01825e584c674e6fe0ff8efb063c",
          "blockNumber": "0x1632a0c",
          "blockTimestamp": "0x68b70057",
          "transactionHash": "0xe370fdb145f30b28e5e619a511af9aea3338b51933d9406fd3e3e0ddd7903979",
          "transactionIndex": "0x3b",
          "logIndex": "0xed",
          "removed": false
        },
        {
          "address": "0x73886a0d00dd9c0c201ec3cd85a407c6a629bb03",
          "topics": [
            "0xd1fe0093c54116fe147366ec7de3cfa98e1e02e91d7ccb124241f6beae255b4c"
          ],
          "data": "0x000000000000000000000000000000000000000000000000000000004817d8cb",
          "blockHash": "0x48e7eed8b26b8b00a9fe6a5496292e29b00f01825e584c674e6fe0ff8efb063c",
          "blockNumber": "0x1632a0c",
          "blockTimestamp": "0x68b70057",
          "transactionHash": "0xe370fdb145f30b28e5e619a511af9aea3338b51933d9406fd3e3e0ddd7903979",
          "transactionIndex": "0x3b",
          "logIndex": "0xee",
          "removed": false
        },
        {
          "address": "0xa0b86991c6218b36c1d19d4a2e9eb0ce3606eb48",
          "topics": [
            "0xddf252ad1be2c89b69c2b068fc378daa952ba7f163c4a11628f55a4df523b3ef",
            "0x00000000000000000000000073886a0d00dd9c0c201ec3cd85a407c6a629bb03",
            "0x000000000000000000000000e8e8041cb5e3158a0829a19e014ca1cf91098554"
          ],
          "data": "0x0000000000000000000000000000000000000000000000000000000000000000",
          "blockHash": "0x48e7eed8b26b8b00a9fe6a5496292e29b00f01825e584c674e6fe0ff8efb063c",
          "blockNumber": "0x1632a0c",
          "blockTimestamp": "0x68b70057",
          "transactionHash": "0xe370fdb145f30b28e5e619a511af9aea3338b51933d9406fd3e3e0ddd7903979",
          "transactionIndex": "0x3b",
          "logIndex": "0xef",
          "removed": false
        },
        {
          "address": "0xa0b86991c6218b36c1d19d4a2e9eb0ce3606eb48",
          "topics": [
            "0xddf252ad1be2c89b69c2b068fc378daa952ba7f163c4a11628f55a4df523b3ef",
            "0x00000000000000000000000073886a0d00dd9c0c201ec3cd85a407c6a629bb03",
            "0x000000000000000000000000e8e8041cb5e3158a0829a19e014ca1cf91098554"
          ],
          "data": "0x000000000000000000000000000000000000000000000000000000003f3c80cd",
          "blockHash": "0x48e7eed8b26b8b00a9fe6a5496292e29b00f01825e584c674e6fe0ff8efb063c",
          "blockNumber": "0x1632a0c",
          "blockTimestamp": "0x68b70057",
          "transactionHash": "0xe370fdb145f30b28e5e619a511af9aea3338b51933d9406fd3e3e0ddd7903979",
          "transactionIndex": "0x3b",
          "logIndex": "0xf0",
          "removed": false
        },
        {
          "address": "0x73886a0d00dd9c0c201ec3cd85a407c6a629bb03",
          "topics": [
            "0x58ce9a502017c1e4e0084fcfd7067e2642dfe9e11757d8017b9cf16d729967c7"
          ],
          "data": "0x000000000000000000000000000000000000000000000000000000003f3c80cd00000000000000000000000000000000000000000000000000000000000000000000000000000000000000000000000000000000000000000000000000000000",
          "blockHash": "0x48e7eed8b26b8b00a9fe6a5496292e29b00f01825e584c674e6fe0ff8efb063c",
          "blockNumber": "0x1632a0c",
          "blockTimestamp": "0x68b70057",
          "transactionHash": "0xe370fdb145f30b28e5e619a511af9aea3338b51933d9406fd3e3e0ddd7903979",
          "transactionIndex": "0x3b",
          "logIndex": "0xf1",
          "removed": false
        },
        {
          "address": "0xb347d92f98e9730cdbb0a20234ddf170f627bb60",
          "topics": [
            "0xd1fe0093c54116fe147366ec7de3cfa98e1e02e91d7ccb124241f6beae255b4c"
          ],
          "data": "0x000000000000000000000000000000000000000000000000000000000c6b988e",
          "blockHash": "0x48e7eed8b26b8b00a9fe6a5496292e29b00f01825e584c674e6fe0ff8efb063c",
          "blockNumber": "0x1632a0c",
          "blockTimestamp": "0x68b70057",
          "transactionHash": "0xe370fdb145f30b28e5e619a511af9aea3338b51933d9406fd3e3e0ddd7903979",
          "transactionIndex": "0x3b",
          "logIndex": "0xf2",
          "removed": false
        },
        {
          "address": "0xa0b86991c6218b36c1d19d4a2e9eb0ce3606eb48",
          "topics": [
            "0xddf252ad1be2c89b69c2b068fc378daa952ba7f163c4a11628f55a4df523b3ef",
            "0x000000000000000000000000b347d92f98e9730cdbb0a20234ddf170f627bb60",
            "0x000000000000000000000000e8e8041cb5e3158a0829a19e014ca1cf91098554"
          ],
          "data": "0x0000000000000000000000000000000000000000000000000000000000000000",
          "blockHash": "0x48e7eed8b26b8b00a9fe6a5496292e29b00f01825e584c674e6fe0ff8efb063c",
          "blockNumber": "0x1632a0c",
          "blockTimestamp": "0x68b70057",
          "transactionHash": "0xe370fdb145f30b28e5e619a511af9aea3338b51933d9406fd3e3e0ddd7903979",
          "transactionIndex": "0x3b",
          "logIndex": "0xf3",
          "removed": false
        },
        {
          "address": "0xa0b86991c6218b36c1d19d4a2e9eb0ce3606eb48",
          "topics": [
            "0xddf252ad1be2c89b69c2b068fc378daa952ba7f163c4a11628f55a4df523b3ef",
            "0x000000000000000000000000b347d92f98e9730cdbb0a20234ddf170f627bb60",
            "0x000000000000000000000000e8e8041cb5e3158a0829a19e014ca1cf91098554"
          ],
          "data": "0x00000000000000000000000000000000000000000000000000000000178d30b8",
          "blockHash": "0x48e7eed8b26b8b00a9fe6a5496292e29b00f01825e584c674e6fe0ff8efb063c",
          "blockNumber": "0x1632a0c",
          "blockTimestamp": "0x68b70057",
          "transactionHash": "0xe370fdb145f30b28e5e619a511af9aea3338b51933d9406fd3e3e0ddd7903979",
          "transactionIndex": "0x3b",
          "logIndex": "0xf4",
          "removed": false
        },
        {
          "address": "0xb347d92f98e9730cdbb0a20234ddf170f627bb60",
          "topics": [
            "0x58ce9a502017c1e4e0084fcfd7067e2642dfe9e11757d8017b9cf16d729967c7"
          ],
          "data": "0x00000000000000000000000000000000000000000000000000000000178d30b800000000000000000000000000000000000000000000000000000000000000000000000000000000000000000000000000000000000000000000000000000000",
          "blockHash": "0x48e7eed8b26b8b00a9fe6a5496292e29b00f01825e584c674e6fe0ff8efb063c",
          "blockNumber": "0x1632a0c",
          "blockTimestamp": "0x68b70057",
          "transactionHash": "0xe370fdb145f30b28e5e619a511af9aea3338b51933d9406fd3e3e0ddd7903979",
          "transactionIndex": "0x3b",
          "logIndex": "0xf5",
          "removed": false
        },
        {
          "address": "0x5cd6614d11c3dd84fb941e5be2f5a454c88e32b6",
          "topics": [
            "0xd1fe0093c54116fe147366ec7de3cfa98e1e02e91d7ccb124241f6beae255b4c"
          ],
          "data": "0x0000000000000000000000000000000000000000000000000000000000b75646",
          "blockHash": "0x48e7eed8b26b8b00a9fe6a5496292e29b00f01825e584c674e6fe0ff8efb063c",
          "blockNumber": "0x1632a0c",
          "blockTimestamp": "0x68b70057",
          "transactionHash": "0xe370fdb145f30b28e5e619a511af9aea3338b51933d9406fd3e3e0ddd7903979",
          "transactionIndex": "0x3b",
          "logIndex": "0xf6",
          "removed": false
        },
        {
          "address": "0xa0b86991c6218b36c1d19d4a2e9eb0ce3606eb48",
          "topics": [
            "0xddf252ad1be2c89b69c2b068fc378daa952ba7f163c4a11628f55a4df523b3ef",
            "0x0000000000000000000000005cd6614d11c3dd84fb941e5be2f5a454c88e32b6",
            "0x000000000000000000000000e8e8041cb5e3158a0829a19e014ca1cf91098554"
          ],
          "data": "0x0000000000000000000000000000000000000000000000000000000000000000",
          "blockHash": "0x48e7eed8b26b8b00a9fe6a5496292e29b00f01825e584c674e6fe0ff8efb063c",
          "blockNumber": "0x1632a0c",
          "blockTimestamp": "0x68b70057",
          "transactionHash": "0xe370fdb145f30b28e5e619a511af9aea3338b51933d9406fd3e3e0ddd7903979",
          "transactionIndex": "0x3b",
          "logIndex": "0xf7",
          "removed": false
        },
        {
          "address": "0xa0b86991c6218b36c1d19d4a2e9eb0ce3606eb48",
          "topics": [
            "0xddf252ad1be2c89b69c2b068fc378daa952ba7f163c4a11628f55a4df523b3ef",
            "0x0000000000000000000000005cd6614d11c3dd84fb941e5be2f5a454c88e32b6",
            "0x000000000000000000000000e8e8041cb5e3158a0829a19e014ca1cf91098554"
          ],
          "data": "0x00000000000000000000000000000000000000000000000000000001a88a521a",
          "blockHash": "0x48e7eed8b26b8b00a9fe6a5496292e29b00f01825e584c674e6fe0ff8efb063c",
          "blockNumber": "0x1632a0c",
          "blockTimestamp": "0x68b70057",
          "transactionHash": "0xe370fdb145f30b28e5e619a511af9aea3338b51933d9406fd3e3e0ddd7903979",
          "transactionIndex": "0x3b",
          "logIndex": "0xf8",
          "removed": false
        },
        {
          "address": "0x5cd6614d11c3dd84fb941e5be2f5a454c88e32b6",
          "topics": [
            "0x58ce9a502017c1e4e0084fcfd7067e2642dfe9e11757d8017b9cf16d729967c7"
          ],
          "data": "0x00000000000000000000000000000000000000000000000000000001a88a521a00000000000000000000000000000000000000000000000000000000000000000000000000000000000000000000000000000000000000000000000000000000",
          "blockHash": "0x48e7eed8b26b8b00a9fe6a5496292e29b00f01825e584c674e6fe0ff8efb063c",
          "blockNumber": "0x1632a0c",
          "blockTimestamp": "0x68b70057",
          "transactionHash": "0xe370fdb145f30b28e5e619a511af9aea3338b51933d9406fd3e3e0ddd7903979",
          "transactionIndex": "0x3b",
          "logIndex": "0xf9",
          "removed": false
        },
        {
          "address": "0xe54661e8db3b106d6d31c3a33cb4a9c57ff62997",
          "topics": [
            "0xd1fe0093c54116fe147366ec7de3cfa98e1e02e91d7ccb124241f6beae255b4c"
          ],
          "data": "0x0000000000000000000000000000000000000000000000000000000013f8339f",
          "blockHash": "0x48e7eed8b26b8b00a9fe6a5496292e29b00f01825e584c674e6fe0ff8efb063c",
          "blockNumber": "0x1632a0c",
          "blockTimestamp": "0x68b70057",
          "transactionHash": "0xe370fdb145f30b28e5e619a511af9aea3338b51933d9406fd3e3e0ddd7903979",
          "transactionIndex": "0x3b",
          "logIndex": "0xfa",
          "removed": false
        },
        {
          "address": "0xa0b86991c6218b36c1d19d4a2e9eb0ce3606eb48",
          "topics": [
            "0xddf252ad1be2c89b69c2b068fc378daa952ba7f163c4a11628f55a4df523b3ef",
            "0x000000000000000000000000e54661e8db3b106d6d31c3a33cb4a9c57ff62997",
            "0x000000000000000000000000e8e8041cb5e3158a0829a19e014ca1cf91098554"
          ],
          "data": "0x0000000000000000000000000000000000000000000000000000000000000000",
          "blockHash": "0x48e7eed8b26b8b00a9fe6a5496292e29b00f01825e584c674e6fe0ff8efb063c",
          "blockNumber": "0x1632a0c",
          "blockTimestamp": "0x68b70057",
          "transactionHash": "0xe370fdb145f30b28e5e619a511af9aea3338b51933d9406fd3e3e0ddd7903979",
          "transactionIndex": "0x3b",
          "logIndex": "0xfb",
          "removed": false
        },
        {
          "address": "0xa0b86991c6218b36c1d19d4a2e9eb0ce3606eb48",
          "topics": [
            "0xddf252ad1be2c89b69c2b068fc378daa952ba7f163c4a11628f55a4df523b3ef",
            "0x000000000000000000000000e54661e8db3b106d6d31c3a33cb4a9c57ff62997",
            "0x000000000000000000000000e8e8041cb5e3158a0829a19e014ca1cf91098554"
          ],
          "data": "0x0000000000000000000000000000000000000000000000000000000010626674",
          "blockHash": "0x48e7eed8b26b8b00a9fe6a5496292e29b00f01825e584c674e6fe0ff8efb063c",
          "blockNumber": "0x1632a0c",
          "blockTimestamp": "0x68b70057",
          "transactionHash": "0xe370fdb145f30b28e5e619a511af9aea3338b51933d9406fd3e3e0ddd7903979",
          "transactionIndex": "0x3b",
          "logIndex": "0xfc",
          "removed": false
        },
        {
          "address": "0xe54661e8db3b106d6d31c3a33cb4a9c57ff62997",
          "topics": [
            "0x58ce9a502017c1e4e0084fcfd7067e2642dfe9e11757d8017b9cf16d729967c7"
          ],
          "data": "0x000000000000000000000000000000000000000000000000000000001062667400000000000000000000000000000000000000000000000000000000000000000000000000000000000000000000000000000000000000000000000000000000",
          "blockHash": "0x48e7eed8b26b8b00a9fe6a5496292e29b00f01825e584c674e6fe0ff8efb063c",
          "blockNumber": "0x1632a0c",
          "blockTimestamp": "0x68b70057",
          "transactionHash": "0xe370fdb145f30b28e5e619a511af9aea3338b51933d9406fd3e3e0ddd7903979",
          "transactionIndex": "0x3b",
          "logIndex": "0xfd",
          "removed": false
        },
        {
          "address": "0x1de3ba67da79a81bc0c3922689c98550e4bd9bc2",
          "topics": [
            "0xd1fe0093c54116fe147366ec7de3cfa98e1e02e91d7ccb124241f6beae255b4c"
          ],
          "data": "0x0000000000000000000000000000000000000000000000000000000014addb64",
          "blockHash": "0x48e7eed8b26b8b00a9fe6a5496292e29b00f01825e584c674e6fe0ff8efb063c",
          "blockNumber": "0x1632a0c",
          "blockTimestamp": "0x68b70057",
          "transactionHash": "0xe370fdb145f30b28e5e619a511af9aea3338b51933d9406fd3e3e0ddd7903979",
          "transactionIndex": "0x3b",
          "logIndex": "0xfe",
          "removed": false
        },
        {
          "address": "0xa0b86991c6218b36c1d19d4a2e9eb0ce3606eb48",
          "topics": [
            "0xddf252ad1be2c89b69c2b068fc378daa952ba7f163c4a11628f55a4df523b3ef",
            "0x0000000000000000000000001de3ba67da79a81bc0c3922689c98550e4bd9bc2",
            "0x000000000000000000000000e8e8041cb5e3158a0829a19e014ca1cf91098554"
          ],
          "data": "0x0000000000000000000000000000000000000000000000000000000000000000",
          "blockHash": "0x48e7eed8b26b8b00a9fe6a5496292e29b00f01825e584c674e6fe0ff8efb063c",
          "blockNumber": "0x1632a0c",
          "blockTimestamp": "0x68b70057",
          "transactionHash": "0xe370fdb145f30b28e5e619a511af9aea3338b51933d9406fd3e3e0ddd7903979",
          "transactionIndex": "0x3b",
          "logIndex": "0xff",
          "removed": false
        },
        {
          "address": "0xa0b86991c6218b36c1d19d4a2e9eb0ce3606eb48",
          "topics": [
            "0xddf252ad1be2c89b69c2b068fc378daa952ba7f163c4a11628f55a4df523b3ef",
            "0x0000000000000000000000001de3ba67da79a81bc0c3922689c98550e4bd9bc2",
            "0x000000000000000000000000e8e8041cb5e3158a0829a19e014ca1cf91098554"
          ],
          "data": "0x0000000000000000000000000000000000000000000000000000000004e6c4eb",
          "blockHash": "0x48e7eed8b26b8b00a9fe6a5496292e29b00f01825e584c674e6fe0ff8efb063c",
          "blockNumber": "0x1632a0c",
          "blockTimestamp": "0x68b70057",
          "transactionHash": "0xe370fdb145f30b28e5e619a511af9aea3338b51933d9406fd3e3e0ddd7903979",
          "transactionIndex": "0x3b",
          "logIndex": "0x100",
          "removed": false
        },
        {
          "address": "0x1de3ba67da79a81bc0c3922689c98550e4bd9bc2",
          "topics": [
            "0x58ce9a502017c1e4e0084fcfd7067e2642dfe9e11757d8017b9cf16d729967c7"
          ],
          "data": "0x0000000000000000000000000000000000000000000000000000000004e6c4eb00000000000000000000000000000000000000000000000000000000000000000000000000000000000000000000000000000000000000000000000000000000",
          "blockHash": "0x48e7eed8b26b8b00a9fe6a5496292e29b00f01825e584c674e6fe0ff8efb063c",
          "blockNumber": "0x1632a0c",
          "blockTimestamp": "0x68b70057",
          "transactionHash": "0xe370fdb145f30b28e5e619a511af9aea3338b51933d9406fd3e3e0ddd7903979",
          "transactionIndex": "0x3b",
          "logIndex": "0x101",
          "removed": false
        },
        {
          "address": "0x02ae6a64a0dc17fffdc5722ad8270a7b32be44db",
          "topics": [
            "0xd1fe0093c54116fe147366ec7de3cfa98e1e02e91d7ccb124241f6beae255b4c"
          ],
          "data": "0x000000000000000000000000000000000000000000000000002491242a329137",
          "blockHash": "0x48e7eed8b26b8b00a9fe6a5496292e29b00f01825e584c674e6fe0ff8efb063c",
          "blockNumber": "0x1632a0c",
          "blockTimestamp": "0x68b70057",
          "transactionHash": "0xe370fdb145f30b28e5e619a511af9aea3338b51933d9406fd3e3e0ddd7903979",
          "transactionIndex": "0x3b",
          "logIndex": "0x102",
          "removed": false
        },
        {
          "address": "0xc02aaa39b223fe8d0a0e5c4f27ead9083c756cc2",
          "topics": [
            "0xddf252ad1be2c89b69c2b068fc378daa952ba7f163c4a11628f55a4df523b3ef",
            "0x00000000000000000000000002ae6a64a0dc17fffdc5722ad8270a7b32be44db",
            "0x000000000000000000000000e8e8041cb5e3158a0829a19e014ca1cf91098554"
          ],
          "data": "0x0000000000000000000000000000000000000000000000000000000000000000",
          "blockHash": "0x48e7eed8b26b8b00a9fe6a5496292e29b00f01825e584c674e6fe0ff8efb063c",
          "blockNumber": "0x1632a0c",
          "blockTimestamp": "0x68b70057",
          "transactionHash": "0xe370fdb145f30b28e5e619a511af9aea3338b51933d9406fd3e3e0ddd7903979",
          "transactionIndex": "0x3b",
          "logIndex": "0x103",
          "removed": false
        },
        {
          "address": "0xc02aaa39b223fe8d0a0e5c4f27ead9083c756cc2",
          "topics": [
            "0xddf252ad1be2c89b69c2b068fc378daa952ba7f163c4a11628f55a4df523b3ef",
            "0x00000000000000000000000002ae6a64a0dc17fffdc5722ad8270a7b32be44db",
            "0x000000000000000000000000e8e8041cb5e3158a0829a19e014ca1cf91098554"
          ],
          "data": "0x000000000000000000000000000000000000000000000000008721c1b309597f",
          "blockHash": "0x48e7eed8b26b8b00a9fe6a5496292e29b00f01825e584c674e6fe0ff8efb063c",
          "blockNumber": "0x1632a0c",
          "blockTimestamp": "0x68b70057",
          "transactionHash": "0xe370fdb145f30b28e5e619a511af9aea3338b51933d9406fd3e3e0ddd7903979",
          "transactionIndex": "0x3b",
          "logIndex": "0x104",
          "removed": false
        },
        {
          "address": "0x02ae6a64a0dc17fffdc5722ad8270a7b32be44db",
          "topics": [
            "0x58ce9a502017c1e4e0084fcfd7067e2642dfe9e11757d8017b9cf16d729967c7"
          ],
          "data": "0x000000000000000000000000000000000000000000000000008721c1b309597f00000000000000000000000000000000000000000000000000000000000000000000000000000000000000000000000000000000000000000000000000000000",
          "blockHash": "0x48e7eed8b26b8b00a9fe6a5496292e29b00f01825e584c674e6fe0ff8efb063c",
          "blockNumber": "0x1632a0c",
          "blockTimestamp": "0x68b70057",
          "transactionHash": "0xe370fdb145f30b28e5e619a511af9aea3338b51933d9406fd3e3e0ddd7903979",
          "transactionIndex": "0x3b",
          "logIndex": "0x105",
          "removed": false
        },
        {
          "address": "0x9064a590751373440c8804f4f34aa6456ecf9cb4",
          "topics": [
            "0xd1fe0093c54116fe147366ec7de3cfa98e1e02e91d7ccb124241f6beae255b4c"
          ],
          "data": "0x00000000000000000000000000000000000000000000000000b70846d65569c3",
          "blockHash": "0x48e7eed8b26b8b00a9fe6a5496292e29b00f01825e584c674e6fe0ff8efb063c",
          "blockNumber": "0x1632a0c",
          "blockTimestamp": "0x68b70057",
          "transactionHash": "0xe370fdb145f30b28e5e619a511af9aea3338b51933d9406fd3e3e0ddd7903979",
          "transactionIndex": "0x3b",
          "logIndex": "0x106",
          "removed": false
        },
        {
          "address": "0xc02aaa39b223fe8d0a0e5c4f27ead9083c756cc2",
          "topics": [
            "0xddf252ad1be2c89b69c2b068fc378daa952ba7f163c4a11628f55a4df523b3ef",
            "0x0000000000000000000000009064a590751373440c8804f4f34aa6456ecf9cb4",
            "0x000000000000000000000000e8e8041cb5e3158a0829a19e014ca1cf91098554"
          ],
          "data": "0x0000000000000000000000000000000000000000000000000000000000000000",
          "blockHash": "0x48e7eed8b26b8b00a9fe6a5496292e29b00f01825e584c674e6fe0ff8efb063c",
          "blockNumber": "0x1632a0c",
          "blockTimestamp": "0x68b70057",
          "transactionHash": "0xe370fdb145f30b28e5e619a511af9aea3338b51933d9406fd3e3e0ddd7903979",
          "transactionIndex": "0x3b",
          "logIndex": "0x107",
          "removed": false
        },
        {
          "address": "0xc02aaa39b223fe8d0a0e5c4f27ead9083c756cc2",
          "topics": [
            "0xddf252ad1be2c89b69c2b068fc378daa952ba7f163c4a11628f55a4df523b3ef",
            "0x0000000000000000000000009064a590751373440c8804f4f34aa6456ecf9cb4",
            "0x000000000000000000000000e8e8041cb5e3158a0829a19e014ca1cf91098554"
          ],
          "data": "0x000000000000000000000000000000000000000000000000007fdd397e0fcc3b",
          "blockHash": "0x48e7eed8b26b8b00a9fe6a5496292e29b00f01825e584c674e6fe0ff8efb063c",
          "blockNumber": "0x1632a0c",
          "blockTimestamp": "0x68b70057",
          "transactionHash": "0xe370fdb145f30b28e5e619a511af9aea3338b51933d9406fd3e3e0ddd7903979",
          "transactionIndex": "0x3b",
          "logIndex": "0x108",
          "removed": false
        },
        {
          "address": "0x9064a590751373440c8804f4f34aa6456ecf9cb4",
          "topics": [
            "0x58ce9a502017c1e4e0084fcfd7067e2642dfe9e11757d8017b9cf16d729967c7"
          ],
          "data": "0x000000000000000000000000000000000000000000000000007fdd397e0fcc3b00000000000000000000000000000000000000000000000000000000000000000000000000000000000000000000000000000000000000000000000000000000",
          "blockHash": "0x48e7eed8b26b8b00a9fe6a5496292e29b00f01825e584c674e6fe0ff8efb063c",
          "blockNumber": "0x1632a0c",
          "blockTimestamp": "0x68b70057",
          "transactionHash": "0xe370fdb145f30b28e5e619a511af9aea3338b51933d9406fd3e3e0ddd7903979",
          "transactionIndex": "0x3b",
          "logIndex": "0x109",
          "removed": false
        }
      ],
      "logsBloom": "0x07001400000000000000008040108200020010000000000000400040000000000040000000040000001081000000480042000010080000000000000042800400000405002002000088100008020000010000000800008000200000000000000000080020000201000000901001000001000000000800000000000010020010000000020002002000000480000040000000080008010000000000002000000004000000000400340000000400000150000020800000000200000004080000008000000002000000000100080000002100400400400040000042000000000000000000a000000000008000000880000008a0210000020000000004000000004280",
      "type": "0x2",
      "transactionHash": "0xe370fdb145f30b28e5e619a511af9aea3338b51933d9406fd3e3e0ddd7903979",
      "transactionIndex": "0x3b",
      "blockHash": "0x48e7eed8b26b8b00a9fe6a5496292e29b00f01825e584c674e6fe0ff8efb063c",
      "blockNumber": "0x1632a0c",
      "gasUsed": "0x17b205",
      "effectiveGasPrice": "0x40466f78",
      "from": "0xaad2f138eb20fb60c34ac70624339ccbac2320fa",
      "to": "0xca11bde05977b3631167028862be2a173976ca11",
      "contractAddress": null
    }
  ],
  "libraries": [],
  "pending": [],
  "returns": {},
  "timestamp": 1756823641,
  "chain": 1,
  "commit": "f990f0758"
}