{
  "transactions": [
    {
      "hash": "0x354783297139574ac7994dc37877879359a51523c4c7534464484afc6b1cb2f3",
      "transactionType": "CALL",
      "contractName": "FixedPricePTAMMOracleFactory",
      "contractAddress": "0x22c4266898f8dd0333a4c7562d4f1f6d297f391d",
      "function": "create((address,address,address,address),bytes32)",
      "arguments": [
        "(0x4d717868F4Bd14ac8B29Bb6361901e30Ae05e340, 0x9Da7f8c0D6e3F247AFFDf92c3DDDd83c1E248E14, 0x5d3a1Ff2b6BAb83b63cd9AD0787074081a52ef34, 0xB97EF9Ef8734C71904D8002F8b6Bc66Dd9c48a6E)",
        "0x0000000000000000000000000000000000000000000000000000000000000000"
      ],
      "transaction": {
        "from": "0xaad2f138eb20fb60c34ac70624339ccbac2320fa",
        "to": "0x22c4266898f8dd0333a4c7562d4f1f6d297f391d",
        "gas": "0x5fbed",
        "value": "0x0",
        "input": "0x78b850a30000000000000000000000004d717868f4bd14ac8b29bb6361901e30ae05e3400000000000000000000000009da7f8c0d6e3f247affdf92c3dddd83c1e248e140000000000000000000000005d3a1ff2b6bab83b63cd9ad0787074081a52ef34000000000000000000000000b97ef9ef8734c71904d8002f8b6bc66dd9c48a6e0000000000000000000000000000000000000000000000000000000000000000",
        "nonce": "0x1",
        "chainId": "0xa86a"
      },
      "additionalContracts": [
        {
          "transactionType": "CREATE",
          "address": "0x97fe705f80072a5b69d02b2d7b3af33207d05ed1",
          "initCode": "0x610100604052348015610010575f5ffd5b5060405161027d38038061027d83398101604081905261002f9161007d565b80516001600160a01b039081166080526020820151811660a0526040820151811660c0526060909101511660e052610105565b80516001600160a01b0381168114610078575f5ffd5b919050565b5f608082840312801561008e575f5ffd5b50604051608081016001600160401b03811182821017156100bd57634e487b7160e01b5f52604160045260245ffd5b6040526100c983610062565b81526100d760208401610062565b60208201526100e860408401610062565b60408201526100f960608401610062565b60608201529392505050565b60805160a05160c05160e0516101496101345f395f60bc01525f609301525f606801525f604201526101495ff3fe608060405234801561000f575f5ffd5b5060043610610029575f3560e01c8063c3f909d41461002d575b5f5ffd5b60408051608080820183526001600160a01b037f000000000000000000000000000000000000000000000000000000000000000081168084527f0000000000000000000000000000000000000000000000000000000000000000821660208086019182527f000000000000000000000000000000000000000000000000000000000000000084168688019081527f0000000000000000000000000000000000000000000000000000000000000000851660609788019081528851948552925185169184019190915251831695820195909552935116918301919091520160405180910390f3fea264697066735822122019422df38f309e15572179ecb1a288c75d0e7f76203e3a1b1f3459ea9db5de4064736f6c634300081c00330000000000000000000000004d717868f4bd14ac8b29bb6361901e30ae05e3400000000000000000000000009da7f8c0d6e3f247affdf92c3dddd83c1e248e140000000000000000000000005d3a1ff2b6bab83b63cd9ad0787074081a52ef34000000000000000000000000b97ef9ef8734c71904d8002f8b6bc66dd9c48a6e"
        },
        {
          "transactionType": "CREATE2",
          "address": "0xf726ea3690756d9ac7d417094a4eb34ee5e3741a",
          "initCode": "0x3d602d80600a3d3981f3363d3d373d3d3d363d73998d9a4f87ca2fd14e623ef52653a596bfbd15df5af43d82803e903d91602b57fd5bf3"
        }
      ],
      "isFixedGasLimit": false
    }
  ],
  "receipts": [
    {
      "status": "0x1",
      "cumulativeGasUsed": "0x2a1663",
      "logs": [
        {
          "address": "0x22c4266898f8dd0333a4c7562d4f1f6d297f391d",
          "topics": [
            "0xb3eacd0e351fafdfefdec84e1cd19679b38dbcd63ea7c2c24da17fd2bc3b3c0e",
            "0x000000000000000000000000f726ea3690756d9ac7d417094a4eb34ee5e3741a"
          ],
          "data": "0x",
          "blockHash": "0x7b166a46de815f5acd359170864fada1f70a5de7027aab98b0e0ebb33047496f",
          "blockNumber": "0x4159439",
          "transactionHash": "0x354783297139574ac7994dc37877879359a51523c4c7534464484afc6b1cb2f3",
          "transactionIndex": "0xa",
          "logIndex": "0x29",
          "removed": false
        },
        {
          "address": "0xf726ea3690756d9ac7d417094a4eb34ee5e3741a",
          "topics": [
            "0x77fa88974c6468fa8044954c0180c041d53382303a50dcd3f6c5bba73bf7283f",
            "0x00000000000000000000000097fe705f80072a5b69d02b2d7b3af33207d05ed1"
          ],
          "data": "0x",
          "blockHash": "0x7b166a46de815f5acd359170864fada1f70a5de7027aab98b0e0ebb33047496f",
          "blockNumber": "0x4159439",
          "transactionHash": "0x354783297139574ac7994dc37877879359a51523c4c7534464484afc6b1cb2f3",
          "transactionIndex": "0xa",
          "logIndex": "0x2a",
          "removed": false
        },
        {
          "address": "0xf726ea3690756d9ac7d417094a4eb34ee5e3741a",
          "topics": [
            "0xc7f505b2f371ae2175ee4913f4499e1f2633a7b5936321eed1cdaeb6115181d2"
          ],
          "data": "0x0000000000000000000000000000000000000000000000000000000000000001",
          "blockHash": "0x7b166a46de815f5acd359170864fada1f70a5de7027aab98b0e0ebb33047496f",
          "blockNumber": "0x4159439",
          "transactionHash": "0x354783297139574ac7994dc37877879359a51523c4c7534464484afc6b1cb2f3",
          "transactionIndex": "0xa",
          "logIndex": "0x2b",
          "removed": false
        }
      ],
      "logsBloom": "0x00000000000000100100008008000000000000002000000000000000000000000000000000000000000000000000000000000000000000000000000000000000000000000000000000000000000000000000000000000000000000000000000008000000000000000000000000000000000010000000000040000000000000000000000000000000000800000040000000000000000080000000000000000000000000000000000000000010000100000100000400000000000000000000000000000000000100000000080000000010000000000004010000000000000000000000000000000000000000000000000000000000000000010000000000000000",
      "type": "0x2",
      "transactionHash": "0x354783297139574ac7994dc37877879359a51523c4c7534464484afc6b1cb2f3",
      "transactionIndex": "0xa",
      "blockHash": "0x7b166a46de815f5acd359170864fada1f70a5de7027aab98b0e0ebb33047496f",
      "blockNumber": "0x4159439",
      "gasUsed": "0x45517",
      "effectiveGasPrice": "0x30efb71e",
      "from": "0xaad2f138eb20fb60c34ac70624339ccbac2320fa",
      "to": "0x22c4266898f8dd0333a4c7562d4f1f6d297f391d",
      "contractAddress": null
    }
  ],
  "libraries": [],
  "pending": [],
  "returns": {},
  "timestamp": 1757501645,
  "chain": 43114,
  "commit": "182590b44"
}