{
  "transactions": [
    {
      "hash": "0x826ce54487119efd6f723f7df1b5e3768325f45bfe5877159c84bb4c517032cf",
      "transactionType": "CALL",
      "contractName": "ERC4626OracleHardcodeQuoteFactory",
      "contractAddress": "0xda393ff755ff264fde32ba7d1cc11785778f7aab",
      "function": "createERC4626Oracle(address,address,bytes32)",
      "arguments": [
        "0xDA06eE2dACF9245Aa80072a4407deBDea0D7e341",
        "0xC02aaA39b223FE8D0A0e5C4F27eAD9083C756Cc2",
        "0x0000000000000000000000000000000000000000000000000000000000000000"
      ],
      "transaction": {
        "from": "0xaad2f138eb20fb60c34ac70624339ccbac2320fa",
        "to": "0xda393ff755ff264fde32ba7d1cc11785778f7aab",
        "gas": "0x4978f",
        "value": "0x0",
        "input": "0xd803f579000000000000000000000000da06ee2dacf9245aa80072a4407debdea0d7e341000000000000000000000000c02aaa39b223fe8d0a0e5c4f27ead9083c756cc20000000000000000000000000000000000000000000000000000000000000000",
        "nonce": "0xc",
        "chainId": "0x1"
      },
      "additionalContracts": [
        {
          "transactionType": "CREATE2",
          "contractName": "ERC4626OracleHardcodeQuote",
          "address": "0x9e4e76f54f42646adb5e075301bbca40cf0b1f8a",
          "initCode": "0x60c060405234801561000f575f5ffd5b5060405161035c38038061035c83398101604081905261002e9161005c565b6001600160a01b039182166080521660a052610094565b6001600160a01b0381168114610059575f5ffd5b50565b5f5f6040838503121561006d575f5ffd5b825161007881610045565b602084015190925061008981610045565b809150509250929050565b60805160a05161029c6100c05f395f607601525f818160b30152818160eb0152610151015261029c5ff3fe608060405234801561000f575f5ffd5b506004361061004a575f3560e01c806313b0be331461004e578063217a4b7014610074578063411557d1146100ae578063f9fa619a146100d5575b5f5ffd5b61006161005c366004610205565b6100e8565b6040519081526020015b60405180910390f35b7f00000000000000000000000000000000000000000000000000000000000000005b6040516001600160a01b03909116815260200161006b565b6100967f000000000000000000000000000000000000000000000000000000000000000081565b6100e66100e336600461022f565b50565b005b5f7f00000000000000000000000000000000000000000000000000000000000000006001600160a01b0316826001600160a01b03161461013b5760405163981a2a2b60e01b815260040160405180910390fd5b6040516303d1689d60e11b8152600481018490527f00000000000000000000000000000000000000000000000000000000000000006001600160a01b0316906307a2d13a90602401602060405180830381865afa15801561019e573d5f5f3e3d5ffd5b505050506040513d601f19601f820116820180604052508101906101c2919061024f565b9050805f036101e457604051634dfba02360e01b815260040160405180910390fd5b92915050565b80356001600160a01b0381168114610200575f5ffd5b919050565b5f5f60408385031215610216575f5ffd5b82359150610226602084016101ea565b90509250929050565b5f6020828403121561023f575f5ffd5b610248826101ea565b9392505050565b5f6020828403121561025f575f5ffd5b505191905056fea26469706673582212207f22f8513607fe53445ee7db8d9fb2b20ce1be01c19b0729f11dc3b0a3bc233764736f6c634300081c0033000000000000000000000000da06ee2dacf9245aa80072a4407debdea0d7e341000000000000000000000000c02aaa39b223fe8d0a0e5c4f27ead9083c756cc2"
        }
      ],
      "isFixedGasLimit": false
    }
  ],
  "receipts": [
    {
      "status": "0x1",
      "cumulativeGasUsed": "0x10df67a",
      "logs": [
        {
          "address": "0xda393ff755ff264fde32ba7d1cc11785778f7aab",
          "topics": [
            "0x6d86f9fc5b1bde243720a4aa74177ac89431d9fa2331e29ff3bf8ebe23fcec7f",
            "0x0000000000000000000000009e4e76f54f42646adb5e075301bbca40cf0b1f8a"
          ],
          "data": "0x",
          "blockHash": "0xcf90aba5ba3cc8fd6b9fb30cc89b490f00264556629f590d746ffae016f4b310",
          "blockNumber": "0x164c601",
          "blockTimestamp": "0x68ca6c5f",
          "transactionHash": "0x826ce54487119efd6f723f7df1b5e3768325f45bfe5877159c84bb4c517032cf",
          "transactionIndex": "0xc1",
          "logIndex": "0x210",
          "removed": false
        }
      ],
      "logsBloom": "0x00000000000000000000000000000000000000000000000000000000000008000000000000000000000000000000000000000000000000000000000000000000000000008000000004000000000000000000000000000000000000000000000000000000000000800000000000000004000000000000000000000000000000000000000000000000000000000000000000000004000000000000000000001000000000000000000000000000000000000000000000000000000000000000000000000000000000000000000000000000000000000000000000000000000000000000000000400000000000000080000000000000000000000000000000000000",
      "type": "0x2",
      "transactionHash": "0x826ce54487119efd6f723f7df1b5e3768325f45bfe5877159c84bb4c517032cf",
      "transactionIndex": "0xc1",
      "blockHash": "0xcf90aba5ba3cc8fd6b9fb30cc89b490f00264556629f590d746ffae016f4b310",
      "blockNumber": "0x164c601",
      "gasUsed": "0x35316",
      "effectiveGasPrice": "0x15fe3191",
      "from": "0xaad2f138eb20fb60c34ac70624339ccbac2320fa",
      "to": "0xda393ff755ff264fde32ba7d1cc11785778f7aab",
      "contractAddress": null
    }
  ],
  "libraries": [],
  "pending": [],
  "returns": {
    "oracle": {
      "internal_type": "contract ISiloOracle",
      "value": "0x9e4e76F54f42646Adb5E075301bbCa40Cf0B1f8a"
    }
  },
  "timestamp": 1758096482245,
  "chain": 1,
  "commit": "1201f2559"
}