{
  "transactions": [
    {
      "hash": "0x9a5086931a579b44ecd77494098eb42187a6c71751e450cbb26439ac177f9738",
      "transactionType": "CALL",
      "contractName": "Tower",
      "contractAddress": "0xc1b3fb8f41398a5dec50d14e5c9d18a6f20b53ef",
      "function": "register(string,address)",
      "arguments": [
        "LiquidationHelper_ODOS",
        "0x20DD361658Acb5559B467Fe877580F5844665204"
      ],
      "transaction": {
        "from": "0x6d228fa4dad2163056a48fc2186d716f5c65e89a",
        "to": "0xc1b3fb8f41398a5dec50d14e5c9d18a6f20b53ef",
        "gas": "0x1211a",
        "value": "0x0",
        "input": "0x1e59c529000000000000000000000000000000000000000000000000000000000000004000000000000000000000000020dd361658acb5559b467fe877580f584466520400000000000000000000000000000000000000000000000000000000000000164c69717569646174696f6e48656c7065725f4f444f5300000000000000000000",
        "nonce": "0x3a6",
        "chainId": "0xa4b1"
      },
      "additionalContracts": [],
      "isFixedGasLimit": false
    }
  ],
  "receipts": [
    {
      "status": "0x1",
      "cumulativeGasUsed": "0x1c64a",
      "logs": [
        {
          "address": "0xc1b3fb8f41398a5dec50d14e5c9d18a6f20b53ef",
          "topics": [
            "0x5327935b8796b9614e833d16c9e90ccb2b33e41e5181f8af0308fba0373c1caf",
            "0x00000000000000000000000020dd361658acb5559b467fe877580f5844665204"
          ],
          "data": "0x000000000000000000000000000000000000000000000000000000000000002000000000000000000000000000000000000000000000000000000000000000164c69717569646174696f6e48656c7065725f4f444f5300000000000000000000",
          "blockHash": "0x37ba3fde794630b3525a3349a4914326528e2a615fd152af2790ef30ac51f235",
          "blockNumber": "0x15f358b0",
          "transactionHash": "0x9a5086931a579b44ecd77494098eb42187a6c71751e450cbb26439ac177f9738",
          "transactionIndex": "0x2",
          "logIndex": "0x1",
          "removed": false
        }
      ],
      "logsBloom": "0x00000000000000000000400000000000000000000000000000000000000000000000000000000000000000000000000020000000000000000000000000000000000000000000000000000000000000000000000000000000000000000000000000000000000080000000000000000000000000000000000000000000000000000000100000000000000000000000000000000000000000000000000000080000000000000000000000000000000000000000000000000000000000000000000000000000000000000000001008000000000000000000000000200000000000000000000000000000000000000000000000000000000008000000000000000000",
      "type": "0x2",
      "transactionHash": "0x9a5086931a579b44ecd77494098eb42187a6c71751e450cbb26439ac177f9738",
      "transactionIndex": "0x2",
      "blockHash": "0x37ba3fde794630b3525a3349a4914326528e2a615fd152af2790ef30ac51f235",
      "blockNumber": "0x15f358b0",
      "gasUsed": "0xd6d4",
      "effectiveGasPrice": "0x989680",
      "from": "0x6d228fa4dad2163056a48fc2186d716f5c65e89a",
      "to": "0xc1b3fb8f41398a5dec50d14e5c9d18a6f20b53ef",
      "contractAddress": null,
      "gasUsedForL1": "0x1505",
      "l1BlockNumber": "0x1610e95",
      "timeboosted": false
    }
  ],
  "libraries": [],
  "pending": [],
  "returns": {},
  "timestamp": 1755158242,
  "chain": 42161,
  "commit": "9c7cfea41"
}