{
  "transactions": [
    {
      "hash": "0x42dfc18c334ae35edf9d2c178f9eff0d17dbbc9ef0a71365c9d6285dddf1159b",
      "transactionType": "CALL",
      "contractName": null,
      "contractAddress": "0x464785a56970084a4251d8ec9263d033310858d0",
      "function": "update(string,address)",
      "arguments": [
        "LiquidationHelper",
        "0x7114406E1Ee876f52BC7AD4d8eB2DcbB17dE79EB"
      ],
      "transaction": {
        "from": "0x6d228fa4dad2163056a48fc2186d716f5c65e89a",
        "to": "0x464785a56970084a4251d8ec9263d033310858d0",
        "gas": "0xacb77",
        "value": "0x0",
        "input": "0x2cff89c900000000000000000000000000000000000000000000000000000000000000400000000000000000000000007114406e1ee876f52bc7ad4d8eb2dcbb17de79eb00000000000000000000000000000000000000000000000000000000000000114c69717569646174696f6e48656c706572000000000000000000000000000000",
        "nonce": "0x214",
        "chainId": "0xa4b1"
      },
      "additionalContracts": [],
      "isFixedGasLimit": false
    }
  ],
  "receipts": [
    {
      "status": "0x1",
      "cumulativeGasUsed": "0x141213",
      "logs": [
        {
          "address": "0x464785a56970084a4251d8ec9263d033310858d0",
          "topics": [
            "0xaa96e0e6f7c38ef3ea5679180dc8034becfee398a6d177ee2c175663f96340e6",
            "0x0000000000000000000000007114406e1ee876f52bc7ad4d8eb2dcbb17de79eb"
          ],
          "data": "0x000000000000000000000000000000000000000000000000000000000000002000000000000000000000000000000000000000000000000000000000000000114c69717569646174696f6e48656c706572000000000000000000000000000000",
          "blockHash": "0x4a008f6054e61f237569473cdfb39f098ec4c339a133b9ec7a9d592ef19b19ba",
          "blockNumber": "0x1118b184",
          "transactionHash": "0x42dfc18c334ae35edf9d2c178f9eff0d17dbbc9ef0a71365c9d6285dddf1159b",
          "transactionIndex": "0x2",
          "logIndex": "0x1",
          "removed": false
        }
      ],
      "logsBloom": "0x00000000000000000000000000040000000000000000000000000000000000000000000000000000000000000000000000000000000000000000000000000100000000000000000000000008000000000000100000000000000000000000000000000000000000000000000000000000000000000000000000000000000000000000000000000000000000000000000000000000000000000080000000000000000000000200000000001000000000000000000000000000000004000000000000000000000000000000000000000000000000000000000000000000000000000000000000000000000000000000000000000000000000002000000000000000",
      "type": "0x2",
      "transactionHash": "0x42dfc18c334ae35edf9d2c178f9eff0d17dbbc9ef0a71365c9d6285dddf1159b",
      "transactionIndex": "0x2",
      "blockHash": "0x4a008f6054e61f237569473cdfb39f098ec4c339a133b9ec7a9d592ef19b19ba",
      "blockNumber": "0x1118b184",
      "gasUsed": "0x6bda7",
      "effectiveGasPrice": "0x989680",
      "from": "0x6d228fa4dad2163056a48fc2186d716f5c65e89a",
      "to": "0x464785a56970084a4251d8ec9263d033310858d0",
      "contractAddress": null,
      "gasUsedForL1": "0x63ecd",
      "l1BlockNumber": "0x1473c73"
    }
  ],
  "libraries": [],
  "pending": [],
  "returns": {},
  "timestamp": 1734722042,
  "chain": 42161,
  "commit": "1039d862"
}