{
  "transactions": [
    {
      "hash": "0xce827a74f7f23f99df1e8b1b9af7379c7e7900278070080df179ea781b929a43",
      "transactionType": "CALL",
      "contractName": null,
      "contractAddress": "0x44e9c695624dad0bb3690a40c90e6d7964b32d3d",
      "function": "deploy(((address,address,bytes),(address,address,bytes),(address,address,bytes),(address,address,bytes)),(int256,int256,int256,int256,int256,int256,int256,int256,int112,int112),(int256,int256,int256,int256,int256,int256,int256,int256,int112,int112),(address,bytes),(address,address,uint256,uint256,address,address,address,address,uint256,uint256,uint256,uint256,uint256,bool,address,address,address,address,uint256,uint256,uint256,uint256,uint256,bool))",
      "arguments": [
        "((0x0000000000000000000000000000000000000000, 0x653B957DAC238A918C4b7DDa798AE09920355Edc, 0x4b4de5ff000000000000000000000000cc0966d8418d412c599a6421b760a847eb169a8c000000000000000000000000ad525f341368aa80093672278234ad364efcaf0a00000000000000000000000026fb59e5562405f42f55661f790fa1bd2f410a3d00000000000000000000000000000000000000000000000000000000000056b9000000000000000000000000000000000000000000000000000000000000000000000000000000000000000000000000000000000000000000000000000000000000000000000000000000000000000000000000000000000000000005f5e1000000000000000000000000000000000000000000000000000000000000000000), (0x0000000000000000000000000000000000000000, 0x0000000000000000000000000000000000000000, 0x), (0x0000000000000000000000000000000000000000, 0x653B957DAC238A918C4b7DDa798AE09920355Edc, 0x4b4de5ff000000000000000000000000541fd749419ca806a8bc7da8ac23d346f2df8b77000000000000000000000000ad525f341368aa80093672278234ad364efcaf0a0000000000000000000000004af6b78d92432d32e3a635e824d3a541866f7a7800000000000000000000000000000000000000000000000000000000000056b9000000000000000000000000000000000000000000000000000000000000000000000000000000000000000000000000000000000000000000000000000000000000000000000000000000000000000000000000000000000000000005f5e1000000000000000000000000000000000000000000000000000000000000000000), (0x0000000000000000000000000000000000000000, 0x0000000000000000000000000000000000000000, 0x))",
        "(900000000000000001, 900000000000000002, 900000000000000000, 0, 7927447996, 1937820621, 0, 11574074074074, 1744038559, 0)",
        "(900000000000000001, 900000000000000002, 900000000000000000, 0, 7927447996, 1937820621, 0, 11574074074074, 1744038559, 0)",
        "(0x7940CB3a486545Ca310908edb0d62a41f91D3008, 0x0000000000000000000000007461d8c0fdf376c847b651d882dea4c73fad2e4b)",
        "(0x7461d8c0fDF376c847b651D882DEa4C73fad2e4B, 0x0000000000000000000000000000000000000000, 0, 150000000000000000, 0xCC0966D8418d412c599A6421b760a847eB169A8c, 0x0000000000000000000000000000000000000000, 0x0000000000000000000000000000000000000000, 0xF380F025675A868eD5614a1Dd77c6b05f4147004, 850000000000000000, 900000000000000000, 880000000000000000, 50000000000000000, 0, false, 0x541FD749419CA806a8bc7da8ac23D346f2dF8B77, 0x0000000000000000000000000000000000000000, 0x0000000000000000000000000000000000000000, 0xF380F025675A868eD5614a1Dd77c6b05f4147004, 850000000000000000, 900000000000000000, 880000000000000000, 50000000000000000, 0, false)"
      ],
      "transaction": {
        "from": "0x6d228fa4dad2163056a48fc2186d716f5c65e89a",
        "to": "0x44e9c695624dad0bb3690a40c90e6d7964b32d3d",
        "gas": "0x4a554f",
        "value": "0x0",
        "input": "0xe1329d5500000000000000000000000000000000000000000000000000000000000005c00000000000000000000000000000000000000000000000000c7d713b49da00010000000000000000000000000000000000000000000000000c7d713b49da00020000000000000000000000000000000000000000000000000c7d713b49da0000000000000000000000000000000000000000000000000000000000000000000000000000000000000000000000000000000000000000000000000001d88341bc000000000000000000000000000000000000000000000000000000007380cbcd000000000000000000000000000000000000000000000000000000000000000000000000000000000000000000000000000000000000000000000a86cc92e3da0000000000000000000000000000000000000000000000000000000067f3ea9f00000000000000000000000000000000000000000000000000000000000000000000000000000000000000000000000000000000000000000c7d713b49da00010000000000000000000000000000000000000000000000000c7d713b49da00020000000000000000000000000000000000000000000000000c7d713b49da0000000000000000000000000000000000000000000000000000000000000000000000000000000000000000000000000000000000000000000000000001d88341bc000000000000000000000000000000000000000000000000000000007380cbcd000000000000000000000000000000000000000000000000000000000000000000000000000000000000000000000000000000000000000000000a86cc92e3da0000000000000000000000000000000000000000000000000000000067f3ea9f00000000000000000000000000000000000000000000000000000000000000000000000000000000000000000000000000000000000000000000000000000a800000000000000000000000007461d8c0fdf376c847b651d882dea4c73fad2e4b000000000000000000000000000000000000000000000000000000000000000000000000000000000000000000000000000000000000000000000000000000000000000000000000000000000000000000000000000000000214e8348c4f0000000000000000000000000000cc0966d8418d412c599a6421b760a847eb169a8c00000000000000000000000000000000000000000000000000000000000000000000000000000000000000000000000000000000000000000000000000000000000000000000000000000000f380f025675a868ed5614a1dd77c6b05f41470040000000000000000000000000000000000000000000000000bcbce7f1b1500000000000000000000000000000000000000000000000000000c7d713b49da00000000000000000000000000000000000000000000000000000c3663566a58000000000000000000000000000000000000000000000000000000b1a2bc2ec5000000000000000000000000000000000000000000000000000000000000000000000000000000000000000000000000000000000000000000000000000000000000000000000000000000000000541fd749419ca806a8bc7da8ac23d346f2df8b7700000000000000000000000000000000000000000000000000000000000000000000000000000000000000000000000000000000000000000000000000000000000000000000000000000000f380f025675a868ed5614a1dd77c6b05f41470040000000000000000000000000000000000000000000000000bcbce7f1b1500000000000000000000000000000000000000000000000000000c7d713b49da00000000000000000000000000000000000000000000000000000c3663566a58000000000000000000000000000000000000000000000000000000b1a2bc2ec50000000000000000000000000000000000000000000000000000000000000000000000000000000000000000000000000000000000000000000000000000000000000000000000000000000000000000000000000000000000000000000000000080000000000000000000000000000000000000000000000000000000000000022000000000000000000000000000000000000000000000000000000000000002a000000000000000000000000000000000000000000000000000000000000004400000000000000000000000000000000000000000000000000000000000000000000000000000000000000000653b957dac238a918c4b7dda798ae09920355edc000000000000000000000000000000000000000000000000000000000000006000000000000000000000000000000000000000000000000000000000000001044b4de5ff000000000000000000000000cc0966d8418d412c599a6421b760a847eb169a8c000000000000000000000000ad525f341368aa80093672278234ad364efcaf0a00000000000000000000000026fb59e5562405f42f55661f790fa1bd2f410a3d00000000000000000000000000000000000000000000000000000000000056b9000000000000000000000000000000000000000000000000000000000000000000000000000000000000000000000000000000000000000000000000000000000000000000000000000000000000000000000000000000000000000005f5e10000000000000000000000000000000000000000000000000000000000000000000000000000000000000000000000000000000000000000000000000000000000000000000000000000000000000000000000000000000000000000000000000000000000000000000000000000000000000000000000000000000000000000000000000000000000000000000000000000000000000000000000006000000000000000000000000000000000000000000000000000000000000000000000000000000000000000000000000000000000000000000000000000000000000000000000000000000000653b957dac238a918c4b7dda798ae09920355edc000000000000000000000000000000000000000000000000000000000000006000000000000000000000000000000000000000000000000000000000000001044b4de5ff000000000000000000000000541fd749419ca806a8bc7da8ac23d346f2df8b77000000000000000000000000ad525f341368aa80093672278234ad364efcaf0a0000000000000000000000004af6b78d92432d32e3a635e824d3a541866f7a7800000000000000000000000000000000000000000000000000000000000056b9000000000000000000000000000000000000000000000000000000000000000000000000000000000000000000000000000000000000000000000000000000000000000000000000000000000000000000000000000000000000000005f5e10000000000000000000000000000000000000000000000000000000000000000000000000000000000000000000000000000000000000000000000000000000000000000000000000000000000000000000000000000000000000000000000000000000000000000000000000000000000000000000000000000000000000000000000000000000000000000000000000000000000000000000000006000000000000000000000000000000000000000000000000000000000000000000000000000000000000000007940cb3a486545ca310908edb0d62a41f91d3008000000000000000000000000000000000000000000000000000000000000004000000000000000000000000000000000000000000000000000000000000000200000000000000000000000007461d8c0fdf376c847b651d882dea4c73fad2e4b",
        "nonce": "0x81",
        "chainId": "0x92"
      },
      "additionalContracts": [],
      "isFixedGasLimit": false
    }
  ],
  "receipts": [
    {
      "status": "0x1",
      "cumulativeGasUsed": "0x41f4c1",
      "logs": [
        {
          "address": "0x34bb955f10f01e05d2639a12a9fbf770853eac4b",
          "topics": [
            "0xc7f505b2f371ae2175ee4913f4499e1f2633a7b5936321eed1cdaeb6115181d2"
          ],
          "data": "0x0000000000000000000000000000000000000000000000000000000000000001",
          "blockHash": "0xf0a6f983986dff301ab5e102fabd2c442113988a115653fef7901a519f089e78",
          "blockNumber": "0x480747",
          "transactionHash": "0xce827a74f7f23f99df1e8b1b9af7379c7e7900278070080df179ea781b929a43",
          "transactionIndex": "0x3",
          "logIndex": "0xd",
          "removed": false
        },
        {
          "address": "0x9ed5a9c8f09aa245f105b23b1ee27723c4ad8d69",
          "topics": [
            "0xc7f505b2f371ae2175ee4913f4499e1f2633a7b5936321eed1cdaeb6115181d2"
          ],
          "data": "0x0000000000000000000000000000000000000000000000000000000000000001",
          "blockHash": "0xf0a6f983986dff301ab5e102fabd2c442113988a115653fef7901a519f089e78",
          "blockNumber": "0x480747",
          "transactionHash": "0xce827a74f7f23f99df1e8b1b9af7379c7e7900278070080df179ea781b929a43",
          "transactionIndex": "0x3",
          "logIndex": "0xe",
          "removed": false
        },
        {
          "address": "0x630e9b0cc7da474e4c95568e57330e1ddc0ceb6b",
          "topics": [
            "0xc7f505b2f371ae2175ee4913f4499e1f2633a7b5936321eed1cdaeb6115181d2"
          ],
          "data": "0x0000000000000000000000000000000000000000000000000000000000000001",
          "blockHash": "0xf0a6f983986dff301ab5e102fabd2c442113988a115653fef7901a519f089e78",
          "blockNumber": "0x480747",
          "transactionHash": "0xce827a74f7f23f99df1e8b1b9af7379c7e7900278070080df179ea781b929a43",
          "transactionIndex": "0x3",
          "logIndex": "0xf",
          "removed": false
        },
        {
          "address": "0x2cb4c8e024720f6c9af9d401e861d8f576448b34",
          "topics": [
            "0xc7f505b2f371ae2175ee4913f4499e1f2633a7b5936321eed1cdaeb6115181d2"
          ],
          "data": "0x0000000000000000000000000000000000000000000000000000000000000001",
          "blockHash": "0xf0a6f983986dff301ab5e102fabd2c442113988a115653fef7901a519f089e78",
          "blockNumber": "0x480747",
          "transactionHash": "0xce827a74f7f23f99df1e8b1b9af7379c7e7900278070080df179ea781b929a43",
          "transactionIndex": "0x3",
          "logIndex": "0x10",
          "removed": false
        },
        {
          "address": "0xb53d9336335fefd8cce61733c218988a7ebc715c",
          "topics": [
            "0xc7f505b2f371ae2175ee4913f4499e1f2633a7b5936321eed1cdaeb6115181d2"
          ],
          "data": "0x0000000000000000000000000000000000000000000000000000000000000001",
          "blockHash": "0xf0a6f983986dff301ab5e102fabd2c442113988a115653fef7901a519f089e78",
          "blockNumber": "0x480747",
          "transactionHash": "0xce827a74f7f23f99df1e8b1b9af7379c7e7900278070080df179ea781b929a43",
          "transactionIndex": "0x3",
          "logIndex": "0x11",
          "removed": false
        },
        {
          "address": "0x5e76b1d1b3b7bb435b5730fa24cc65c978881f0e",
          "topics": [
            "0xc7f505b2f371ae2175ee4913f4499e1f2633a7b5936321eed1cdaeb6115181d2"
          ],
          "data": "0x0000000000000000000000000000000000000000000000000000000000000001",
          "blockHash": "0xf0a6f983986dff301ab5e102fabd2c442113988a115653fef7901a519f089e78",
          "blockNumber": "0x480747",
          "transactionHash": "0xce827a74f7f23f99df1e8b1b9af7379c7e7900278070080df179ea781b929a43",
          "transactionIndex": "0x3",
          "logIndex": "0x12",
          "removed": false
        },
        {
          "address": "0x34bb955f10f01e05d2639a12a9fbf770853eac4b",
          "topics": [
            "0x2b7ec2cd1f9292c7a9ae800c2479f6be4217beacb0c01ef2d7e4e84fced3d75b"
          ],
          "data": "0x00000000000000000000000000000000000000000000000000000000000000000000000000000000000000000000000000000000000000000000000000000000",
          "blockHash": "0xf0a6f983986dff301ab5e102fabd2c442113988a115653fef7901a519f089e78",
          "blockNumber": "0x480747",
          "transactionHash": "0xce827a74f7f23f99df1e8b1b9af7379c7e7900278070080df179ea781b929a43",
          "transactionIndex": "0x3",
          "logIndex": "0x13",
          "removed": false
        },
        {
          "address": "0x9ed5a9c8f09aa245f105b23b1ee27723c4ad8d69",
          "topics": [
            "0x2b7ec2cd1f9292c7a9ae800c2479f6be4217beacb0c01ef2d7e4e84fced3d75b"
          ],
          "data": "0x00000000000000000000000000000000000000000000000000000000000000000000000000000000000000000000000000000000000000000000000000000000",
          "blockHash": "0xf0a6f983986dff301ab5e102fabd2c442113988a115653fef7901a519f089e78",
          "blockNumber": "0x480747",
          "transactionHash": "0xce827a74f7f23f99df1e8b1b9af7379c7e7900278070080df179ea781b929a43",
          "transactionIndex": "0x3",
          "logIndex": "0x14",
          "removed": false
        },
        {
          "address": "0xa42001d6d2237d2c74108fe360403c4b796b7170",
          "topics": [
            "0xddf252ad1be2c89b69c2b068fc378daa952ba7f163c4a11628f55a4df523b3ef",
            "0x0000000000000000000000000000000000000000000000000000000000000000",
            "0x0000000000000000000000007461d8c0fdf376c847b651d882dea4c73fad2e4b",
            "0x000000000000000000000000000000000000000000000000000000000000000c"
          ],
          "data": "0x",
          "blockHash": "0xf0a6f983986dff301ab5e102fabd2c442113988a115653fef7901a519f089e78",
          "blockNumber": "0x480747",
          "transactionHash": "0xce827a74f7f23f99df1e8b1b9af7379c7e7900278070080df179ea781b929a43",
          "transactionIndex": "0x3",
          "logIndex": "0x15",
          "removed": false
        },
        {
          "address": "0xa42001d6d2237d2c74108fe360403c4b796b7170",
          "topics": [
            "0x3d6b896c73b628ec6ba0bdfe3cdee1356ea2af31af2a97bbd6b532ca6fa00acb",
            "0x00000000000000000000000085b0273b0b415f9e28b9ce820240f4aa097f2a29",
            "0x000000000000000000000000cc0966d8418d412c599a6421b760a847eb169a8c",
            "0x000000000000000000000000541fd749419ca806a8bc7da8ac23d346f2df8b77"
          ],
          "data": "0x00000000000000000000000034bb955f10f01e05d2639a12a9fbf770853eac4b0000000000000000000000009ed5a9c8f09aa245f105b23b1ee27723c4ad8d69000000000000000000000000a9e974074d2ebd950f742449200a56a5097c928e",
          "blockHash": "0xf0a6f983986dff301ab5e102fabd2c442113988a115653fef7901a519f089e78",
          "blockNumber": "0x480747",
          "transactionHash": "0xce827a74f7f23f99df1e8b1b9af7379c7e7900278070080df179ea781b929a43",
          "transactionIndex": "0x3",
          "logIndex": "0x16",
          "removed": false
        },
        {
          "address": "0x693878d2f4bfc596656fb0d72d97905e9246de17",
          "topics": [
            "0x8be0079c531659141344cd1fd0a4f28419497f9722a3daafe3b4186f6b6457e0",
            "0x0000000000000000000000000000000000000000000000000000000000000000",
            "0x0000000000000000000000007461d8c0fdf376c847b651d882dea4c73fad2e4b"
          ],
          "data": "0x",
          "blockHash": "0xf0a6f983986dff301ab5e102fabd2c442113988a115653fef7901a519f089e78",
          "blockNumber": "0x480747",
          "transactionHash": "0xce827a74f7f23f99df1e8b1b9af7379c7e7900278070080df179ea781b929a43",
          "transactionIndex": "0x3",
          "logIndex": "0x17",
          "removed": false
        },
        {
          "address": "0x693878d2f4bfc596656fb0d72d97905e9246de17",
          "topics": [
            "0xc7f505b2f371ae2175ee4913f4499e1f2633a7b5936321eed1cdaeb6115181d2"
          ],
          "data": "0x0000000000000000000000000000000000000000000000000000000000000001",
          "blockHash": "0xf0a6f983986dff301ab5e102fabd2c442113988a115653fef7901a519f089e78",
          "blockNumber": "0x480747",
          "transactionHash": "0xce827a74f7f23f99df1e8b1b9af7379c7e7900278070080df179ea781b929a43",
          "transactionIndex": "0x3",
          "logIndex": "0x18",
          "removed": false
        },
        {
          "address": "0x44e9c695624dad0bb3690a40c90e6d7964b32d3d",
          "topics": [
            "0x520b4351811464729581037d20341082d8883f518612cfb0d3c2f75c12b0c29d"
          ],
          "data": "0x000000000000000000000000a9e974074d2ebd950f742449200a56a5097c928e",
          "blockHash": "0xf0a6f983986dff301ab5e102fabd2c442113988a115653fef7901a519f089e78",
          "blockNumber": "0x480747",
          "transactionHash": "0xce827a74f7f23f99df1e8b1b9af7379c7e7900278070080df179ea781b929a43",
          "transactionIndex": "0x3",
          "logIndex": "0x19",
          "removed": false
        }
      ],
      "logsBloom": "0x00000000000000000000000000000000000002000100048000800000000000000000000000000200000000248000000000000008000008001080000010000000004100000001040400000008010000000001000000000400000000040000000000000000020000800000000000000800000000000000000000000010802000600040200000000000000800008004000000000000000080000000000400000000001020000100000000000000800000000004004000400000000800000000000000000002000008000208000000000100000020000086000000010000000020200010000400000000000000000000000000000000000000000000000008000000",
      "type": "0x2",
      "transactionHash": "0xce827a74f7f23f99df1e8b1b9af7379c7e7900278070080df179ea781b929a43",
      "transactionIndex": "0x3",
      "blockHash": "0xf0a6f983986dff301ab5e102fabd2c442113988a115653fef7901a519f089e78",
      "blockNumber": "0x480747",
      "gasUsed": "0x37de1e",
      "effectiveGasPrice": "0xba43b7401",
      "from": "0x6d228fa4dad2163056a48fc2186d716f5c65e89a",
      "to": "0x44e9c695624dad0bb3690a40c90e6d7964b32d3d",
      "contractAddress": null
    }
  ],
  "libraries": [],
  "pending": [],
  "returns": {
    "siloConfig": {
      "internal_type": "contract ISiloConfig",
      "value": "0xa9e974074D2ebD950F742449200A56A5097C928e"
    }
  },
  "timestamp": 1737399844,
  "chain": 146,
  "commit": "1d3148f0"
}