{
  "transactions": [
    {
      "hash": "0xda466de56426c18ee1cbcbab0d8c33c570b26c787e1392c2a31f4ca0e2a7b85c",
      "transactionType": "CALL",
      "contractName": "SiloDeployer",
      "contractAddress": "0x44e9c695624dad0bb3690a40c90e6d7964b32d3d",
      "function": "deploy(((address,address,bytes),(address,address,bytes),(address,address,bytes),(address,address,bytes)),(int256,int256,int256,int256,int256,int256,int256,int256,int112,int112),(int256,int256,int256,int256,int256,int256,int256,int256,int112,int112),(address,bytes),(address,address,uint256,uint256,address,address,address,address,uint256,uint256,uint256,uint256,uint256,bool,address,address,address,address,uint256,uint256,uint256,uint256,uint256,bool))",
      "arguments": [
        "((0x0000000000000000000000000000000000000000, 0x653B957DAC238A918C4b7DDa798AE09920355Edc, 0x4b4de5ff000000000000000000000000039e2fb66102314ce7b64ce5ce3e5183bc94ad38000000000000000000000000ad525f341368aa80093672278234ad364efcaf0a000000000000000000000000c76dfb89ff298145b417d221b2c747d84952e01d00000000000000000000000000000000000000000000000000000000000153d9000000000000000000000000000000000000000000000000000000000000000000000000000000000000000000000000000000000000000000000000000000000000000000000000000000000000000000000000000000000000000005f5e1000000000000000000000000000000000000000000000000000000000000000000), (0x0000000000000000000000000000000000000000, 0x0000000000000000000000000000000000000000, 0x), (0x0000000000000000000000000000000000000000, 0x653B957DAC238A918C4b7DDa798AE09920355Edc, 0x4b4de5ff00000000000000000000000029219dd400f2bf60e5a23d13be72b486d4038894000000000000000000000000ad525f341368aa80093672278234ad364efcaf0a00000000000000000000000055bca887199d5520b3ce285d41e6dc10c08716c900000000000000000000000000000000000000000000000000000000000153d90000000000000000000000000000000000000000000000000000000000000000000000000000000000000000000000000000000000000000000000000000000000000000000000000000000000000000000000000000000000000000000000000000000000000000000000000000000000000000000000000000000000002710), (0x0000000000000000000000000000000000000000, 0x0000000000000000000000000000000000000000, 0x))",
        "(900000000000000001, 900000000000000002, 900000000000000000, 0, 7927447996, 1937820621, 0, 23148148148148, 1744038559, 0)",
        "(900000000000000001, 900000000000000002, 900000000000000000, 0, 14079147641, 4721235695, 0, 17465382048715, 4249112126, 0)",
        "(0x7940CB3a486545Ca310908edb0d62a41f91D3008, 0x0000000000000000000000006d228fa4dad2163056a48fc2186d716f5c65e89a)",
        "(0x7461d8c0fDF376c847b651D882DEa4C73fad2e4B, 0x0000000000000000000000000000000000000000, 0, 100000000000000000, 0x039e2fB66102314Ce7b64Ce5Ce3E5183bc94aD38, 0x0000000000000000000000000000000000000000, 0x0000000000000000000000000000000000000000, 0xF380F025675A868eD5614a1Dd77c6b05f4147004, 750000000000000000, 800000000000000000, 780000000000000000, 65000000000000000, 1000000000000000, false, 0x29219dd400f2Bf60E5a23d13Be72B486D4038894, 0x0000000000000000000000000000000000000000, 0x0000000000000000000000000000000000000000, 0xF380F025675A868eD5614a1Dd77c6b05f4147004, 0, 0, 0, 0, 1000000000000000, false)"
      ],
      "transaction": {
        "from": "0x6d228fa4dad2163056a48fc2186d716f5c65e89a",
        "to": "0x44e9c695624dad0bb3690a40c90e6d7964b32d3d",
        "gas": "0x4a5f73",
        "value": "0x0",
        "input": "0xe1329d5500000000000000000000000000000000000000000000000000000000000005c00000000000000000000000000000000000000000000000000c7d713b49da00010000000000000000000000000000000000000000000000000c7d713b49da00020000000000000000000000000000000000000000000000000c7d713b49da0000000000000000000000000000000000000000000000000000000000000000000000000000000000000000000000000000000000000000000000000001d88341bc000000000000000000000000000000000000000000000000000000007380cbcd00000000000000000000000000000000000000000000000000000000000000000000000000000000000000000000000000000000000000000000150d9925c7b40000000000000000000000000000000000000000000000000000000067f3ea9f00000000000000000000000000000000000000000000000000000000000000000000000000000000000000000000000000000000000000000c7d713b49da00010000000000000000000000000000000000000000000000000c7d713b49da00020000000000000000000000000000000000000000000000000c7d713b49da0000000000000000000000000000000000000000000000000000000000000000000000000000000000000000000000000000000000000000000000000003472ebe7900000000000000000000000000000000000000000000000000000001196856ef000000000000000000000000000000000000000000000000000000000000000000000000000000000000000000000000000000000000000000000fe279e493cb00000000000000000000000000000000000000000000000000000000fd444e3e00000000000000000000000000000000000000000000000000000000000000000000000000000000000000000000000000000000000000000000000000000a800000000000000000000000007461d8c0fdf376c847b651d882dea4c73fad2e4b00000000000000000000000000000000000000000000000000000000000000000000000000000000000000000000000000000000000000000000000000000000000000000000000000000000000000000000000000000000016345785d8a0000000000000000000000000000039e2fb66102314ce7b64ce5ce3e5183bc94ad3800000000000000000000000000000000000000000000000000000000000000000000000000000000000000000000000000000000000000000000000000000000000000000000000000000000f380f025675a868ed5614a1dd77c6b05f41470040000000000000000000000000000000000000000000000000a688906bd8b00000000000000000000000000000000000000000000000000000b1a2bc2ec5000000000000000000000000000000000000000000000000000000ad31dde0cce000000000000000000000000000000000000000000000000000000e6ed27d666800000000000000000000000000000000000000000000000000000038d7ea4c68000000000000000000000000000000000000000000000000000000000000000000000000000000000000000000029219dd400f2bf60e5a23d13be72b486d403889400000000000000000000000000000000000000000000000000000000000000000000000000000000000000000000000000000000000000000000000000000000000000000000000000000000f380f025675a868ed5614a1dd77c6b05f4147004000000000000000000000000000000000000000000000000000000000000000000000000000000000000000000000000000000000000000000000000000000000000000000000000000000000000000000000000000000000000000000000000000000000000000000000000000000000000000000000000000000000000000000000000000000000000000000000000000000000000000000038d7ea4c6800000000000000000000000000000000000000000000000000000000000000000000000000000000000000000000000000000000000000000000000000000000080000000000000000000000000000000000000000000000000000000000000022000000000000000000000000000000000000000000000000000000000000002a000000000000000000000000000000000000000000000000000000000000004400000000000000000000000000000000000000000000000000000000000000000000000000000000000000000653b957dac238a918c4b7dda798ae09920355edc000000000000000000000000000000000000000000000000000000000000006000000000000000000000000000000000000000000000000000000000000001044b4de5ff000000000000000000000000039e2fb66102314ce7b64ce5ce3e5183bc94ad38000000000000000000000000ad525f341368aa80093672278234ad364efcaf0a000000000000000000000000c76dfb89ff298145b417d221b2c747d84952e01d00000000000000000000000000000000000000000000000000000000000153d9000000000000000000000000000000000000000000000000000000000000000000000000000000000000000000000000000000000000000000000000000000000000000000000000000000000000000000000000000000000000000005f5e10000000000000000000000000000000000000000000000000000000000000000000000000000000000000000000000000000000000000000000000000000000000000000000000000000000000000000000000000000000000000000000000000000000000000000000000000000000000000000000000000000000000000000000000000000000000000000000000000000000000000000000000006000000000000000000000000000000000000000000000000000000000000000000000000000000000000000000000000000000000000000000000000000000000000000000000000000000000653b957dac238a918c4b7dda798ae09920355edc000000000000000000000000000000000000000000000000000000000000006000000000000000000000000000000000000000000000000000000000000001044b4de5ff00000000000000000000000029219dd400f2bf60e5a23d13be72b486d4038894000000000000000000000000ad525f341368aa80093672278234ad364efcaf0a00000000000000000000000055bca887199d5520b3ce285d41e6dc10c08716c900000000000000000000000000000000000000000000000000000000000153d900000000000000000000000000000000000000000000000000000000000000000000000000000000000000000000000000000000000000000000000000000000000000000000000000000000000000000000000000000000000000000000000000000000000000000000000000000000000000000000000000000000000027100000000000000000000000000000000000000000000000000000000000000000000000000000000000000000000000000000000000000000000000000000000000000000000000000000000000000000000000000000000000000000000000000000000000000000000000000000000000000000000000000000006000000000000000000000000000000000000000000000000000000000000000000000000000000000000000007940cb3a486545ca310908edb0d62a41f91d3008000000000000000000000000000000000000000000000000000000000000004000000000000000000000000000000000000000000000000000000000000000200000000000000000000000006d228fa4dad2163056a48fc2186d716f5c65e89a",
        "nonce": "0x6c",
        "chainId": "0x92"
      },
      "additionalContracts": [],
      "isFixedGasLimit": false
    }
  ],
  "receipts": [
    {
      "status": "0x1",
      "cumulativeGasUsed": "0x37e5bd",
      "logs": [
        {
          "address": "0xe223c8e92aa91e966ca31d5c6590ff7167e25801",
          "topics": [
            "0xc7f505b2f371ae2175ee4913f4499e1f2633a7b5936321eed1cdaeb6115181d2"
          ],
          "data": "0x0000000000000000000000000000000000000000000000000000000000000001",
          "blockHash": "0x9d00f5f64c882c2806840878b9a803eba3a24c20c81e46dd5af896bccb442382",
          "blockNumber": "0x413668",
          "transactionHash": "0xda466de56426c18ee1cbcbab0d8c33c570b26c787e1392c2a31f4ca0e2a7b85c",
          "transactionIndex": "0x0",
          "logIndex": "0x0",
          "removed": false
        },
        {
          "address": "0x4e216c15697c1392fe59e1014b009505e05810df",
          "topics": [
            "0xc7f505b2f371ae2175ee4913f4499e1f2633a7b5936321eed1cdaeb6115181d2"
          ],
          "data": "0x0000000000000000000000000000000000000000000000000000000000000001",
          "blockHash": "0x9d00f5f64c882c2806840878b9a803eba3a24c20c81e46dd5af896bccb442382",
          "blockNumber": "0x413668",
          "transactionHash": "0xda466de56426c18ee1cbcbab0d8c33c570b26c787e1392c2a31f4ca0e2a7b85c",
          "transactionIndex": "0x0",
          "logIndex": "0x1",
          "removed": false
        },
        {
          "address": "0xd385ffd74588d01464c8a55e8031a8ecdee2567d",
          "topics": [
            "0xc7f505b2f371ae2175ee4913f4499e1f2633a7b5936321eed1cdaeb6115181d2"
          ],
          "data": "0x0000000000000000000000000000000000000000000000000000000000000001",
          "blockHash": "0x9d00f5f64c882c2806840878b9a803eba3a24c20c81e46dd5af896bccb442382",
          "blockNumber": "0x413668",
          "transactionHash": "0xda466de56426c18ee1cbcbab0d8c33c570b26c787e1392c2a31f4ca0e2a7b85c",
          "transactionIndex": "0x0",
          "logIndex": "0x2",
          "removed": false
        },
        {
          "address": "0x75875d9405df9bd80f6a7a1b2b7e40dd848427a4",
          "topics": [
            "0xc7f505b2f371ae2175ee4913f4499e1f2633a7b5936321eed1cdaeb6115181d2"
          ],
          "data": "0x0000000000000000000000000000000000000000000000000000000000000001",
          "blockHash": "0x9d00f5f64c882c2806840878b9a803eba3a24c20c81e46dd5af896bccb442382",
          "blockNumber": "0x413668",
          "transactionHash": "0xda466de56426c18ee1cbcbab0d8c33c570b26c787e1392c2a31f4ca0e2a7b85c",
          "transactionIndex": "0x0",
          "logIndex": "0x3",
          "removed": false
        },
        {
          "address": "0x4b65f19ccc4c387f7d649ea42fa70feeaf613925",
          "topics": [
            "0xc7f505b2f371ae2175ee4913f4499e1f2633a7b5936321eed1cdaeb6115181d2"
          ],
          "data": "0x0000000000000000000000000000000000000000000000000000000000000001",
          "blockHash": "0x9d00f5f64c882c2806840878b9a803eba3a24c20c81e46dd5af896bccb442382",
          "blockNumber": "0x413668",
          "transactionHash": "0xda466de56426c18ee1cbcbab0d8c33c570b26c787e1392c2a31f4ca0e2a7b85c",
          "transactionIndex": "0x0",
          "logIndex": "0x4",
          "removed": false
        },
        {
          "address": "0xb1d70d54ec3caafece8812111681d93a3c524875",
          "topics": [
            "0xc7f505b2f371ae2175ee4913f4499e1f2633a7b5936321eed1cdaeb6115181d2"
          ],
          "data": "0x0000000000000000000000000000000000000000000000000000000000000001",
          "blockHash": "0x9d00f5f64c882c2806840878b9a803eba3a24c20c81e46dd5af896bccb442382",
          "blockNumber": "0x413668",
          "transactionHash": "0xda466de56426c18ee1cbcbab0d8c33c570b26c787e1392c2a31f4ca0e2a7b85c",
          "transactionIndex": "0x0",
          "logIndex": "0x5",
          "removed": false
        },
        {
          "address": "0xe223c8e92aa91e966ca31d5c6590ff7167e25801",
          "topics": [
            "0x2b7ec2cd1f9292c7a9ae800c2479f6be4217beacb0c01ef2d7e4e84fced3d75b"
          ],
          "data": "0x00000000000000000000000000000000000000000000000000000000000000000000000000000000000000000000000000000000000000000000000000000000",
          "blockHash": "0x9d00f5f64c882c2806840878b9a803eba3a24c20c81e46dd5af896bccb442382",
          "blockNumber": "0x413668",
          "transactionHash": "0xda466de56426c18ee1cbcbab0d8c33c570b26c787e1392c2a31f4ca0e2a7b85c",
          "transactionIndex": "0x0",
          "logIndex": "0x6",
          "removed": false
        },
        {
          "address": "0x4e216c15697c1392fe59e1014b009505e05810df",
          "topics": [
            "0x2b7ec2cd1f9292c7a9ae800c2479f6be4217beacb0c01ef2d7e4e84fced3d75b"
          ],
          "data": "0x00000000000000000000000000000000000000000000000000000000000000000000000000000000000000000000000000000000000000000000000000000000",
          "blockHash": "0x9d00f5f64c882c2806840878b9a803eba3a24c20c81e46dd5af896bccb442382",
          "blockNumber": "0x413668",
          "transactionHash": "0xda466de56426c18ee1cbcbab0d8c33c570b26c787e1392c2a31f4ca0e2a7b85c",
          "transactionIndex": "0x0",
          "logIndex": "0x7",
          "removed": false
        },
        {
          "address": "0xa42001d6d2237d2c74108fe360403c4b796b7170",
          "topics": [
            "0xddf252ad1be2c89b69c2b068fc378daa952ba7f163c4a11628f55a4df523b3ef",
            "0x0000000000000000000000000000000000000000000000000000000000000000",
            "0x0000000000000000000000007461d8c0fdf376c847b651d882dea4c73fad2e4b",
            "0x0000000000000000000000000000000000000000000000000000000000000008"
          ],
          "data": "0x",
          "blockHash": "0x9d00f5f64c882c2806840878b9a803eba3a24c20c81e46dd5af896bccb442382",
          "blockNumber": "0x413668",
          "transactionHash": "0xda466de56426c18ee1cbcbab0d8c33c570b26c787e1392c2a31f4ca0e2a7b85c",
          "transactionIndex": "0x0",
          "logIndex": "0x8",
          "removed": false
        },
        {
          "address": "0xa42001d6d2237d2c74108fe360403c4b796b7170",
          "topics": [
            "0x3d6b896c73b628ec6ba0bdfe3cdee1356ea2af31af2a97bbd6b532ca6fa00acb",
            "0x00000000000000000000000085b0273b0b415f9e28b9ce820240f4aa097f2a29",
            "0x000000000000000000000000039e2fb66102314ce7b64ce5ce3e5183bc94ad38",
            "0x00000000000000000000000029219dd400f2bf60e5a23d13be72b486d4038894"
          ],
          "data": "0x000000000000000000000000e223c8e92aa91e966ca31d5c6590ff7167e258010000000000000000000000004e216c15697c1392fe59e1014b009505e05810df0000000000000000000000004915f6d3c9a7b20cedfc5d3854f2802f30311d13",
          "blockHash": "0x9d00f5f64c882c2806840878b9a803eba3a24c20c81e46dd5af896bccb442382",
          "blockNumber": "0x413668",
          "transactionHash": "0xda466de56426c18ee1cbcbab0d8c33c570b26c787e1392c2a31f4ca0e2a7b85c",
          "transactionIndex": "0x0",
          "logIndex": "0x9",
          "removed": false
        },
        {
          "address": "0xb01e62ba9bec9cfa24b2ee321392b8ce726d2a09",
          "topics": [
            "0x8be0079c531659141344cd1fd0a4f28419497f9722a3daafe3b4186f6b6457e0",
            "0x0000000000000000000000000000000000000000000000000000000000000000",
            "0x0000000000000000000000006d228fa4dad2163056a48fc2186d716f5c65e89a"
          ],
          "data": "0x",
          "blockHash": "0x9d00f5f64c882c2806840878b9a803eba3a24c20c81e46dd5af896bccb442382",
          "blockNumber": "0x413668",
          "transactionHash": "0xda466de56426c18ee1cbcbab0d8c33c570b26c787e1392c2a31f4ca0e2a7b85c",
          "transactionIndex": "0x0",
          "logIndex": "0xa",
          "removed": false
        },
        {
          "address": "0xb01e62ba9bec9cfa24b2ee321392b8ce726d2a09",
          "topics": [
            "0xc7f505b2f371ae2175ee4913f4499e1f2633a7b5936321eed1cdaeb6115181d2"
          ],
          "data": "0x0000000000000000000000000000000000000000000000000000000000000001",
          "blockHash": "0x9d00f5f64c882c2806840878b9a803eba3a24c20c81e46dd5af896bccb442382",
          "blockNumber": "0x413668",
          "transactionHash": "0xda466de56426c18ee1cbcbab0d8c33c570b26c787e1392c2a31f4ca0e2a7b85c",
          "transactionIndex": "0x0",
          "logIndex": "0xb",
          "removed": false
        },
        {
          "address": "0x44e9c695624dad0bb3690a40c90e6d7964b32d3d",
          "topics": [
            "0x520b4351811464729581037d20341082d8883f518612cfb0d3c2f75c12b0c29d"
          ],
          "data": "0x0000000000000000000000004915f6d3c9a7b20cedfc5d3854f2802f30311d13",
          "blockHash": "0x9d00f5f64c882c2806840878b9a803eba3a24c20c81e46dd5af896bccb442382",
          "blockNumber": "0x413668",
          "transactionHash": "0xda466de56426c18ee1cbcbab0d8c33c570b26c787e1392c2a31f4ca0e2a7b85c",
          "transactionIndex": "0x0",
          "logIndex": "0xc",
          "removed": false
        }
      ],
      "logsBloom": "0x00000800000000000000000000000000000800000100008080900000000020000000000000000804000000000000000000800008000084000000000000000000004100000000040000042008000000000001000000000400000000000000000000000000020000c00000000000000800000000080000020000000010800000e000c0200000001000000800008000000000000000000080000000000000000000000020000100000000000000000000000000000000402100100000001000002040000002000008000000100000000900000000000086001000010000000020000001100000000000000000000000000000000000000000000020004000008000",
      "type": "0x2",
      "transactionHash": "0xda466de56426c18ee1cbcbab0d8c33c570b26c787e1392c2a31f4ca0e2a7b85c",
      "transactionIndex": "0x0",
      "blockHash": "0x9d00f5f64c882c2806840878b9a803eba3a24c20c81e46dd5af896bccb442382",
      "blockNumber": "0x413668",
      "gasUsed": "0x37e5bd",
      "effectiveGasPrice": "0x174876e801",
      "from": "0x6d228fa4dad2163056a48fc2186d716f5c65e89a",
      "to": "0x44e9c695624dad0bb3690a40c90e6d7964b32d3d",
      "contractAddress": null
    }
  ],
  "libraries": [],
  "pending": [],
  "returns": {
    "siloConfig": {
      "internal_type": "contract ISiloConfig",
      "value": "0x4915F6d3C9a7B20CedFc5d3854f2802f30311d13"
    }
  },
  "timestamp": 1737124535,
  "chain": 146,
  "commit": "9e4cf299"
}