{
  "transactions": [
    {
      "hash": "0xb316f5fb4ecfffc5c370cdedf0cf5598afda3a3ada167998225b76fca4319627",
      "transactionType": "CALL",
      "contractName": null,
      "contractAddress": "0x44e9c695624dad0bb3690a40c90e6d7964b32d3d",
      "function": "deploy(((address,address,bytes),(address,address,bytes),(address,address,bytes),(address,address,bytes)),(int256,int256,int256,int256,int256,int256,int256,int256,int112,int112),(int256,int256,int256,int256,int256,int256,int256,int256,int112,int112),(address,bytes),(address,address,uint256,uint256,address,address,address,address,uint256,uint256,uint256,uint256,uint256,bool,address,address,address,address,uint256,uint256,uint256,uint256,uint256,bool))",
      "arguments": [
        "((0x0000000000000000000000000000000000000000, 0x653B957DAC238A918C4b7DDa798AE09920355Edc, 0x4b4de5ff000000000000000000000000cc0966d8418d412c599a6421b760a847eb169a8c000000000000000000000000ad525f341368aa80093672278234ad364efcaf0a00000000000000000000000026fb59e5562405f42f55661f790fa1bd2f410a3d00000000000000000000000000000000000000000000000000000000000056b9000000000000000000000000000000000000000000000000000000000000000000000000000000000000000000000000000000000000000000000000000000000000000000000000000000000000000000000000000000000000000005f5e1000000000000000000000000000000000000000000000000000000000000000000), (0x0000000000000000000000000000000000000000, 0x0000000000000000000000000000000000000000, 0x), (0x0000000000000000000000000000000000000000, 0x653B957DAC238A918C4b7DDa798AE09920355Edc, 0x4b4de5ff000000000000000000000000541fd749419ca806a8bc7da8ac23d346f2df8b77000000000000000000000000ad525f341368aa80093672278234ad364efcaf0a0000000000000000000000004af6b78d92432d32e3a635e824d3a541866f7a7800000000000000000000000000000000000000000000000000000000000056b9000000000000000000000000000000000000000000000000000000000000000000000000000000000000000000000000000000000000000000000000000000000000000000000000000000000000000000000000000000000000000005f5e1000000000000000000000000000000000000000000000000000000000000000000), (0x0000000000000000000000000000000000000000, 0x0000000000000000000000000000000000000000, 0x))",
        "(900000000000000001, 900000000000000002, 900000000000000000, 0, 7927447996, 1937820621, 0, 11574074074074, 1744038559, 0)",
        "(900000000000000001, 900000000000000002, 900000000000000000, 0, 7927447996, 1937820621, 0, 11574074074074, 1744038559, 0)",
        "(0x7940CB3a486545Ca310908edb0d62a41f91D3008, 0x0000000000000000000000007461d8c0fdf376c847b651d882dea4c73fad2e4b)",
        "(0x7461d8c0fDF376c847b651D882DEa4C73fad2e4B, 0x0000000000000000000000000000000000000000, 0, 150000000000000000, 0xCC0966D8418d412c599A6421b760a847eB169A8c, 0x0000000000000000000000000000000000000000, 0x0000000000000000000000000000000000000000, 0xF380F025675A868eD5614a1Dd77c6b05f4147004, 850000000000000000, 900000000000000000, 880000000000000000, 50000000000000000, 0, false, 0x541FD749419CA806a8bc7da8ac23D346f2dF8B77, 0x0000000000000000000000000000000000000000, 0x0000000000000000000000000000000000000000, 0xF380F025675A868eD5614a1Dd77c6b05f4147004, 850000000000000000, 900000000000000000, 880000000000000000, 50000000000000000, 0, false)"
      ],
      "transaction": {
        "from": "0x6d228fa4dad2163056a48fc2186d716f5c65e89a",
        "to": "0x44e9c695624dad0bb3690a40c90e6d7964b32d3d",
        "gas": "0x4a554f",
        "value": "0x0",
        "input": "0xe1329d5500000000000000000000000000000000000000000000000000000000000005c00000000000000000000000000000000000000000000000000c7d713b49da00010000000000000000000000000000000000000000000000000c7d713b49da00020000000000000000000000000000000000000000000000000c7d713b49da0000000000000000000000000000000000000000000000000000000000000000000000000000000000000000000000000000000000000000000000000001d88341bc000000000000000000000000000000000000000000000000000000007380cbcd000000000000000000000000000000000000000000000000000000000000000000000000000000000000000000000000000000000000000000000a86cc92e3da0000000000000000000000000000000000000000000000000000000067f3ea9f00000000000000000000000000000000000000000000000000000000000000000000000000000000000000000000000000000000000000000c7d713b49da00010000000000000000000000000000000000000000000000000c7d713b49da00020000000000000000000000000000000000000000000000000c7d713b49da0000000000000000000000000000000000000000000000000000000000000000000000000000000000000000000000000000000000000000000000000001d88341bc000000000000000000000000000000000000000000000000000000007380cbcd000000000000000000000000000000000000000000000000000000000000000000000000000000000000000000000000000000000000000000000a86cc92e3da0000000000000000000000000000000000000000000000000000000067f3ea9f00000000000000000000000000000000000000000000000000000000000000000000000000000000000000000000000000000000000000000000000000000a800000000000000000000000007461d8c0fdf376c847b651d882dea4c73fad2e4b000000000000000000000000000000000000000000000000000000000000000000000000000000000000000000000000000000000000000000000000000000000000000000000000000000000000000000000000000000000214e8348c4f0000000000000000000000000000cc0966d8418d412c599a6421b760a847eb169a8c00000000000000000000000000000000000000000000000000000000000000000000000000000000000000000000000000000000000000000000000000000000000000000000000000000000f380f025675a868ed5614a1dd77c6b05f41470040000000000000000000000000000000000000000000000000bcbce7f1b1500000000000000000000000000000000000000000000000000000c7d713b49da00000000000000000000000000000000000000000000000000000c3663566a58000000000000000000000000000000000000000000000000000000b1a2bc2ec5000000000000000000000000000000000000000000000000000000000000000000000000000000000000000000000000000000000000000000000000000000000000000000000000000000000000541fd749419ca806a8bc7da8ac23d346f2df8b7700000000000000000000000000000000000000000000000000000000000000000000000000000000000000000000000000000000000000000000000000000000000000000000000000000000f380f025675a868ed5614a1dd77c6b05f41470040000000000000000000000000000000000000000000000000bcbce7f1b1500000000000000000000000000000000000000000000000000000c7d713b49da00000000000000000000000000000000000000000000000000000c3663566a58000000000000000000000000000000000000000000000000000000b1a2bc2ec50000000000000000000000000000000000000000000000000000000000000000000000000000000000000000000000000000000000000000000000000000000000000000000000000000000000000000000000000000000000000000000000000080000000000000000000000000000000000000000000000000000000000000022000000000000000000000000000000000000000000000000000000000000002a000000000000000000000000000000000000000000000000000000000000004400000000000000000000000000000000000000000000000000000000000000000000000000000000000000000653b957dac238a918c4b7dda798ae09920355edc000000000000000000000000000000000000000000000000000000000000006000000000000000000000000000000000000000000000000000000000000001044b4de5ff000000000000000000000000cc0966d8418d412c599a6421b760a847eb169a8c000000000000000000000000ad525f341368aa80093672278234ad364efcaf0a00000000000000000000000026fb59e5562405f42f55661f790fa1bd2f410a3d00000000000000000000000000000000000000000000000000000000000056b9000000000000000000000000000000000000000000000000000000000000000000000000000000000000000000000000000000000000000000000000000000000000000000000000000000000000000000000000000000000000000005f5e10000000000000000000000000000000000000000000000000000000000000000000000000000000000000000000000000000000000000000000000000000000000000000000000000000000000000000000000000000000000000000000000000000000000000000000000000000000000000000000000000000000000000000000000000000000000000000000000000000000000000000000000006000000000000000000000000000000000000000000000000000000000000000000000000000000000000000000000000000000000000000000000000000000000000000000000000000000000653b957dac238a918c4b7dda798ae09920355edc000000000000000000000000000000000000000000000000000000000000006000000000000000000000000000000000000000000000000000000000000001044b4de5ff000000000000000000000000541fd749419ca806a8bc7da8ac23d346f2df8b77000000000000000000000000ad525f341368aa80093672278234ad364efcaf0a0000000000000000000000004af6b78d92432d32e3a635e824d3a541866f7a7800000000000000000000000000000000000000000000000000000000000056b9000000000000000000000000000000000000000000000000000000000000000000000000000000000000000000000000000000000000000000000000000000000000000000000000000000000000000000000000000000000000000005f5e10000000000000000000000000000000000000000000000000000000000000000000000000000000000000000000000000000000000000000000000000000000000000000000000000000000000000000000000000000000000000000000000000000000000000000000000000000000000000000000000000000000000000000000000000000000000000000000000000000000000000000000000006000000000000000000000000000000000000000000000000000000000000000000000000000000000000000007940cb3a486545ca310908edb0d62a41f91d3008000000000000000000000000000000000000000000000000000000000000004000000000000000000000000000000000000000000000000000000000000000200000000000000000000000007461d8c0fdf376c847b651d882dea4c73fad2e4b",
        "nonce": "0x80",
        "chainId": "0x92"
      },
      "additionalContracts": [],
      "isFixedGasLimit": false
    }
  ],
  "receipts": [
    {
      "status": "0x1",
      "cumulativeGasUsed": "0x37de1e",
      "logs": [
        {
          "address": "0xd8e21d3cb790af3e31c4f42313694f45a5dabecd",
          "topics": [
            "0xc7f505b2f371ae2175ee4913f4499e1f2633a7b5936321eed1cdaeb6115181d2"
          ],
          "data": "0x0000000000000000000000000000000000000000000000000000000000000001",
          "blockHash": "0x92dcbda7a82c48b072f3c4da84928b07d08352ab0d50f3b893b91f77635f897b",
          "blockNumber": "0x47ffa2",
          "transactionHash": "0xb316f5fb4ecfffc5c370cdedf0cf5598afda3a3ada167998225b76fca4319627",
          "transactionIndex": "0x0",
          "logIndex": "0x0",
          "removed": false
        },
        {
          "address": "0x913a34de91347ebaba0433d6da41e775004585c4",
          "topics": [
            "0xc7f505b2f371ae2175ee4913f4499e1f2633a7b5936321eed1cdaeb6115181d2"
          ],
          "data": "0x0000000000000000000000000000000000000000000000000000000000000001",
          "blockHash": "0x92dcbda7a82c48b072f3c4da84928b07d08352ab0d50f3b893b91f77635f897b",
          "blockNumber": "0x47ffa2",
          "transactionHash": "0xb316f5fb4ecfffc5c370cdedf0cf5598afda3a3ada167998225b76fca4319627",
          "transactionIndex": "0x0",
          "logIndex": "0x1",
          "removed": false
        },
        {
          "address": "0x19cfed641669fb015e2656312541d132b60a85b7",
          "topics": [
            "0xc7f505b2f371ae2175ee4913f4499e1f2633a7b5936321eed1cdaeb6115181d2"
          ],
          "data": "0x0000000000000000000000000000000000000000000000000000000000000001",
          "blockHash": "0x92dcbda7a82c48b072f3c4da84928b07d08352ab0d50f3b893b91f77635f897b",
          "blockNumber": "0x47ffa2",
          "transactionHash": "0xb316f5fb4ecfffc5c370cdedf0cf5598afda3a3ada167998225b76fca4319627",
          "transactionIndex": "0x0",
          "logIndex": "0x2",
          "removed": false
        },
        {
          "address": "0x8a87bf0ad2eef82a81af12d214e358e5b1d9c66e",
          "topics": [
            "0xc7f505b2f371ae2175ee4913f4499e1f2633a7b5936321eed1cdaeb6115181d2"
          ],
          "data": "0x0000000000000000000000000000000000000000000000000000000000000001",
          "blockHash": "0x92dcbda7a82c48b072f3c4da84928b07d08352ab0d50f3b893b91f77635f897b",
          "blockNumber": "0x47ffa2",
          "transactionHash": "0xb316f5fb4ecfffc5c370cdedf0cf5598afda3a3ada167998225b76fca4319627",
          "transactionIndex": "0x0",
          "logIndex": "0x3",
          "removed": false
        },
        {
          "address": "0x5a98bc15bd4294a7cb38be5bfc1a47511d53d3bd",
          "topics": [
            "0xc7f505b2f371ae2175ee4913f4499e1f2633a7b5936321eed1cdaeb6115181d2"
          ],
          "data": "0x0000000000000000000000000000000000000000000000000000000000000001",
          "blockHash": "0x92dcbda7a82c48b072f3c4da84928b07d08352ab0d50f3b893b91f77635f897b",
          "blockNumber": "0x47ffa2",
          "transactionHash": "0xb316f5fb4ecfffc5c370cdedf0cf5598afda3a3ada167998225b76fca4319627",
          "transactionIndex": "0x0",
          "logIndex": "0x4",
          "removed": false
        },
        {
          "address": "0xa23fed036eb2dcb31e3f77f66d78f5d51e915db2",
          "topics": [
            "0xc7f505b2f371ae2175ee4913f4499e1f2633a7b5936321eed1cdaeb6115181d2"
          ],
          "data": "0x0000000000000000000000000000000000000000000000000000000000000001",
          "blockHash": "0x92dcbda7a82c48b072f3c4da84928b07d08352ab0d50f3b893b91f77635f897b",
          "blockNumber": "0x47ffa2",
          "transactionHash": "0xb316f5fb4ecfffc5c370cdedf0cf5598afda3a3ada167998225b76fca4319627",
          "transactionIndex": "0x0",
          "logIndex": "0x5",
          "removed": false
        },
        {
          "address": "0xd8e21d3cb790af3e31c4f42313694f45a5dabecd",
          "topics": [
            "0x2b7ec2cd1f9292c7a9ae800c2479f6be4217beacb0c01ef2d7e4e84fced3d75b"
          ],
          "data": "0x00000000000000000000000000000000000000000000000000000000000000000000000000000000000000000000000000000000000000000000000000000000",
          "blockHash": "0x92dcbda7a82c48b072f3c4da84928b07d08352ab0d50f3b893b91f77635f897b",
          "blockNumber": "0x47ffa2",
          "transactionHash": "0xb316f5fb4ecfffc5c370cdedf0cf5598afda3a3ada167998225b76fca4319627",
          "transactionIndex": "0x0",
          "logIndex": "0x6",
          "removed": false
        },
        {
          "address": "0x913a34de91347ebaba0433d6da41e775004585c4",
          "topics": [
            "0x2b7ec2cd1f9292c7a9ae800c2479f6be4217beacb0c01ef2d7e4e84fced3d75b"
          ],
          "data": "0x00000000000000000000000000000000000000000000000000000000000000000000000000000000000000000000000000000000000000000000000000000000",
          "blockHash": "0x92dcbda7a82c48b072f3c4da84928b07d08352ab0d50f3b893b91f77635f897b",
          "blockNumber": "0x47ffa2",
          "transactionHash": "0xb316f5fb4ecfffc5c370cdedf0cf5598afda3a3ada167998225b76fca4319627",
          "transactionIndex": "0x0",
          "logIndex": "0x7",
          "removed": false
        },
        {
          "address": "0xa42001d6d2237d2c74108fe360403c4b796b7170",
          "topics": [
            "0xddf252ad1be2c89b69c2b068fc378daa952ba7f163c4a11628f55a4df523b3ef",
            "0x0000000000000000000000000000000000000000000000000000000000000000",
            "0x0000000000000000000000007461d8c0fdf376c847b651d882dea4c73fad2e4b",
            "0x000000000000000000000000000000000000000000000000000000000000000b"
          ],
          "data": "0x",
          "blockHash": "0x92dcbda7a82c48b072f3c4da84928b07d08352ab0d50f3b893b91f77635f897b",
          "blockNumber": "0x47ffa2",
          "transactionHash": "0xb316f5fb4ecfffc5c370cdedf0cf5598afda3a3ada167998225b76fca4319627",
          "transactionIndex": "0x0",
          "logIndex": "0x8",
          "removed": false
        },
        {
          "address": "0xa42001d6d2237d2c74108fe360403c4b796b7170",
          "topics": [
            "0x3d6b896c73b628ec6ba0bdfe3cdee1356ea2af31af2a97bbd6b532ca6fa00acb",
            "0x00000000000000000000000085b0273b0b415f9e28b9ce820240f4aa097f2a29",
            "0x000000000000000000000000cc0966d8418d412c599a6421b760a847eb169a8c",
            "0x000000000000000000000000541fd749419ca806a8bc7da8ac23d346f2df8b77"
          ],
          "data": "0x000000000000000000000000d8e21d3cb790af3e31c4f42313694f45a5dabecd000000000000000000000000913a34de91347ebaba0433d6da41e775004585c4000000000000000000000000c180a042d4d408ba5847fa36000f031b3c239470",
          "blockHash": "0x92dcbda7a82c48b072f3c4da84928b07d08352ab0d50f3b893b91f77635f897b",
          "blockNumber": "0x47ffa2",
          "transactionHash": "0xb316f5fb4ecfffc5c370cdedf0cf5598afda3a3ada167998225b76fca4319627",
          "transactionIndex": "0x0",
          "logIndex": "0x9",
          "removed": false
        },
        {
          "address": "0x3609fc8afce9ece1f0fdc54a51adaf1b18f5dcd2",
          "topics": [
            "0x8be0079c531659141344cd1fd0a4f28419497f9722a3daafe3b4186f6b6457e0",
            "0x0000000000000000000000000000000000000000000000000000000000000000",
            "0x0000000000000000000000007461d8c0fdf376c847b651d882dea4c73fad2e4b"
          ],
          "data": "0x",
          "blockHash": "0x92dcbda7a82c48b072f3c4da84928b07d08352ab0d50f3b893b91f77635f897b",
          "blockNumber": "0x47ffa2",
          "transactionHash": "0xb316f5fb4ecfffc5c370cdedf0cf5598afda3a3ada167998225b76fca4319627",
          "transactionIndex": "0x0",
          "logIndex": "0xa",
          "removed": false
        },
        {
          "address": "0x3609fc8afce9ece1f0fdc54a51adaf1b18f5dcd2",
          "topics": [
            "0xc7f505b2f371ae2175ee4913f4499e1f2633a7b5936321eed1cdaeb6115181d2"
          ],
          "data": "0x0000000000000000000000000000000000000000000000000000000000000001",
          "blockHash": "0x92dcbda7a82c48b072f3c4da84928b07d08352ab0d50f3b893b91f77635f897b",
          "blockNumber": "0x47ffa2",
          "transactionHash": "0xb316f5fb4ecfffc5c370cdedf0cf5598afda3a3ada167998225b76fca4319627",
          "transactionIndex": "0x0",
          "logIndex": "0xb",
          "removed": false
        },
        {
          "address": "0x44e9c695624dad0bb3690a40c90e6d7964b32d3d",
          "topics": [
            "0x520b4351811464729581037d20341082d8883f518612cfb0d3c2f75c12b0c29d"
          ],
          "data": "0x000000000000000000000000c180a042d4d408ba5847fa36000f031b3c239470",
          "blockHash": "0x92dcbda7a82c48b072f3c4da84928b07d08352ab0d50f3b893b91f77635f897b",
          "blockNumber": "0x47ffa2",
          "transactionHash": "0xb316f5fb4ecfffc5c370cdedf0cf5598afda3a3ada167998225b76fca4319627",
          "transactionIndex": "0x0",
          "logIndex": "0xc",
          "removed": false
        }
      ],
      "logsBloom": "0x0000002000000000000000400000000000000000010000800080000000000000000000000000000000000020000000000000000800001808000000800000028000418000000004040000000800000000000100000000040000000004000000400000000003000090000000000000080000000000000000000008001080000060004020000000000000080002800000000000000000008000000000000000000000002000010080000000000000800000000000000040000200000000000000000000000200000800000800000020010000200008008e000000210000000020000000000400000000000000000000000000000000000000040000000000000021",
      "type": "0x2",
      "transactionHash": "0xb316f5fb4ecfffc5c370cdedf0cf5598afda3a3ada167998225b76fca4319627",
      "transactionIndex": "0x0",
      "blockHash": "0x92dcbda7a82c48b072f3c4da84928b07d08352ab0d50f3b893b91f77635f897b",
      "blockNumber": "0x47ffa2",
      "gasUsed": "0x37de1e",
      "effectiveGasPrice": "0xba43b7401",
      "from": "0x6d228fa4dad2163056a48fc2186d716f5c65e89a",
      "to": "0x44e9c695624dad0bb3690a40c90e6d7964b32d3d",
      "contractAddress": null
    }
  ],
  "libraries": [],
  "pending": [],
  "returns": {
    "siloConfig": {
      "internal_type": "contract ISiloConfig",
      "value": "0xc180A042D4d408bA5847fa36000F031B3C239470"
    }
  },
  "timestamp": 1737398817,
  "chain": 146,
  "commit": "6e8f07a2"
}