{
  "transactions": [
    {
      "hash": "0x62d8e4255daafce45b7c89d0716c31900909898395e74603590bc238b579f7eb",
      "transactionType": "CALL",
      "contractName": "ChainlinkV3OracleFactory",
      "contractAddress": "0x760e527129e2f717d8e2e90a8e02d19c2382a80a",
      "function": "create((address,address,address,uint32,address,uint32,uint256,uint256,bool),bytes32)",
      "arguments": [
        "(0xfCeEB7586bab730fA400A5BF3FcF298d0DB4c7e7, 0xA1BC7C2D9185F10D6D50075fAeA3c1e20927674c, 0x926cbc0dEF621e6Bf196d73B60Ea9999d5Bc2ac2, 87001, 0xf9C7c25FE58AAA494EE7ff1f6Cf0b70d7C7ce88c, 0, 100000000000000000000000000, 0, false)",
        "0x0000000000000000000000000000000000000000000000000000000000000000"
      ],
      "transaction": {
        "from": "0xaad2f138eb20fb60c34ac70624339ccbac2320fa",
        "to": "0x760e527129e2f717d8e2e90a8e02d19c2382a80a",
        "gas": "0x77c79",
        "value": "0x0",
        "input": "0x5b996c42000000000000000000000000fceeb7586bab730fa400a5bf3fcf298d0db4c7e7000000000000000000000000a1bc7c2d9185f10d6d50075faea3c1e20927674c000000000000000000000000926cbc0def621e6bf196d73b60ea9999d5bc2ac200000000000000000000000000000000000000000000000000000000000153d9000000000000000000000000f9c7c25fe58aaa494ee7ff1f6cf0b70d7c7ce88c000000000000000000000000000000000000000000000000000000000000000000000000000000000000000000000000000000000052b7d2dcc80cd2e4000000000000000000000000000000000000000000000000000000000000000000000000000000000000000000000000000000000000000000000000000000000000000000000000000000000000000000000000000000000000000000000000000000",
        "nonce": "0x1d",
        "chainId": "0x1"
      },
      "additionalContracts": [
        {
          "transactionType": "CREATE",
          "address": "0x0e71ca742fa2780314af98d703f924539d314845",
          "initCode": "0x6101c0604052348015610010575f5ffd5b506040516104fd3803806104fd83398101604081905261002f9161011d565b80516020820151606083015160c08085015160e08087015160a09283529092526001600160a01b0394851690915291831661010090815263ffffffff918216608090815260408601518516610120528501805185166101405292850151909116610160529051909116151561018052015115156101a0526101c6565b60405161012081016001600160401b03811182821017156100da57634e487b7160e01b5f52604160045260245ffd5b60405290565b80516001600160a01b03811681146100f6575f5ffd5b919050565b805163ffffffff811681146100f6575f5ffd5b805180151581146100f6575f5ffd5b5f61012082840312801561012f575f5ffd5b506101386100ab565b610141836100e0565b815261014f602084016100e0565b6020820152610160604084016100e0565b6040820152610171606084016100fb565b6060820152610182608084016100e0565b608082015261019360a084016100fb565b60a082015260c0838101519082015260e080840151908201526101b9610100840161010e565b6101008201529392505050565b60805160a05160c05160e05161010051610120516101405161016051610180516101a0516102cd6102305f395f61019e01525f61017501525f60b401525f606701525f604201525f61014e01525f61012601525f61010001525f60da01525f608f01526102cd5ff3fe608060405234801561000f575f5ffd5b5060043610610029575f3560e01c8063c3f909d41461002d575b5f5ffd5b60408051610140810182526001600160a01b037f0000000000000000000000000000000000000000000000000000000000000000811682527f0000000000000000000000000000000000000000000000000000000000000000811660208301527f0000000000000000000000000000000000000000000000000000000000000000828401527f000000000000000000000000000000000000000000000000000000000000000060608301527f000000000000000000000000000000000000000000000000000000000000000060808301527f000000000000000000000000000000000000000000000000000000000000000060a08301527f0000000000000000000000000000000000000000000000000000000000000000811660c08301527f00000000000000000000000000000000000000000000000000000000000000001660e08201527f000000000000000000000000000000000000000000000000000000000000000015156101008201527f0000000000000000000000000000000000000000000000000000000000000000151561012082015290516101d191906101da565b60405180910390f35b81516001600160a01b031681526101408101602083015161020660208401826001600160a01b03169052565b5060408301516040830152606083015160608301526080830151608083015260a083015160a083015260c083015161024960c08401826001600160a01b03169052565b5060e083015161026460e08401826001600160a01b03169052565b5061010083015161027a61010084018215159052565b5061012083015161029061012084018215159052565b509291505056fea2646970667358221220a27b890a2c25df4451132e760151dcebaf446e03a67ac1340763259ebb2a082364736f6c634300081c0033000000000000000000000000fceeb7586bab730fa400a5bf3fcf298d0db4c7e7000000000000000000000000a1bc7c2d9185f10d6d50075faea3c1e20927674c000000000000000000000000926cbc0def621e6bf196d73b60ea9999d5bc2ac200000000000000000000000000000000000000000000000000000000000153d9000000000000000000000000f9c7c25fe58aaa494ee7ff1f6cf0b70d7c7ce88c000000000000000000000000000000000000000000000000000000000000000000000000000000000000000000000000000000000052b7d2dcc80cd2e400000000000000000000000000000000000000000000000000000000000000000000000000000000000000000000000000000000000000000000000000000000000000"
        },
        {
          "transactionType": "CREATE2",
          "address": "0x99116ed859cbe2bc18358ce0c2b18b854d2edeb1",
          "initCode": "0x3d602d80600a3d3981f3363d3d373d3d3d363d738c1b5aad7552cb41936cf570fa1e465aa58932a65af43d82803e903d91602b57fd5bf3"
        }
      ],
      "isFixedGasLimit": false
    }
  ],
  "receipts": [
    {
      "status": "0x1",
      "cumulativeGasUsed": "0x20a507b",
      "logs": [
        {
          "address": "0x760e527129e2f717d8e2e90a8e02d19c2382a80a",
          "topics": [
            "0xb3eacd0e351fafdfefdec84e1cd19679b38dbcd63ea7c2c24da17fd2bc3b3c0e",
            "0x00000000000000000000000099116ed859cbe2bc18358ce0c2b18b854d2edeb1"
          ],
          "data": "0x",
          "blockHash": "0x4da088f917eabf29750004ef1bdf28c63b060148b6d1972e6f5e0feb08f2236b",
          "blockNumber": "0x1666a5e",
          "blockTimestamp": "0x68de4197",
          "transactionHash": "0x62d8e4255daafce45b7c89d0716c31900909898395e74603590bc238b579f7eb",
          "transactionIndex": "0x147",
          "logIndex": "0x380",
          "removed": false
        },
        {
          "address": "0x99116ed859cbe2bc18358ce0c2b18b854d2edeb1",
          "topics": [
            "0x077847d1fadf50041a730385b3d6b2de1cdeb5e078cb933fb091003e7f10e07a"
          ],
          "data": "0x0000000000000000000000000e71ca742fa2780314af98d703f924539d314845",
          "blockHash": "0x4da088f917eabf29750004ef1bdf28c63b060148b6d1972e6f5e0feb08f2236b",
          "blockNumber": "0x1666a5e",
          "blockTimestamp": "0x68de4197",
          "transactionHash": "0x62d8e4255daafce45b7c89d0716c31900909898395e74603590bc238b579f7eb",
          "transactionIndex": "0x147",
          "logIndex": "0x381",
          "removed": false
        },
        {
          "address": "0x99116ed859cbe2bc18358ce0c2b18b854d2edeb1",
          "topics": [
            "0xc7f505b2f371ae2175ee4913f4499e1f2633a7b5936321eed1cdaeb6115181d2"
          ],
          "data": "0x0000000000000000000000000000000000000000000000000000000000000001",
          "blockHash": "0x4da088f917eabf29750004ef1bdf28c63b060148b6d1972e6f5e0feb08f2236b",
          "blockNumber": "0x1666a5e",
          "blockTimestamp": "0x68de4197",
          "transactionHash": "0x62d8e4255daafce45b7c89d0716c31900909898395e74603590bc238b579f7eb",
          "transactionIndex": "0x147",
          "logIndex": "0x382",
          "removed": false
        }
      ],
      "logsBloom": "0x00000000000000100100004000000000000000000000000000000000000000000002000000000000000000000000000000000000000000000000000000000000000000000000000000000000800000000000000000000000000000000000200008000000000000000000000000001000000080000000000000000000000000000004000000000000000800000000000000000100000080000000000000000000000000000000000000000000000000000000000000000000000000000000000000000000000000000000000000000000040000000004000004000000000000000000400000000000000000000000000002000000000000000000000000000000",
      "type": "0x2",
      "transactionHash": "0x62d8e4255daafce45b7c89d0716c31900909898395e74603590bc238b579f7eb",
      "transactionIndex": "0x147",
      "blockHash": "0x4da088f917eabf29750004ef1bdf28c63b060148b6d1972e6f5e0feb08f2236b",
      "blockNumber": "0x1666a5e",
      "gasUsed": "0x56b7f",
      "effectiveGasPrice": "0xffd4d60",
      "from": "0xaad2f138eb20fb60c34ac70624339ccbac2320fa",
      "to": "0x760e527129e2f717d8e2e90a8e02d19c2382a80a",
      "contractAddress": null
    }
  ],
  "libraries": [],
  "pending": [],
  "returns": {
    "oracle": {
      "internal_type": "contract ChainlinkV3Oracle",
      "value": "0x99116Ed859CBe2bC18358ce0C2b18B854d2edeB1"
    }
  },
  "timestamp": 1759396250,
  "chain": 1,
  "commit": "0a2a3cdeb"
}