{
  "transactions": [
    {
      "hash": "0x4e0a563365db47d474aefa0337abc1c924a7fc83ddb8d777bbe647ae9cd59d72",
      "transactionType": "CALL",
      "contractName": "ChainlinkV3OracleFactory",
      "contractAddress": "0x760e527129e2f717d8e2e90a8e02d19c2382a80a",
      "function": "create((address,address,address,uint32,address,uint32,uint256,uint256,bool),bytes32)",
      "arguments": [
        "(0xA0b86991c6218b36c1d19D4a2e9Eb0cE3606eB48, 0xA1BC7C2D9185F10D6D50075fAeA3c1e20927674c, 0x8fFfFfd4AfB6115b954Bd326cbe7B4BA576818f6, 3139001, 0x0000000000000000000000000000000000000000, 0, 0, 10000, false)",
        "0x0000000000000000000000000000000000000000000000000000000000000000"
      ],
      "transaction": {
        "from": "0xaad2f138eb20fb60c34ac70624339ccbac2320fa",
        "to": "0x760e527129e2f717d8e2e90a8e02d19c2382a80a",
        "gas": "0x7bd90",
        "value": "0x0",
        "input": "0x5b996c42000000000000000000000000a0b86991c6218b36c1d19d4a2e9eb0ce3606eb48000000000000000000000000a1bc7c2d9185f10d6d50075faea3c1e20927674c0000000000000000000000008fffffd4afb6115b954bd326cbe7b4ba576818f600000000000000000000000000000000000000000000000000000000002fe5b9000000000000000000000000000000000000000000000000000000000000000000000000000000000000000000000000000000000000000000000000000000000000000000000000000000000000000000000000000000000000000000000000000000000000000000000000000000000000000000000000000000000000271000000000000000000000000000000000000000000000000000000000000000000000000000000000000000000000000000000000000000000000000000000000",
        "nonce": "0x1f",
        "chainId": "0x1"
      },
      "additionalContracts": [
        {
          "transactionType": "CREATE",
          "address": "0x1fb46617968d1da7d9c84c1edbcd50d41915d947",
          "initCode": "0x6101c0604052348015610010575f5ffd5b506040516104fd3803806104fd83398101604081905261002f9161011d565b80516020820151606083015160c08085015160e08087015160a09283529092526001600160a01b0394851690915291831661010090815263ffffffff918216608090815260408601518516610120528501805185166101405292850151909116610160529051909116151561018052015115156101a0526101c6565b60405161012081016001600160401b03811182821017156100da57634e487b7160e01b5f52604160045260245ffd5b60405290565b80516001600160a01b03811681146100f6575f5ffd5b919050565b805163ffffffff811681146100f6575f5ffd5b805180151581146100f6575f5ffd5b5f61012082840312801561012f575f5ffd5b506101386100ab565b610141836100e0565b815261014f602084016100e0565b6020820152610160604084016100e0565b6040820152610171606084016100fb565b6060820152610182608084016100e0565b608082015261019360a084016100fb565b60a082015260c0838101519082015260e080840151908201526101b9610100840161010e565b6101008201529392505050565b60805160a05160c05160e05161010051610120516101405161016051610180516101a0516102cd6102305f395f61019e01525f61017501525f60b401525f606701525f604201525f61014e01525f61012601525f61010001525f60da01525f608f01526102cd5ff3fe608060405234801561000f575f5ffd5b5060043610610029575f3560e01c8063c3f909d41461002d575b5f5ffd5b60408051610140810182526001600160a01b037f0000000000000000000000000000000000000000000000000000000000000000811682527f0000000000000000000000000000000000000000000000000000000000000000811660208301527f0000000000000000000000000000000000000000000000000000000000000000828401527f000000000000000000000000000000000000000000000000000000000000000060608301527f000000000000000000000000000000000000000000000000000000000000000060808301527f000000000000000000000000000000000000000000000000000000000000000060a08301527f0000000000000000000000000000000000000000000000000000000000000000811660c08301527f00000000000000000000000000000000000000000000000000000000000000001660e08201527f000000000000000000000000000000000000000000000000000000000000000015156101008201527f0000000000000000000000000000000000000000000000000000000000000000151561012082015290516101d191906101da565b60405180910390f35b81516001600160a01b031681526101408101602083015161020660208401826001600160a01b03169052565b5060408301516040830152606083015160608301526080830151608083015260a083015160a083015260c083015161024960c08401826001600160a01b03169052565b5060e083015161026460e08401826001600160a01b03169052565b5061010083015161027a61010084018215159052565b5061012083015161029061012084018215159052565b509291505056fea2646970667358221220a27b890a2c25df4451132e760151dcebaf446e03a67ac1340763259ebb2a082364736f6c634300081c0033000000000000000000000000a0b86991c6218b36c1d19d4a2e9eb0ce3606eb48000000000000000000000000a1bc7c2d9185f10d6d50075faea3c1e20927674c0000000000000000000000008fffffd4afb6115b954bd326cbe7b4ba576818f600000000000000000000000000000000000000000000000000000000002fe5b900000000000000000000000000000000000000000000000000000000000000000000000000000000000000000000000000000000000000000000000000000000000000000000000000000000000000000000000000000000000000000000000000000000000000000000000000000000000000000000000000000000000027100000000000000000000000000000000000000000000000000000000000000000"
        },
        {
          "transactionType": "CREATE2",
          "address": "0x24fa5e35f4072b96636991fee300c996143ec2d3",
          "initCode": "0x3d602d80600a3d3981f3363d3d373d3d3d363d738c1b5aad7552cb41936cf570fa1e465aa58932a65af43d82803e903d91602b57fd5bf3"
        }
      ],
      "isFixedGasLimit": false
    }
  ],
  "receipts": [
    {
      "status": "0x1",
      "cumulativeGasUsed": "0x11fa990",
      "logs": [
        {
          "address": "0x760e527129e2f717d8e2e90a8e02d19c2382a80a",
          "topics": [
            "0xb3eacd0e351fafdfefdec84e1cd19679b38dbcd63ea7c2c24da17fd2bc3b3c0e",
            "0x00000000000000000000000024fa5e35f4072b96636991fee300c996143ec2d3"
          ],
          "data": "0x",
          "blockHash": "0x415f5c43f2121b8d179f357118cbac242a2a2e0d8ddde731af72f6d67c44eb13",
          "blockNumber": "0x1666b84",
          "blockTimestamp": "0x68de4f6b",
          "transactionHash": "0x4e0a563365db47d474aefa0337abc1c924a7fc83ddb8d777bbe647ae9cd59d72",
          "transactionIndex": "0xb0",
          "logIndex": "0x1e8",
          "removed": false
        },
        {
          "address": "0x24fa5e35f4072b96636991fee300c996143ec2d3",
          "topics": [
            "0x077847d1fadf50041a730385b3d6b2de1cdeb5e078cb933fb091003e7f10e07a"
          ],
          "data": "0x0000000000000000000000001fb46617968d1da7d9c84c1edbcd50d41915d947",
          "blockHash": "0x415f5c43f2121b8d179f357118cbac242a2a2e0d8ddde731af72f6d67c44eb13",
          "blockNumber": "0x1666b84",
          "blockTimestamp": "0x68de4f6b",
          "transactionHash": "0x4e0a563365db47d474aefa0337abc1c924a7fc83ddb8d777bbe647ae9cd59d72",
          "transactionIndex": "0xb0",
          "logIndex": "0x1e9",
          "removed": false
        },
        {
          "address": "0x24fa5e35f4072b96636991fee300c996143ec2d3",
          "topics": [
            "0xc7f505b2f371ae2175ee4913f4499e1f2633a7b5936321eed1cdaeb6115181d2"
          ],
          "data": "0x0000000000000000000000000000000000000000000000000000000000000001",
          "blockHash": "0x415f5c43f2121b8d179f357118cbac242a2a2e0d8ddde731af72f6d67c44eb13",
          "blockNumber": "0x1666b84",
          "blockTimestamp": "0x68de4f6b",
          "transactionHash": "0x4e0a563365db47d474aefa0337abc1c924a7fc83ddb8d777bbe647ae9cd59d72",
          "transactionIndex": "0xb0",
          "logIndex": "0x1ea",
          "removed": false
        }
      ],
      "logsBloom": "0x00000000000000100100000000000000000000000000000001000000000000000000000000000000000000000000000000000000000000000000000000000000000000000000000000000000800000000000000000000000000800000000000008000000000000000000000000001000000000000000000000000000000000000400000000000000000800000000000000000100000080000000000000080000000000000000000000000000000000000000000000000000000000000000000000000000000000000000000000000000040000000004000000000800000000000000400000000000000000000000080002000000000000000000000000000000",
      "type": "0x2",
      "transactionHash": "0x4e0a563365db47d474aefa0337abc1c924a7fc83ddb8d777bbe647ae9cd59d72",
      "transactionIndex": "0xb0",
      "blockHash": "0x415f5c43f2121b8d179f357118cbac242a2a2e0d8ddde731af72f6d67c44eb13",
      "blockNumber": "0x1666b84",
      "gasUsed": "0x54aeb",
      "effectiveGasPrice": "0x1745fa81",
      "from": "0xaad2f138eb20fb60c34ac70624339ccbac2320fa",
      "to": "0x760e527129e2f717d8e2e90a8e02d19c2382a80a",
      "contractAddress": null
    }
  ],
  "libraries": [],
  "pending": [],
  "returns": {
    "oracle": {
      "internal_type": "contract ChainlinkV3Oracle",
      "value": "0x24fa5e35f4072b96636991fee300C996143ec2d3"
    }
  },
  "timestamp": 1759399791,
  "chain": 1,
  "commit": "a74c1ddf2"
}