{
  "transactions": [
    {
      "hash": "0x7319fb71480beab386a1a092e6f9f437337f2e1cc75ebc6ff8a7d9868535adc8",
      "transactionType": "CALL",
      "contractName": null,
      "contractAddress": "0x5420ef7210a7e7ef3265b73a048b1fd92037acea",
      "function": "create((address,address,address,uint32,address,uint32,uint256,uint256,bool),bytes32)",
      "arguments": [
        "(0xfA2958CB79b0491CC627c1557F441eF849Ca8eb1, 0xe9E4f53DFF2e28272C87767aA235286134B09283, 0x1A4cdc37649341e24e4471063932F4ad8B9f69FA, 0, 0x0000000000000000000000000000000000000000, 0, 0, 10000, false)",
        "0x0000000000000000000000000000000000000000000000000000000000000000"
      ],
      "transaction": {
        "from": "0xaad2f138eb20fb60c34ac70624339ccbac2320fa",
        "to": "0x5420ef7210a7e7ef3265b73a048b1fd92037acea",
        "gas": "0x74f48",
        "value": "0x0",
        "input": "0x5b996c42000000000000000000000000fa2958cb79b0491cc627c1557f441ef849ca8eb1000000000000000000000000e9e4f53dff2e28272c87767aa235286134b092830000000000000000000000001a4cdc37649341e24e4471063932f4ad8b9f69fa0000000000000000000000000000000000000000000000000000000000000000000000000000000000000000000000000000000000000000000000000000000000000000000000000000000000000000000000000000000000000000000000000000000000000000000000000000000000000000000000000000000000000000000000000000000000000000000000000000000000000000000000000000271000000000000000000000000000000000000000000000000000000000000000000000000000000000000000000000000000000000000000000000000000000000",
        "nonce": "0x33",
        "chainId": "0x32"
      },
      "additionalContracts": [
        {
          "transactionType": "CREATE",
          "address": "0x6a89fee34376c96881a1970c598eaa945dc748ea",
          "initCode": "0x6101c0604052348015610010575f5ffd5b506040516104fd3803806104fd83398101604081905261002f9161011d565b80516020820151606083015160c08085015160e08087015160a09283529092526001600160a01b0394851690915291831661010090815263ffffffff918216608090815260408601518516610120528501805185166101405292850151909116610160529051909116151561018052015115156101a0526101c6565b60405161012081016001600160401b03811182821017156100da57634e487b7160e01b5f52604160045260245ffd5b60405290565b80516001600160a01b03811681146100f6575f5ffd5b919050565b805163ffffffff811681146100f6575f5ffd5b805180151581146100f6575f5ffd5b5f61012082840312801561012f575f5ffd5b506101386100ab565b610141836100e0565b815261014f602084016100e0565b6020820152610160604084016100e0565b6040820152610171606084016100fb565b6060820152610182608084016100e0565b608082015261019360a084016100fb565b60a082015260c0838101519082015260e080840151908201526101b9610100840161010e565b6101008201529392505050565b60805160a05160c05160e05161010051610120516101405161016051610180516101a0516102cd6102305f395f61019e01525f61017501525f60b401525f606701525f604201525f61014e01525f61012601525f61010001525f60da01525f608f01526102cd5ff3fe608060405234801561000f575f5ffd5b5060043610610029575f3560e01c8063c3f909d41461002d575b5f5ffd5b60408051610140810182526001600160a01b037f0000000000000000000000000000000000000000000000000000000000000000811682527f0000000000000000000000000000000000000000000000000000000000000000811660208301527f0000000000000000000000000000000000000000000000000000000000000000828401527f000000000000000000000000000000000000000000000000000000000000000060608301527f000000000000000000000000000000000000000000000000000000000000000060808301527f000000000000000000000000000000000000000000000000000000000000000060a08301527f0000000000000000000000000000000000000000000000000000000000000000811660c08301527f00000000000000000000000000000000000000000000000000000000000000001660e08201527f000000000000000000000000000000000000000000000000000000000000000015156101008201527f0000000000000000000000000000000000000000000000000000000000000000151561012082015290516101d191906101da565b60405180910390f35b81516001600160a01b031681526101408101602083015161020660208401826001600160a01b03169052565b5060408301516040830152606083015160608301526080830151608083015260a083015160a083015260c083015161024960c08401826001600160a01b03169052565b5060e083015161026460e08401826001600160a01b03169052565b5061010083015161027a61010084018215159052565b5061012083015161029061012084018215159052565b509291505056fea2646970667358221220c0501bccbb34fc537c0683bda9f87dd36e8f54646a86dafcca2f18c5ff405fda64736f6c634300081c0033000000000000000000000000fa2958cb79b0491cc627c1557f441ef849ca8eb1000000000000000000000000e9e4f53dff2e28272c87767aa235286134b092830000000000000000000000001a4cdc37649341e24e4471063932f4ad8b9f69fa000000000000000000000000000000000000000000000000000000000000000000000000000000000000000000000000000000000000000000000000000000000000000000000000000000000000000000000000000000000000000000000000000000000000000000000000000000000000000000000000000000000000000000000000000000000000000000000000000000000000000000000000000027100000000000000000000000000000000000000000000000000000000000000000"
        },
        {
          "transactionType": "CREATE2",
          "address": "0xd53692704f8fe7683e2cd7078ada5fe3d3356244",
          "initCode": "0x3d602d80600a3d3981f3363d3d373d3d3d363d7388131d7507199a5fecb4704eabac1fe10855e1285af43d82803e903d91602b57fd5bf3"
        }
      ],
      "isFixedGasLimit": false
    }
  ],
  "receipts": [
    {
      "status": "0x1",
      "cumulativeGasUsed": "0x71610",
      "logs": [
        {
          "address": "0x5420ef7210a7e7ef3265b73a048b1fd92037acea",
          "topics": [
            "0xb3eacd0e351fafdfefdec84e1cd19679b38dbcd63ea7c2c24da17fd2bc3b3c0e",
            "0x000000000000000000000000d53692704f8fe7683e2cd7078ada5fe3d3356244"
          ],
          "data": "0x",
          "blockHash": "0xe7c6c3356870b334995e4c16c979effa7bcd7ee41db6142f3346fd9ff288d7ab",
          "blockNumber": "0x59e276f",
          "transactionHash": "0x7319fb71480beab386a1a092e6f9f437337f2e1cc75ebc6ff8a7d9868535adc8",
          "transactionIndex": "0x1",
          "logIndex": "0x0",
          "removed": false
        },
        {
          "address": "0xd53692704f8fe7683e2cd7078ada5fe3d3356244",
          "topics": [
            "0x077847d1fadf50041a730385b3d6b2de1cdeb5e078cb933fb091003e7f10e07a"
          ],
          "data": "0x0000000000000000000000006a89fee34376c96881a1970c598eaa945dc748ea",
          "blockHash": "0xe7c6c3356870b334995e4c16c979effa7bcd7ee41db6142f3346fd9ff288d7ab",
          "blockNumber": "0x59e276f",
          "transactionHash": "0x7319fb71480beab386a1a092e6f9f437337f2e1cc75ebc6ff8a7d9868535adc8",
          "transactionIndex": "0x1",
          "logIndex": "0x1",
          "removed": false
        },
        {
          "address": "0xd53692704f8fe7683e2cd7078ada5fe3d3356244",
          "topics": [
            "0xc7f505b2f371ae2175ee4913f4499e1f2633a7b5936321eed1cdaeb6115181d2"
          ],
          "data": "0x0000000000000000000000000000000000000000000000000000000000000001",
          "blockHash": "0xe7c6c3356870b334995e4c16c979effa7bcd7ee41db6142f3346fd9ff288d7ab",
          "blockNumber": "0x59e276f",
          "transactionHash": "0x7319fb71480beab386a1a092e6f9f437337f2e1cc75ebc6ff8a7d9868535adc8",
          "transactionIndex": "0x1",
          "logIndex": "0x2",
          "removed": false
        }
      ],
      "logsBloom": "0x00000000001000100100000000000000000000000000000000000000000000000000000000000000000000000000000000000000000000000000000000000000000000000000000000000000800000000000004000000000000000000000000008000000000400000000000000001000000000000000000000000000000020000000000000000000000800000000000000000001000080000000000000020000001000000000000000000000000000000000000000000000000000000000000000000000000000000000000000000000040000000004000000000000000000000000000000000000000480000000000000000000000000000000000000000000",
      "type": "0x0",
      "transactionHash": "0x7319fb71480beab386a1a092e6f9f437337f2e1cc75ebc6ff8a7d9868535adc8",
      "transactionIndex": "0x1",
      "blockHash": "0xe7c6c3356870b334995e4c16c979effa7bcd7ee41db6142f3346fd9ff288d7ab",
      "blockNumber": "0x59e276f",
      "gasUsed": "0x55701",
      "effectiveGasPrice": "0x0",
      "from": "0xaad2f138eb20fb60c34ac70624339ccbac2320fa",
      "to": "0x5420ef7210a7e7ef3265b73a048b1fd92037acea",
      "contractAddress": null
    }
  ],
  "libraries": [],
  "pending": [],
  "returns": {
    "oracle": {
      "internal_type": "contract ChainlinkV3Oracle",
      "value": "0xD53692704f8Fe7683e2CD7078aDA5FE3d3356244"
    }
  },
  "timestamp": 1759245295,
  "chain": 50,
  "commit": "043b546e0"
}