{
  "transactions": [
    {
      "hash": "0xdca243b540821a2e2b337e688a5eb10a1c41b2b29f3852214978bfce198c31aa",
      "transactionType": "CALL",
      "contractName": null,
      "contractAddress": "0xca11bde05977b3631167028862be2a173976ca11",
      "function": "aggregate3((address,bool,bytes)[])",
      "arguments": [
        "[(0x95Fcd486A795418e14314188CBD72e5B489B8AAF, false, 0x476343ee), (0xfc1AC64e5AFD67465b29D14d0dc1D1d081016394, false, 0x476343ee), (0x86B1C293e56cBAC04D9C15A1Af2Ef1d2050ff6Cd, false, 0x476343ee), (0x3b6F23FE9ec3AF9A65830EcfD5E8673680455501, false, 0x476343ee), (0x28141ab551b268c0799f9B9aA208Fa0e91457451, false, 0x476343ee), (0x2433D6AC11193b4695D9ca73530de93c538aD18a, false, 0x476343ee), (0x90C994d4ABf0e2ec64E7aDbE21cE1BC40deB9208, false, 0x476343ee), (0x1cf4649a2b38747F8E3E70e00f6FA5AEB14A12ba, false, 0x476343ee), (0xef3234a3580be76ccCDaE29958490Ca57923796E, false, 0x476343ee), (0xD2e5dd2C5DE9f6229f4Ca1ec2a5614b0CDc2Ec84, false, 0x476343ee), (0xDC1Ab820C92735E7a5e48f10fa3d8424Ec47A93E, false, 0x476343ee)]"
      ],
      "transaction": {
        "from": "0xaad2f138eb20fb60c34ac70624339ccbac2320fa",
        "to": "0xca11bde05977b3631167028862be2a173976ca11",
        "gas": "0x181576",
        "value": "0x0",
        "input": "0x82ad56cb0000000000000000000000000000000000000000000000000000000000000020000000000000000000000000000000000000000000000000000000000000000b0000000000000000000000000000000000000000000000000000000000000160000000000000000000000000000000000000000000000000000000000000020000000000000000000000000000000000000000000000000000000000000002a0000000000000000000000000000000000000000000000000000000000000034000000000000000000000000000000000000000000000000000000000000003e00000000000000000000000000000000000000000000000000000000000000480000000000000000000000000000000000000000000000000000000000000052000000000000000000000000000000000000000000000000000000000000005c00000000000000000000000000000000000000000000000000000000000000660000000000000000000000000000000000000000000000000000000000000070000000000000000000000000000000000000000000000000000000000000007a000000000000000000000000095fcd486a795418e14314188cbd72e5b489b8aaf000000000000000000000000000000000000000000000000000000000000000000000000000000000000000000000000000000000000000000000000000000600000000000000000000000000000000000000000000000000000000000000004476343ee00000000000000000000000000000000000000000000000000000000000000000000000000000000fc1ac64e5afd67465b29d14d0dc1d1d081016394000000000000000000000000000000000000000000000000000000000000000000000000000000000000000000000000000000000000000000000000000000600000000000000000000000000000000000000000000000000000000000000004476343ee0000000000000000000000000000000000000000000000000000000000000000000000000000000086b1c293e56cbac04d9c15a1af2ef1d2050ff6cd000000000000000000000000000000000000000000000000000000000000000000000000000000000000000000000000000000000000000000000000000000600000000000000000000000000000000000000000000000000000000000000004476343ee000000000000000000000000000000000000000000000000000000000000000000000000000000003b6f23fe9ec3af9a65830ecfd5e8673680455501000000000000000000000000000000000000000000000000000000000000000000000000000000000000000000000000000000000000000000000000000000600000000000000000000000000000000000000000000000000000000000000004476343ee0000000000000000000000000000000000000000000000000000000000000000000000000000000028141ab551b268c0799f9b9aa208fa0e91457451000000000000000000000000000000000000000000000000000000000000000000000000000000000000000000000000000000000000000000000000000000600000000000000000000000000000000000000000000000000000000000000004476343ee000000000000000000000000000000000000000000000000000000000000000000000000000000002433d6ac11193b4695d9ca73530de93c538ad18a000000000000000000000000000000000000000000000000000000000000000000000000000000000000000000000000000000000000000000000000000000600000000000000000000000000000000000000000000000000000000000000004476343ee0000000000000000000000000000000000000000000000000000000000000000000000000000000090c994d4abf0e2ec64e7adbe21ce1bc40deb9208000000000000000000000000000000000000000000000000000000000000000000000000000000000000000000000000000000000000000000000000000000600000000000000000000000000000000000000000000000000000000000000004476343ee000000000000000000000000000000000000000000000000000000000000000000000000000000001cf4649a2b38747f8e3e70e00f6fa5aeb14a12ba000000000000000000000000000000000000000000000000000000000000000000000000000000000000000000000000000000000000000000000000000000600000000000000000000000000000000000000000000000000000000000000004476343ee00000000000000000000000000000000000000000000000000000000000000000000000000000000ef3234a3580be76cccdae29958490ca57923796e000000000000000000000000000000000000000000000000000000000000000000000000000000000000000000000000000000000000000000000000000000600000000000000000000000000000000000000000000000000000000000000004476343ee00000000000000000000000000000000000000000000000000000000000000000000000000000000d2e5dd2c5de9f6229f4ca1ec2a5614b0cdc2ec84000000000000000000000000000000000000000000000000000000000000000000000000000000000000000000000000000000000000000000000000000000600000000000000000000000000000000000000000000000000000000000000004476343ee00000000000000000000000000000000000000000000000000000000000000000000000000000000dc1ab820c92735e7a5e48f10fa3d8424ec47a93e000000000000000000000000000000000000000000000000000000000000000000000000000000000000000000000000000000000000000000000000000000600000000000000000000000000000000000000000000000000000000000000004476343ee00000000000000000000000000000000000000000000000000000000",
        "nonce": "0x1",
        "chainId": "0xa4b1"
      },
      "additionalContracts": [],
      "isFixedGasLimit": false
    }
  ],
  "receipts": [
    {
      "status": "0x1",
      "cumulativeGasUsed": "0x1255fb",
      "logs": [
        {
          "address": "0x95fcd486a795418e14314188cbd72e5b489b8aaf",
          "topics": [
            "0xd1fe0093c54116fe147366ec7de3cfa98e1e02e91d7ccb124241f6beae255b4c"
          ],
          "data": "0x0000000000000000000000000000000000000000000000000000000000006e78",
          "blockHash": "0x3d5a22025d072393910512889906c6934df838a332b3da3368c5225842e6588c",
          "blockNumber": "0x16590ddf",
          "transactionHash": "0xdca243b540821a2e2b337e688a5eb10a1c41b2b29f3852214978bfce198c31aa",
          "transactionIndex": "0x1",
          "logIndex": "0x0",
          "removed": false
        },
        {
          "address": "0xaf88d065e77c8cc2239327c5edb3a432268e5831",
          "topics": [
            "0xddf252ad1be2c89b69c2b068fc378daa952ba7f163c4a11628f55a4df523b3ef",
            "0x00000000000000000000000095fcd486a795418e14314188cbd72e5b489b8aaf",
            "0x000000000000000000000000865a1da42d512d8854c7b0599c962f67f5a5a9d9"
          ],
          "data": "0x0000000000000000000000000000000000000000000000000000000000000000",
          "blockHash": "0x3d5a22025d072393910512889906c6934df838a332b3da3368c5225842e6588c",
          "blockNumber": "0x16590ddf",
          "transactionHash": "0xdca243b540821a2e2b337e688a5eb10a1c41b2b29f3852214978bfce198c31aa",
          "transactionIndex": "0x1",
          "logIndex": "0x1",
          "removed": false
        },
        {
          "address": "0xaf88d065e77c8cc2239327c5edb3a432268e5831",
          "topics": [
            "0xddf252ad1be2c89b69c2b068fc378daa952ba7f163c4a11628f55a4df523b3ef",
            "0x00000000000000000000000095fcd486a795418e14314188cbd72e5b489b8aaf",
            "0x000000000000000000000000865a1da42d512d8854c7b0599c962f67f5a5a9d9"
          ],
          "data": "0x0000000000000000000000000000000000000000000000000000000000000b0c",
          "blockHash": "0x3d5a22025d072393910512889906c6934df838a332b3da3368c5225842e6588c",
          "blockNumber": "0x16590ddf",
          "transactionHash": "0xdca243b540821a2e2b337e688a5eb10a1c41b2b29f3852214978bfce198c31aa",
          "transactionIndex": "0x1",
          "logIndex": "0x2",
          "removed": false
        },
        {
          "address": "0x95fcd486a795418e14314188cbd72e5b489b8aaf",
          "topics": [
            "0x58ce9a502017c1e4e0084fcfd7067e2642dfe9e11757d8017b9cf16d729967c7"
          ],
          "data": "0x0000000000000000000000000000000000000000000000000000000000000b0c00000000000000000000000000000000000000000000000000000000000000000000000000000000000000000000000000000000000000000000000000000000",
          "blockHash": "0x3d5a22025d072393910512889906c6934df838a332b3da3368c5225842e6588c",
          "blockNumber": "0x16590ddf",
          "transactionHash": "0xdca243b540821a2e2b337e688a5eb10a1c41b2b29f3852214978bfce198c31aa",
          "transactionIndex": "0x1",
          "logIndex": "0x3",
          "removed": false
        },
        {
          "address": "0x0c880f6761f1af8d9aa9c466984b80dab9a8c9e8",
          "topics": [
            "0xddf252ad1be2c89b69c2b068fc378daa952ba7f163c4a11628f55a4df523b3ef",
            "0x000000000000000000000000fc1ac64e5afd67465b29d14d0dc1d1d081016394",
            "0x000000000000000000000000865a1da42d512d8854c7b0599c962f67f5a5a9d9"
          ],
          "data": "0x0000000000000000000000000000000000000000000000000000000000000000",
          "blockHash": "0x3d5a22025d072393910512889906c6934df838a332b3da3368c5225842e6588c",
          "blockNumber": "0x16590ddf",
          "transactionHash": "0xdca243b540821a2e2b337e688a5eb10a1c41b2b29f3852214978bfce198c31aa",
          "transactionIndex": "0x1",
          "logIndex": "0x4",
          "removed": false
        },
        {
          "address": "0x0c880f6761f1af8d9aa9c466984b80dab9a8c9e8",
          "topics": [
            "0xddf252ad1be2c89b69c2b068fc378daa952ba7f163c4a11628f55a4df523b3ef",
            "0x000000000000000000000000fc1ac64e5afd67465b29d14d0dc1d1d081016394",
            "0x000000000000000000000000865a1da42d512d8854c7b0599c962f67f5a5a9d9"
          ],
          "data": "0x0000000000000000000000000000000000000000000000000001fcc2989957a9",
          "blockHash": "0x3d5a22025d072393910512889906c6934df838a332b3da3368c5225842e6588c",
          "blockNumber": "0x16590ddf",
          "transactionHash": "0xdca243b540821a2e2b337e688a5eb10a1c41b2b29f3852214978bfce198c31aa",
          "transactionIndex": "0x1",
          "logIndex": "0x5",
          "removed": false
        },
        {
          "address": "0xfc1ac64e5afd67465b29d14d0dc1d1d081016394",
          "topics": [
            "0x58ce9a502017c1e4e0084fcfd7067e2642dfe9e11757d8017b9cf16d729967c7"
          ],
          "data": "0x0000000000000000000000000000000000000000000000000001fcc2989957a900000000000000000000000000000000000000000000000000000000000000000000000000000000000000000000000000000000000000000000000000000000",
          "blockHash": "0x3d5a22025d072393910512889906c6934df838a332b3da3368c5225842e6588c",
          "blockNumber": "0x16590ddf",
          "transactionHash": "0xdca243b540821a2e2b337e688a5eb10a1c41b2b29f3852214978bfce198c31aa",
          "transactionIndex": "0x1",
          "logIndex": "0x6",
          "removed": false
        },
        {
          "address": "0x86b1c293e56cbac04d9c15a1af2ef1d2050ff6cd",
          "topics": [
            "0xd1fe0093c54116fe147366ec7de3cfa98e1e02e91d7ccb124241f6beae255b4c"
          ],
          "data": "0x0000000000000000000000000000000000000000000000000000000000005f55",
          "blockHash": "0x3d5a22025d072393910512889906c6934df838a332b3da3368c5225842e6588c",
          "blockNumber": "0x16590ddf",
          "transactionHash": "0xdca243b540821a2e2b337e688a5eb10a1c41b2b29f3852214978bfce198c31aa",
          "transactionIndex": "0x1",
          "logIndex": "0x7",
          "removed": false
        },
        {
          "address": "0xaf88d065e77c8cc2239327c5edb3a432268e5831",
          "topics": [
            "0xddf252ad1be2c89b69c2b068fc378daa952ba7f163c4a11628f55a4df523b3ef",
            "0x00000000000000000000000086b1c293e56cbac04d9c15a1af2ef1d2050ff6cd",
            "0x000000000000000000000000865a1da42d512d8854c7b0599c962f67f5a5a9d9"
          ],
          "data": "0x0000000000000000000000000000000000000000000000000000000000000000",
          "blockHash": "0x3d5a22025d072393910512889906c6934df838a332b3da3368c5225842e6588c",
          "blockNumber": "0x16590ddf",
          "transactionHash": "0xdca243b540821a2e2b337e688a5eb10a1c41b2b29f3852214978bfce198c31aa",
          "transactionIndex": "0x1",
          "logIndex": "0x8",
          "removed": false
        },
        {
          "address": "0xaf88d065e77c8cc2239327c5edb3a432268e5831",
          "topics": [
            "0xddf252ad1be2c89b69c2b068fc378daa952ba7f163c4a11628f55a4df523b3ef",
            "0x00000000000000000000000086b1c293e56cbac04d9c15a1af2ef1d2050ff6cd",
            "0x000000000000000000000000865a1da42d512d8854c7b0599c962f67f5a5a9d9"
          ],
          "data": "0x000000000000000000000000000000000000000000000000000000000055c3f3",
          "blockHash": "0x3d5a22025d072393910512889906c6934df838a332b3da3368c5225842e6588c",
          "blockNumber": "0x16590ddf",
          "transactionHash": "0xdca243b540821a2e2b337e688a5eb10a1c41b2b29f3852214978bfce198c31aa",
          "transactionIndex": "0x1",
          "logIndex": "0x9",
          "removed": false
        },
        {
          "address": "0x86b1c293e56cbac04d9c15a1af2ef1d2050ff6cd",
          "topics": [
            "0x58ce9a502017c1e4e0084fcfd7067e2642dfe9e11757d8017b9cf16d729967c7"
          ],
          "data": "0x000000000000000000000000000000000000000000000000000000000055c3f300000000000000000000000000000000000000000000000000000000000000000000000000000000000000000000000000000000000000000000000000000000",
          "blockHash": "0x3d5a22025d072393910512889906c6934df838a332b3da3368c5225842e6588c",
          "blockNumber": "0x16590ddf",
          "transactionHash": "0xdca243b540821a2e2b337e688a5eb10a1c41b2b29f3852214978bfce198c31aa",
          "transactionIndex": "0x1",
          "logIndex": "0xa",
          "removed": false
        },
        {
          "address": "0x3b6f23fe9ec3af9a65830ecfd5e8673680455501",
          "topics": [
            "0xd1fe0093c54116fe147366ec7de3cfa98e1e02e91d7ccb124241f6beae255b4c"
          ],
          "data": "0x0000000000000000000000000000000000000000000000000000000000005576",
          "blockHash": "0x3d5a22025d072393910512889906c6934df838a332b3da3368c5225842e6588c",
          "blockNumber": "0x16590ddf",
          "transactionHash": "0xdca243b540821a2e2b337e688a5eb10a1c41b2b29f3852214978bfce198c31aa",
          "transactionIndex": "0x1",
          "logIndex": "0xb",
          "removed": false
        },
        {
          "address": "0xaf88d065e77c8cc2239327c5edb3a432268e5831",
          "topics": [
            "0xddf252ad1be2c89b69c2b068fc378daa952ba7f163c4a11628f55a4df523b3ef",
            "0x0000000000000000000000003b6f23fe9ec3af9a65830ecfd5e8673680455501",
            "0x000000000000000000000000865a1da42d512d8854c7b0599c962f67f5a5a9d9"
          ],
          "data": "0x0000000000000000000000000000000000000000000000000000000000000000",
          "blockHash": "0x3d5a22025d072393910512889906c6934df838a332b3da3368c5225842e6588c",
          "blockNumber": "0x16590ddf",
          "transactionHash": "0xdca243b540821a2e2b337e688a5eb10a1c41b2b29f3852214978bfce198c31aa",
          "transactionIndex": "0x1",
          "logIndex": "0xc",
          "removed": false
        },
        {
          "address": "0xaf88d065e77c8cc2239327c5edb3a432268e5831",
          "topics": [
            "0xddf252ad1be2c89b69c2b068fc378daa952ba7f163c4a11628f55a4df523b3ef",
            "0x0000000000000000000000003b6f23fe9ec3af9a65830ecfd5e8673680455501",
            "0x000000000000000000000000865a1da42d512d8854c7b0599c962f67f5a5a9d9"
          ],
          "data": "0x0000000000000000000000000000000000000000000000000000000000000cd1",
          "blockHash": "0x3d5a22025d072393910512889906c6934df838a332b3da3368c5225842e6588c",
          "blockNumber": "0x16590ddf",
          "transactionHash": "0xdca243b540821a2e2b337e688a5eb10a1c41b2b29f3852214978bfce198c31aa",
          "transactionIndex": "0x1",
          "logIndex": "0xd",
          "removed": false
        },
        {
          "address": "0x3b6f23fe9ec3af9a65830ecfd5e8673680455501",
          "topics": [
            "0x58ce9a502017c1e4e0084fcfd7067e2642dfe9e11757d8017b9cf16d729967c7"
          ],
          "data": "0x0000000000000000000000000000000000000000000000000000000000000cd100000000000000000000000000000000000000000000000000000000000000000000000000000000000000000000000000000000000000000000000000000000",
          "blockHash": "0x3d5a22025d072393910512889906c6934df838a332b3da3368c5225842e6588c",
          "blockNumber": "0x16590ddf",
          "transactionHash": "0xdca243b540821a2e2b337e688a5eb10a1c41b2b29f3852214978bfce198c31aa",
          "transactionIndex": "0x1",
          "logIndex": "0xe",
          "removed": false
        },
        {
          "address": "0x28141ab551b268c0799f9b9aa208fa0e91457451",
          "topics": [
            "0xd1fe0093c54116fe147366ec7de3cfa98e1e02e91d7ccb124241f6beae255b4c"
          ],
          "data": "0x000000000000000000000000000000000000000000000000000000000000088c",
          "blockHash": "0x3d5a22025d072393910512889906c6934df838a332b3da3368c5225842e6588c",
          "blockNumber": "0x16590ddf",
          "transactionHash": "0xdca243b540821a2e2b337e688a5eb10a1c41b2b29f3852214978bfce198c31aa",
          "transactionIndex": "0x1",
          "logIndex": "0xf",
          "removed": false
        },
        {
          "address": "0xaf88d065e77c8cc2239327c5edb3a432268e5831",
          "topics": [
            "0xddf252ad1be2c89b69c2b068fc378daa952ba7f163c4a11628f55a4df523b3ef",
            "0x00000000000000000000000028141ab551b268c0799f9b9aa208fa0e91457451",
            "0x000000000000000000000000865a1da42d512d8854c7b0599c962f67f5a5a9d9"
          ],
          "data": "0x0000000000000000000000000000000000000000000000000000000000000000",
          "blockHash": "0x3d5a22025d072393910512889906c6934df838a332b3da3368c5225842e6588c",
          "blockNumber": "0x16590ddf",
          "transactionHash": "0xdca243b540821a2e2b337e688a5eb10a1c41b2b29f3852214978bfce198c31aa",
          "transactionIndex": "0x1",
          "logIndex": "0x10",
          "removed": false
        },
        {
          "address": "0xaf88d065e77c8cc2239327c5edb3a432268e5831",
          "topics": [
            "0xddf252ad1be2c89b69c2b068fc378daa952ba7f163c4a11628f55a4df523b3ef",
            "0x00000000000000000000000028141ab551b268c0799f9b9aa208fa0e91457451",
            "0x000000000000000000000000865a1da42d512d8854c7b0599c962f67f5a5a9d9"
          ],
          "data": "0x000000000000000000000000000000000000000000000000000000000000158f",
          "blockHash": "0x3d5a22025d072393910512889906c6934df838a332b3da3368c5225842e6588c",
          "blockNumber": "0x16590ddf",
          "transactionHash": "0xdca243b540821a2e2b337e688a5eb10a1c41b2b29f3852214978bfce198c31aa",
          "transactionIndex": "0x1",
          "logIndex": "0x11",
          "removed": false
        },
        {
          "address": "0x28141ab551b268c0799f9b9aa208fa0e91457451",
          "topics": [
            "0x58ce9a502017c1e4e0084fcfd7067e2642dfe9e11757d8017b9cf16d729967c7"
          ],
          "data": "0x000000000000000000000000000000000000000000000000000000000000158f00000000000000000000000000000000000000000000000000000000000000000000000000000000000000000000000000000000000000000000000000000000",
          "blockHash": "0x3d5a22025d072393910512889906c6934df838a332b3da3368c5225842e6588c",
          "blockNumber": "0x16590ddf",
          "transactionHash": "0xdca243b540821a2e2b337e688a5eb10a1c41b2b29f3852214978bfce198c31aa",
          "transactionIndex": "0x1",
          "logIndex": "0x12",
          "removed": false
        },
        {
          "address": "0x2433d6ac11193b4695d9ca73530de93c538ad18a",
          "topics": [
            "0xd1fe0093c54116fe147366ec7de3cfa98e1e02e91d7ccb124241f6beae255b4c"
          ],
          "data": "0x0000000000000000000000000000000000000000000000000000000000a1c9cd",
          "blockHash": "0x3d5a22025d072393910512889906c6934df838a332b3da3368c5225842e6588c",
          "blockNumber": "0x16590ddf",
          "transactionHash": "0xdca243b540821a2e2b337e688a5eb10a1c41b2b29f3852214978bfce198c31aa",
          "transactionIndex": "0x1",
          "logIndex": "0x13",
          "removed": false
        },
        {
          "address": "0xaf88d065e77c8cc2239327c5edb3a432268e5831",
          "topics": [
            "0xddf252ad1be2c89b69c2b068fc378daa952ba7f163c4a11628f55a4df523b3ef",
            "0x0000000000000000000000002433d6ac11193b4695d9ca73530de93c538ad18a",
            "0x000000000000000000000000865a1da42d512d8854c7b0599c962f67f5a5a9d9"
          ],
          "data": "0x0000000000000000000000000000000000000000000000000000000000000000",
          "blockHash": "0x3d5a22025d072393910512889906c6934df838a332b3da3368c5225842e6588c",
          "blockNumber": "0x16590ddf",
          "transactionHash": "0xdca243b540821a2e2b337e688a5eb10a1c41b2b29f3852214978bfce198c31aa",
          "transactionIndex": "0x1",
          "logIndex": "0x14",
          "removed": false
        },
        {
          "address": "0xaf88d065e77c8cc2239327c5edb3a432268e5831",
          "topics": [
            "0xddf252ad1be2c89b69c2b068fc378daa952ba7f163c4a11628f55a4df523b3ef",
            "0x0000000000000000000000002433d6ac11193b4695d9ca73530de93c538ad18a",
            "0x000000000000000000000000865a1da42d512d8854c7b0599c962f67f5a5a9d9"
          ],
          "data": "0x000000000000000000000000000000000000000000000000000000059f25e5fa",
          "blockHash": "0x3d5a22025d072393910512889906c6934df838a332b3da3368c5225842e6588c",
          "blockNumber": "0x16590ddf",
          "transactionHash": "0xdca243b540821a2e2b337e688a5eb10a1c41b2b29f3852214978bfce198c31aa",
          "transactionIndex": "0x1",
          "logIndex": "0x15",
          "removed": false
        },
        {
          "address": "0x2433d6ac11193b4695d9ca73530de93c538ad18a",
          "topics": [
            "0x58ce9a502017c1e4e0084fcfd7067e2642dfe9e11757d8017b9cf16d729967c7"
          ],
          "data": "0x000000000000000000000000000000000000000000000000000000059f25e5fa00000000000000000000000000000000000000000000000000000000000000000000000000000000000000000000000000000000000000000000000000000000",
          "blockHash": "0x3d5a22025d072393910512889906c6934df838a332b3da3368c5225842e6588c",
          "blockNumber": "0x16590ddf",
          "transactionHash": "0xdca243b540821a2e2b337e688a5eb10a1c41b2b29f3852214978bfce198c31aa",
          "transactionIndex": "0x1",
          "logIndex": "0x16",
          "removed": false
        },
        {
          "address": "0xaf88d065e77c8cc2239327c5edb3a432268e5831",
          "topics": [
            "0xddf252ad1be2c89b69c2b068fc378daa952ba7f163c4a11628f55a4df523b3ef",
            "0x00000000000000000000000090c994d4abf0e2ec64e7adbe21ce1bc40deb9208",
            "0x000000000000000000000000865a1da42d512d8854c7b0599c962f67f5a5a9d9"
          ],
          "data": "0x0000000000000000000000000000000000000000000000000000000000000000",
          "blockHash": "0x3d5a22025d072393910512889906c6934df838a332b3da3368c5225842e6588c",
          "blockNumber": "0x16590ddf",
          "transactionHash": "0xdca243b540821a2e2b337e688a5eb10a1c41b2b29f3852214978bfce198c31aa",
          "transactionIndex": "0x1",
          "logIndex": "0x17",
          "removed": false
        },
        {
          "address": "0xaf88d065e77c8cc2239327c5edb3a432268e5831",
          "topics": [
            "0xddf252ad1be2c89b69c2b068fc378daa952ba7f163c4a11628f55a4df523b3ef",
            "0x00000000000000000000000090c994d4abf0e2ec64e7adbe21ce1bc40deb9208",
            "0x000000000000000000000000865a1da42d512d8854c7b0599c962f67f5a5a9d9"
          ],
          "data": "0x000000000000000000000000000000000000000000000000000000000002f2b1",
          "blockHash": "0x3d5a22025d072393910512889906c6934df838a332b3da3368c5225842e6588c",
          "blockNumber": "0x16590ddf",
          "transactionHash": "0xdca243b540821a2e2b337e688a5eb10a1c41b2b29f3852214978bfce198c31aa",
          "transactionIndex": "0x1",
          "logIndex": "0x18",
          "removed": false
        },
        {
          "address": "0x90c994d4abf0e2ec64e7adbe21ce1bc40deb9208",
          "topics": [
            "0x58ce9a502017c1e4e0084fcfd7067e2642dfe9e11757d8017b9cf16d729967c7"
          ],
          "data": "0x000000000000000000000000000000000000000000000000000000000002f2b100000000000000000000000000000000000000000000000000000000000000000000000000000000000000000000000000000000000000000000000000000000",
          "blockHash": "0x3d5a22025d072393910512889906c6934df838a332b3da3368c5225842e6588c",
          "blockNumber": "0x16590ddf",
          "transactionHash": "0xdca243b540821a2e2b337e688a5eb10a1c41b2b29f3852214978bfce198c31aa",
          "transactionIndex": "0x1",
          "logIndex": "0x19",
          "removed": false
        },
        {
          "address": "0x1cf4649a2b38747f8e3e70e00f6fa5aeb14a12ba",
          "topics": [
            "0xd1fe0093c54116fe147366ec7de3cfa98e1e02e91d7ccb124241f6beae255b4c"
          ],
          "data": "0x0000000000000000000000000000000000000000000000000000000000000002",
          "blockHash": "0x3d5a22025d072393910512889906c6934df838a332b3da3368c5225842e6588c",
          "blockNumber": "0x16590ddf",
          "transactionHash": "0xdca243b540821a2e2b337e688a5eb10a1c41b2b29f3852214978bfce198c31aa",
          "transactionIndex": "0x1",
          "logIndex": "0x1a",
          "removed": false
        },
        {
          "address": "0xaf88d065e77c8cc2239327c5edb3a432268e5831",
          "topics": [
            "0xddf252ad1be2c89b69c2b068fc378daa952ba7f163c4a11628f55a4df523b3ef",
            "0x0000000000000000000000001cf4649a2b38747f8e3e70e00f6fa5aeb14a12ba",
            "0x000000000000000000000000865a1da42d512d8854c7b0599c962f67f5a5a9d9"
          ],
          "data": "0x0000000000000000000000000000000000000000000000000000000000000000",
          "blockHash": "0x3d5a22025d072393910512889906c6934df838a332b3da3368c5225842e6588c",
          "blockNumber": "0x16590ddf",
          "transactionHash": "0xdca243b540821a2e2b337e688a5eb10a1c41b2b29f3852214978bfce198c31aa",
          "transactionIndex": "0x1",
          "logIndex": "0x1b",
          "removed": false
        },
        {
          "address": "0xaf88d065e77c8cc2239327c5edb3a432268e5831",
          "topics": [
            "0xddf252ad1be2c89b69c2b068fc378daa952ba7f163c4a11628f55a4df523b3ef",
            "0x0000000000000000000000001cf4649a2b38747f8e3e70e00f6fa5aeb14a12ba",
            "0x000000000000000000000000865a1da42d512d8854c7b0599c962f67f5a5a9d9"
          ],
          "data": "0x000000000000000000000000000000000000000000000000000000000b3979dc",
          "blockHash": "0x3d5a22025d072393910512889906c6934df838a332b3da3368c5225842e6588c",
          "blockNumber": "0x16590ddf",
          "transactionHash": "0xdca243b540821a2e2b337e688a5eb10a1c41b2b29f3852214978bfce198c31aa",
          "transactionIndex": "0x1",
          "logIndex": "0x1c",
          "removed": false
        },
        {
          "address": "0x1cf4649a2b38747f8e3e70e00f6fa5aeb14a12ba",
          "topics": [
            "0x58ce9a502017c1e4e0084fcfd7067e2642dfe9e11757d8017b9cf16d729967c7"
          ],
          "data": "0x000000000000000000000000000000000000000000000000000000000b3979dc00000000000000000000000000000000000000000000000000000000000000000000000000000000000000000000000000000000000000000000000000000000",
          "blockHash": "0x3d5a22025d072393910512889906c6934df838a332b3da3368c5225842e6588c",
          "blockNumber": "0x16590ddf",
          "transactionHash": "0xdca243b540821a2e2b337e688a5eb10a1c41b2b29f3852214978bfce198c31aa",
          "transactionIndex": "0x1",
          "logIndex": "0x1d",
          "removed": false
        },
        {
          "address": "0xef3234a3580be76cccdae29958490ca57923796e",
          "topics": [
            "0xd1fe0093c54116fe147366ec7de3cfa98e1e02e91d7ccb124241f6beae255b4c"
          ],
          "data": "0x00000000000000000000000000000000000000000000000000000000000008d5",
          "blockHash": "0x3d5a22025d072393910512889906c6934df838a332b3da3368c5225842e6588c",
          "blockNumber": "0x16590ddf",
          "transactionHash": "0xdca243b540821a2e2b337e688a5eb10a1c41b2b29f3852214978bfce198c31aa",
          "transactionIndex": "0x1",
          "logIndex": "0x1e",
          "removed": false
        },
        {
          "address": "0xaf88d065e77c8cc2239327c5edb3a432268e5831",
          "topics": [
            "0xddf252ad1be2c89b69c2b068fc378daa952ba7f163c4a11628f55a4df523b3ef",
            "0x000000000000000000000000ef3234a3580be76cccdae29958490ca57923796e",
            "0x000000000000000000000000865a1da42d512d8854c7b0599c962f67f5a5a9d9"
          ],
          "data": "0x0000000000000000000000000000000000000000000000000000000000000000",
          "blockHash": "0x3d5a22025d072393910512889906c6934df838a332b3da3368c5225842e6588c",
          "blockNumber": "0x16590ddf",
          "transactionHash": "0xdca243b540821a2e2b337e688a5eb10a1c41b2b29f3852214978bfce198c31aa",
          "transactionIndex": "0x1",
          "logIndex": "0x1f",
          "removed": false
        },
        {
          "address": "0xaf88d065e77c8cc2239327c5edb3a432268e5831",
          "topics": [
            "0xddf252ad1be2c89b69c2b068fc378daa952ba7f163c4a11628f55a4df523b3ef",
            "0x000000000000000000000000ef3234a3580be76cccdae29958490ca57923796e",
            "0x000000000000000000000000865a1da42d512d8854c7b0599c962f67f5a5a9d9"
          ],
          "data": "0x00000000000000000000000000000000000000000000000000000000000000e2",
          "blockHash": "0x3d5a22025d072393910512889906c6934df838a332b3da3368c5225842e6588c",
          "blockNumber": "0x16590ddf",
          "transactionHash": "0xdca243b540821a2e2b337e688a5eb10a1c41b2b29f3852214978bfce198c31aa",
          "transactionIndex": "0x1",
          "logIndex": "0x20",
          "removed": false
        },
        {
          "address": "0xef3234a3580be76cccdae29958490ca57923796e",
          "topics": [
            "0x58ce9a502017c1e4e0084fcfd7067e2642dfe9e11757d8017b9cf16d729967c7"
          ],
          "data": "0x00000000000000000000000000000000000000000000000000000000000000e200000000000000000000000000000000000000000000000000000000000000000000000000000000000000000000000000000000000000000000000000000000",
          "blockHash": "0x3d5a22025d072393910512889906c6934df838a332b3da3368c5225842e6588c",
          "blockNumber": "0x16590ddf",
          "transactionHash": "0xdca243b540821a2e2b337e688a5eb10a1c41b2b29f3852214978bfce198c31aa",
          "transactionIndex": "0x1",
          "logIndex": "0x21",
          "removed": false
        },
        {
          "address": "0xd2e5dd2c5de9f6229f4ca1ec2a5614b0cdc2ec84",
          "topics": [
            "0xd1fe0093c54116fe147366ec7de3cfa98e1e02e91d7ccb124241f6beae255b4c"
          ],
          "data": "0x0000000000000000000000000000000000000000000000000000000000000976",
          "blockHash": "0x3d5a22025d072393910512889906c6934df838a332b3da3368c5225842e6588c",
          "blockNumber": "0x16590ddf",
          "transactionHash": "0xdca243b540821a2e2b337e688a5eb10a1c41b2b29f3852214978bfce198c31aa",
          "transactionIndex": "0x1",
          "logIndex": "0x22",
          "removed": false
        },
        {
          "address": "0xaf88d065e77c8cc2239327c5edb3a432268e5831",
          "topics": [
            "0xddf252ad1be2c89b69c2b068fc378daa952ba7f163c4a11628f55a4df523b3ef",
            "0x000000000000000000000000d2e5dd2c5de9f6229f4ca1ec2a5614b0cdc2ec84",
            "0x0000000000000000000000000000000000000000000000000000000000000360"
          ],
          "data": "0x0000000000000000000000000000000000000000000000000000000000000000",
          "blockHash": "0x3d5a22025d072393910512889906c6934df838a332b3da3368c5225842e6588c",
          "blockNumber": "0x16590ddf",
          "transactionHash": "0xdca243b540821a2e2b337e688a5eb10a1c41b2b29f3852214978bfce198c31aa",
          "transactionIndex": "0x1",
          "logIndex": "0x23",
          "removed": false
        },
        {
          "address": "0xaf88d065e77c8cc2239327c5edb3a432268e5831",
          "topics": [
            "0xddf252ad1be2c89b69c2b068fc378daa952ba7f163c4a11628f55a4df523b3ef",
            "0x000000000000000000000000d2e5dd2c5de9f6229f4ca1ec2a5614b0cdc2ec84",
            "0x000000000000000000000000865a1da42d512d8854c7b0599c962f67f5a5a9d9"
          ],
          "data": "0x00000000000000000000000000000000000000000000000000000000000000f2",
          "blockHash": "0x3d5a22025d072393910512889906c6934df838a332b3da3368c5225842e6588c",
          "blockNumber": "0x16590ddf",
          "transactionHash": "0xdca243b540821a2e2b337e688a5eb10a1c41b2b29f3852214978bfce198c31aa",
          "transactionIndex": "0x1",
          "logIndex": "0x24",
          "removed": false
        },
        {
          "address": "0xd2e5dd2c5de9f6229f4ca1ec2a5614b0cdc2ec84",
          "topics": [
            "0x58ce9a502017c1e4e0084fcfd7067e2642dfe9e11757d8017b9cf16d729967c7"
          ],
          "data": "0x00000000000000000000000000000000000000000000000000000000000000f200000000000000000000000000000000000000000000000000000000000000000000000000000000000000000000000000000000000000000000000000000000",
          "blockHash": "0x3d5a22025d072393910512889906c6934df838a332b3da3368c5225842e6588c",
          "blockNumber": "0x16590ddf",
          "transactionHash": "0xdca243b540821a2e2b337e688a5eb10a1c41b2b29f3852214978bfce198c31aa",
          "transactionIndex": "0x1",
          "logIndex": "0x25",
          "removed": false
        },
        {
          "address": "0xdc1ab820c92735e7a5e48f10fa3d8424ec47a93e",
          "topics": [
            "0xd1fe0093c54116fe147366ec7de3cfa98e1e02e91d7ccb124241f6beae255b4c"
          ],
          "data": "0x00000000000000000000000000000000000000000000000000000000000007c0",
          "blockHash": "0x3d5a22025d072393910512889906c6934df838a332b3da3368c5225842e6588c",
          "blockNumber": "0x16590ddf",
          "transactionHash": "0xdca243b540821a2e2b337e688a5eb10a1c41b2b29f3852214978bfce198c31aa",
          "transactionIndex": "0x1",
          "logIndex": "0x26",
          "removed": false
        },
        {
          "address": "0xaf88d065e77c8cc2239327c5edb3a432268e5831",
          "topics": [
            "0xddf252ad1be2c89b69c2b068fc378daa952ba7f163c4a11628f55a4df523b3ef",
            "0x000000000000000000000000dc1ab820c92735e7a5e48f10fa3d8424ec47a93e",
            "0x0000000000000000000000000000000000000000000000000000000000000360"
          ],
          "data": "0x0000000000000000000000000000000000000000000000000000000000000000",
          "blockHash": "0x3d5a22025d072393910512889906c6934df838a332b3da3368c5225842e6588c",
          "blockNumber": "0x16590ddf",
          "transactionHash": "0xdca243b540821a2e2b337e688a5eb10a1c41b2b29f3852214978bfce198c31aa",
          "transactionIndex": "0x1",
          "logIndex": "0x27",
          "removed": false
        },
        {
          "address": "0xaf88d065e77c8cc2239327c5edb3a432268e5831",
          "topics": [
            "0xddf252ad1be2c89b69c2b068fc378daa952ba7f163c4a11628f55a4df523b3ef",
            "0x000000000000000000000000dc1ab820c92735e7a5e48f10fa3d8424ec47a93e",
            "0x000000000000000000000000865a1da42d512d8854c7b0599c962f67f5a5a9d9"
          ],
          "data": "0x00000000000000000000000000000000000000000000000000000000000000c6",
          "blockHash": "0x3d5a22025d072393910512889906c6934df838a332b3da3368c5225842e6588c",
          "blockNumber": "0x16590ddf",
          "transactionHash": "0xdca243b540821a2e2b337e688a5eb10a1c41b2b29f3852214978bfce198c31aa",
          "transactionIndex": "0x1",
          "logIndex": "0x28",
          "removed": false
        },
        {
          "address": "0xdc1ab820c92735e7a5e48f10fa3d8424ec47a93e",
          "topics": [
            "0x58ce9a502017c1e4e0084fcfd7067e2642dfe9e11757d8017b9cf16d729967c7"
          ],
          "data": "0x00000000000000000000000000000000000000000000000000000000000000c600000000000000000000000000000000000000000000000000000000000000000000000000000000000000000000000000000000000000000000000000000000",
          "blockHash": "0x3d5a22025d072393910512889906c6934df838a332b3da3368c5225842e6588c",
          "blockNumber": "0x16590ddf",
          "transactionHash": "0xdca243b540821a2e2b337e688a5eb10a1c41b2b29f3852214978bfce198c31aa",
          "transactionIndex": "0x1",
          "logIndex": "0x29",
          "removed": false
        }
      ],
      "logsBloom": "0x00000008040102800000100000000000000020440000000000000000000000000040000000080000008010804004020000040001000400020000040000000400000400400000400080000008000100000000000000010000000000000408000080000000000000000000000180001000100200000000000000100050000000000000080002800000004000000000400005020000020000004000000000000000800000000000040100820000022000000000000000002200000010000000000020002002800000100000000000000010400000008000000004000000100010000002800000000004000000000800240000020000800080004000181050000000",
      "type": "0x2",
      "transactionHash": "0xdca243b540821a2e2b337e688a5eb10a1c41b2b29f3852214978bfce198c31aa",
      "transactionIndex": "0x1",
      "blockHash": "0x3d5a22025d072393910512889906c6934df838a332b3da3368c5225842e6588c",
      "blockNumber": "0x16590ddf",
      "gasUsed": "0x1255fb",
      "effectiveGasPrice": "0x24b3ff0",
      "from": "0xaad2f138eb20fb60c34ac70624339ccbac2320fa",
      "to": "0xca11bde05977b3631167028862be2a173976ca11",
      "contractAddress": null,
      "gasUsedForL1": "0x1b53",
      "l1BlockNumber": "0x16329a3",
      "timeboosted": false
    }
  ],
  "libraries": [],
  "pending": [],
  "returns": {},
  "timestamp": 1756822384,
  "chain": 42161,
  "commit": "f990f0758"
}