{
  "transactions": [
    {
      "hash": "0xdc26052f0ac31cc76565014c4a812f251292fbcc519dc71d2d6b74d178a6f612",
      "transactionType": "CALL",
      "contractName": null,
      "contractAddress": "0x22c4266898f8dd0333a4c7562d4f1f6d297f391d",
      "function": "create((address,address,address,address),bytes32)",
      "arguments": [
        "(0x4d717868F4Bd14ac8B29Bb6361901e30Ae05e340, 0xB4205a645c7e920BD8504181B1D7f2c5C955C3e7, 0x5d3a1Ff2b6BAb83b63cd9AD0787074081a52ef34, 0xB97EF9Ef8734C71904D8002F8b6Bc66Dd9c48a6E)",
        "0x0000000000000000000000000000000000000000000000000000000000000000"
      ],
      "transaction": {
        "from": "0x6d228fa4dad2163056a48fc2186d716f5c65e89a",
        "to": "0x22c4266898f8dd0333a4c7562d4f1f6d297f391d",
        "gas": "0x5fbed",
        "value": "0x0",
        "input": "0x78b850a30000000000000000000000004d717868f4bd14ac8b29bb6361901e30ae05e340000000000000000000000000b4205a645c7e920bd8504181b1d7f2c5c955c3e70000000000000000000000005d3a1ff2b6bab83b63cd9ad0787074081a52ef34000000000000000000000000b97ef9ef8734c71904d8002f8b6bc66dd9c48a6e0000000000000000000000000000000000000000000000000000000000000000",
        "nonce": "0xc3",
        "chainId": "0xa86a"
      },
      "additionalContracts": [
        {
          "transactionType": "CREATE",
          "address": "0x1760055d364f0a1e4fd66242b97d668d04c2d971",
          "initCode": "0x610100604052348015610010575f5ffd5b5060405161027d38038061027d83398101604081905261002f9161007d565b80516001600160a01b039081166080526020820151811660a0526040820151811660c0526060909101511660e052610105565b80516001600160a01b0381168114610078575f5ffd5b919050565b5f608082840312801561008e575f5ffd5b50604051608081016001600160401b03811182821017156100bd57634e487b7160e01b5f52604160045260245ffd5b6040526100c983610062565b81526100d760208401610062565b60208201526100e860408401610062565b60408201526100f960608401610062565b60608201529392505050565b60805160a05160c05160e0516101496101345f395f60bc01525f609301525f606801525f604201526101495ff3fe608060405234801561000f575f5ffd5b5060043610610029575f3560e01c8063c3f909d41461002d575b5f5ffd5b60408051608080820183526001600160a01b037f000000000000000000000000000000000000000000000000000000000000000081168084527f0000000000000000000000000000000000000000000000000000000000000000821660208086019182527f000000000000000000000000000000000000000000000000000000000000000084168688019081527f0000000000000000000000000000000000000000000000000000000000000000851660609788019081528851948552925185169184019190915251831695820195909552935116918301919091520160405180910390f3fea264697066735822122019422df38f309e15572179ecb1a288c75d0e7f76203e3a1b1f3459ea9db5de4064736f6c634300081c00330000000000000000000000004d717868f4bd14ac8b29bb6361901e30ae05e340000000000000000000000000b4205a645c7e920bd8504181b1d7f2c5c955c3e70000000000000000000000005d3a1ff2b6bab83b63cd9ad0787074081a52ef34000000000000000000000000b97ef9ef8734c71904d8002f8b6bc66dd9c48a6e"
        },
        {
          "transactionType": "CREATE2",
          "address": "0x1d954a3d26ab4071e025ca8019ddd3cd6c1ec8c4",
          "initCode": "0x3d602d80600a3d3981f3363d3d373d3d3d363d73998d9a4f87ca2fd14e623ef52653a596bfbd15df5af43d82803e903d91602b57fd5bf3"
        }
      ],
      "isFixedGasLimit": false
    }
  ],
  "receipts": [
    {
      "status": "0x1",
      "cumulativeGasUsed": "0x14399e",
      "logs": [
        {
          "address": "0x22c4266898f8dd0333a4c7562d4f1f6d297f391d",
          "topics": [
            "0xb3eacd0e351fafdfefdec84e1cd19679b38dbcd63ea7c2c24da17fd2bc3b3c0e",
            "0x0000000000000000000000001d954a3d26ab4071e025ca8019ddd3cd6c1ec8c4"
          ],
          "data": "0x",
          "blockHash": "0x93a1db020d331d4cf725e5694586e1de33234563a06949082ee4a272256ce3e4",
          "blockNumber": "0x404a6e3",
          "transactionHash": "0xdc26052f0ac31cc76565014c4a812f251292fbcc519dc71d2d6b74d178a6f612",
          "transactionIndex": "0x5",
          "logIndex": "0x20",
          "removed": false
        },
        {
          "address": "0x1d954a3d26ab4071e025ca8019ddd3cd6c1ec8c4",
          "topics": [
            "0x77fa88974c6468fa8044954c0180c041d53382303a50dcd3f6c5bba73bf7283f",
            "0x0000000000000000000000001760055d364f0a1e4fd66242b97d668d04c2d971"
          ],
          "data": "0x",
          "blockHash": "0x93a1db020d331d4cf725e5694586e1de33234563a06949082ee4a272256ce3e4",
          "blockNumber": "0x404a6e3",
          "transactionHash": "0xdc26052f0ac31cc76565014c4a812f251292fbcc519dc71d2d6b74d178a6f612",
          "transactionIndex": "0x5",
          "logIndex": "0x21",
          "removed": false
        },
        {
          "address": "0x1d954a3d26ab4071e025ca8019ddd3cd6c1ec8c4",
          "topics": [
            "0xc7f505b2f371ae2175ee4913f4499e1f2633a7b5936321eed1cdaeb6115181d2"
          ],
          "data": "0x0000000000000000000000000000000000000000000000000000000000000001",
          "blockHash": "0x93a1db020d331d4cf725e5694586e1de33234563a06949082ee4a272256ce3e4",
          "blockNumber": "0x404a6e3",
          "transactionHash": "0xdc26052f0ac31cc76565014c4a812f251292fbcc519dc71d2d6b74d178a6f612",
          "transactionIndex": "0x5",
          "logIndex": "0x22",
          "removed": false
        }
      ],
      "logsBloom": "0x00000000000000100100000000000000000000002000000000000000000000000000000000000000000000000000000000000000000000000000001000000000000000000000000000000000000000000000000000004000000000000000000008000000000000000000000000000000008000000000000000000000000000000000000000000000000800000040000000000000000082000000000000000004000000000000000000000000000000000000000400000000000000000000000000000000000100000000080000000000000000000004000400000000000000000000004000000000000000000000000000000000000000030000000800000000",
      "type": "0x2",
      "transactionHash": "0xdc26052f0ac31cc76565014c4a812f251292fbcc519dc71d2d6b74d178a6f612",
      "transactionIndex": "0x5",
      "blockHash": "0x93a1db020d331d4cf725e5694586e1de33234563a06949082ee4a272256ce3e4",
      "blockNumber": "0x404a6e3",
      "gasUsed": "0x45517",
      "effectiveGasPrice": "0x3f190ac1",
      "from": "0x6d228fa4dad2163056a48fc2186d716f5c65e89a",
      "to": "0x22c4266898f8dd0333a4c7562d4f1f6d297f391d",
      "contractAddress": null
    }
  ],
  "libraries": [],
  "pending": [],
  "returns": {},
  "timestamp": 1755776428,
  "chain": 43114,
  "commit": "cb1583c45"
}